{
  "contractName": "WinNgnt",
  "abi": [
    {
      "inputs": [
        {
          "internalType": "contract NGNTContract",
          "name": "_NGNT",
          "type": "address"
        },
        {
          "internalType": "contract IPegswap",
          "name": "_pegswap",
          "type": "address"
        },
        {
          "internalType": "contract IERC20",
          "name": "_LINK_ERC20",
          "type": "address"
        },
        {
          "internalType": "address",
          "name": "_WBNB",
          "type": "address"
        },
        {
          "internalType": "contract IPancakeRouter02",
          "name": "_pancakeswap",
          "type": "address"
        },
        {
          "internalType": "contract IRelayHub",
          "name": "_relayHub",
          "type": "address"
        },
        {
          "internalType": "address",
          "name": "_vrfCoordinator",
          "type": "address"
        },
        {
          "internalType": "address",
          "name": "_LINK_ERC677",
          "type": "address"
        },
        {
          "internalType": "address",
          "name": "_trustedForwarder",
          "type": "address"
        },
        {
          "internalType": "address",
          "name": "_paymaster",
          "type": "address"
        },
        {
          "internalType": "uint256",
          "name": "_chainLinkFee",
          "type": "uint256"
        },
        {
          "internalType": "uint256",
          "name": "_maximumPurchasableTickets",
          "type": "uint256"
        }
      ],
      "stateMutability": "nonpayable",
      "type": "constructor"
    },
    {
      "anonymous": false,
      "inputs": [
        {
          "indexed": true,
          "internalType": "address",
          "name": "buyer",
          "type": "address"
        },
        {
          "indexed": false,
          "internalType": "uint256",
          "name": "numOfTickets",
          "type": "uint256"
        },
        {
          "indexed": false,
          "internalType": "uint256",
          "name": "totalTicketPrice",
          "type": "uint256"
        }
      ],
      "name": "BoughtTicket",
      "type": "event"
    },
    {
      "anonymous": false,
      "inputs": [
        {
          "indexed": false,
          "internalType": "uint256",
          "name": "gameNumber",
          "type": "uint256"
        }
      ],
      "name": "GameEnded",
      "type": "event"
    },
    {
      "anonymous": false,
      "inputs": [
        {
          "indexed": false,
          "internalType": "uint16",
          "name": "randomNumber",
          "type": "uint16"
        },
        {
          "indexed": true,
          "internalType": "uint256",
          "name": "gameNumber",
          "type": "uint256"
        }
      ],
      "name": "RandomNumberGenerated",
      "type": "event"
    },
    {
      "anonymous": false,
      "inputs": [
        {
          "indexed": false,
          "internalType": "bytes32",
          "name": "queryId",
          "type": "bytes32"
        },
        {
          "indexed": true,
          "internalType": "uint256",
          "name": "gameNumber",
          "type": "uint256"
        }
      ],
      "name": "RandomNumberQuerySent",
      "type": "event"
    },
    {
      "anonymous": false,
      "inputs": [
        {
          "indexed": false,
          "internalType": "address",
          "name": "winner",
          "type": "address"
        },
        {
          "indexed": false,
          "internalType": "uint256",
          "name": "amount",
          "type": "uint256"
        },
        {
          "indexed": true,
          "internalType": "uint256",
          "name": "gameNumber",
          "type": "uint256"
        }
      ],
      "name": "WinnerSelected",
      "type": "event"
    },
    {
      "inputs": [],
      "name": "LINK_ERC20",
      "outputs": [
        {
          "internalType": "contract IERC20",
          "name": "",
          "type": "address"
        }
      ],
      "stateMutability": "view",
      "type": "function"
    },
    {
      "inputs": [],
      "name": "NGNT",
      "outputs": [
        {
          "internalType": "contract NGNTContract",
          "name": "",
          "type": "address"
        }
      ],
      "stateMutability": "view",
      "type": "function"
    },
    {
      "inputs": [],
      "name": "TOTAL_NGNT",
      "outputs": [
        {
          "internalType": "uint256",
          "name": "",
          "type": "uint256"
        }
      ],
      "stateMutability": "view",
      "type": "function"
    },
    {
      "inputs": [],
      "name": "WBNB",
      "outputs": [
        {
          "internalType": "address",
          "name": "",
          "type": "address"
        }
      ],
      "stateMutability": "view",
      "type": "function"
    },
    {
      "inputs": [
        {
          "internalType": "address",
          "name": "",
          "type": "address"
        }
      ],
      "name": "addressTicketCount",
      "outputs": [
        {
          "internalType": "uint256",
          "name": "",
          "type": "uint256"
        }
      ],
      "stateMutability": "view",
      "type": "function"
    },
    {
      "inputs": [
        {
          "internalType": "uint256",
          "name": "",
          "type": "uint256"
        },
        {
          "internalType": "address",
          "name": "",
          "type": "address"
        }
      ],
      "name": "addressTicketCountPerGame",
      "outputs": [
        {
          "internalType": "uint256",
          "name": "",
          "type": "uint256"
        }
      ],
      "stateMutability": "view",
      "type": "function"
    },
    {
      "inputs": [],
      "name": "commission",
      "outputs": [
        {
          "internalType": "uint256",
          "name": "",
          "type": "uint256"
        }
      ],
      "stateMutability": "view",
      "type": "function"
    },
    {
      "inputs": [],
      "name": "gameNumber",
      "outputs": [
        {
          "internalType": "uint256",
          "name": "",
          "type": "uint256"
        }
      ],
      "stateMutability": "view",
      "type": "function"
    },
    {
      "inputs": [
        {
          "internalType": "uint256",
          "name": "",
          "type": "uint256"
        }
      ],
      "name": "games",
      "outputs": [
        {
          "internalType": "address",
          "name": "gameWinner",
          "type": "address"
        }
      ],
      "stateMutability": "view",
      "type": "function"
    },
    {
      "inputs": [
        {
          "internalType": "address",
          "name": "forwarder",
          "type": "address"
        }
      ],
      "name": "isTrustedForwarder",
      "outputs": [
        {
          "internalType": "bool",
          "name": "",
          "type": "bool"
        }
      ],
      "stateMutability": "view",
      "type": "function"
    },
    {
      "inputs": [],
      "name": "maximumPurchasableTickets",
      "outputs": [
        {
          "internalType": "uint256",
          "name": "",
          "type": "uint256"
        }
      ],
      "stateMutability": "view",
      "type": "function"
    },
    {
      "inputs": [],
      "name": "maximumTicketsPerAddress",
      "outputs": [
        {
          "internalType": "uint256",
          "name": "",
          "type": "uint256"
        }
      ],
      "stateMutability": "view",
      "type": "function"
    },
    {
      "inputs": [],
      "name": "pegswap",
      "outputs": [
        {
          "internalType": "contract IPegswap",
          "name": "",
          "type": "address"
        }
      ],
      "stateMutability": "view",
      "type": "function"
    },
    {
      "inputs": [
        {
          "internalType": "bytes32",
          "name": "",
          "type": "bytes32"
        }
      ],
      "name": "pendingQueries",
      "outputs": [
        {
          "internalType": "bool",
          "name": "",
          "type": "bool"
        }
      ],
      "stateMutability": "view",
      "type": "function"
    },
    {
      "inputs": [
        {
          "internalType": "bytes32",
          "name": "requestId",
          "type": "bytes32"
        },
        {
          "internalType": "uint256",
          "name": "randomness",
          "type": "uint256"
        }
      ],
      "name": "rawFulfillRandomness",
      "outputs": [],
      "stateMutability": "nonpayable",
      "type": "function"
    },
    {
      "inputs": [],
      "name": "relayHub",
      "outputs": [
        {
          "internalType": "contract IRelayHub",
          "name": "",
          "type": "address"
        }
      ],
      "stateMutability": "view",
      "type": "function"
    },
    {
      "inputs": [],
      "name": "ticketPrice",
      "outputs": [
        {
          "internalType": "uint256",
          "name": "",
          "type": "uint256"
        }
      ],
      "stateMutability": "view",
      "type": "function"
    },
    {
      "inputs": [],
      "name": "trustedForwarder",
      "outputs": [
        {
          "internalType": "address",
          "name": "",
          "type": "address"
        }
      ],
      "stateMutability": "view",
      "type": "function"
    },
    {
      "inputs": [],
      "name": "versionRecipient",
      "outputs": [
        {
          "internalType": "string",
          "name": "",
          "type": "string"
        }
      ],
      "stateMutability": "view",
      "type": "function"
    },
    {
      "stateMutability": "payable",
      "type": "receive"
    },
    {
      "inputs": [
        {
          "internalType": "uint256",
          "name": "numberOfTickets",
          "type": "uint256"
        }
      ],
      "name": "buyTicket",
      "outputs": [],
      "stateMutability": "nonpayable",
      "type": "function"
    },
    {
      "inputs": [],
      "name": "numberOfTicketsLeft",
      "outputs": [
        {
          "internalType": "uint256",
          "name": "",
          "type": "uint256"
        }
      ],
      "stateMutability": "view",
      "type": "function"
    },
    {
      "inputs": [],
      "name": "numberOfTicketsPurchased",
      "outputs": [
        {
          "internalType": "uint256",
          "name": "",
          "type": "uint256"
        }
      ],
      "stateMutability": "view",
      "type": "function"
    },
    {
      "inputs": [],
      "name": "getNgntAddress",
      "outputs": [
        {
          "internalType": "address",
          "name": "",
          "type": "address"
        }
      ],
      "stateMutability": "view",
      "type": "function"
    },
    {
      "inputs": [],
      "name": "startNextGame",
      "outputs": [],
      "stateMutability": "nonpayable",
      "type": "function"
    }
  ],
  "bytecode": "0x60c06040526001600a5561c350600b5560fa600c5560fa600d55611388600f5560405180606001604052806025815260200162003479602591396013908051906020019062000050929190620007cb565b503480156200005e57600080fd5b506040516200349e3803806200349e83398181016040526101808110156200008557600080fd5b8101908080519060200190929190805190602001909291908051906020019092919080519060200190929190805190602001909291908051906020019092919080519060200190929190805190602001909291908051906020019092919080519060200190929190805190602001909291908051906020019092919050505085858173ffffffffffffffffffffffffffffffffffffffff1660a08173ffffffffffffffffffffffffffffffffffffffff1660601b815250508073ffffffffffffffffffffffffffffffffffffffff1660808173ffffffffffffffffffffffffffffffffffffffff1660601b8152505050508b600260006101000a81548173ffffffffffffffffffffffffffffffffffffffff021916908373ffffffffffffffffffffffffffffffffffffffff1602179055508a600560006101000a81548173ffffffffffffffffffffffffffffffffffffffff021916908373ffffffffffffffffffffffffffffffffffffffff16021790555089600360006101000a81548173ffffffffffffffffffffffffffffffffffffffff021916908373ffffffffffffffffffffffffffffffffffffffff16021790555088600760006101000a81548173ffffffffffffffffffffffffffffffffffffffff021916908373ffffffffffffffffffffffffffffffffffffffff16021790555087600460006101000a81548173ffffffffffffffffffffffffffffffffffffffff021916908373ffffffffffffffffffffffffffffffffffffffff16021790555080600c819055507fcaf3c3727e033261d383b315559476f48034c13b18f8cafed4d871abe504918660001b60148190555081601081905550836000806101000a81548173ffffffffffffffffffffffffffffffffffffffff021916908373ffffffffffffffffffffffffffffffffffffffff16021790555086600660006101000a81548173ffffffffffffffffffffffffffffffffffffffff021916908373ffffffffffffffffffffffffffffffffffffffff16021790555082600860006101000a81548173ffffffffffffffffffffffffffffffffffffffff021916908373ffffffffffffffffffffffffffffffffffffffff1602179055506040518060600160405280600260009054906101000a900473ffffffffffffffffffffffffffffffffffffffff1673ffffffffffffffffffffffffffffffffffffffff1673ffffffffffffffffffffffffffffffffffffffff168152602001600760009054906101000a900473ffffffffffffffffffffffffffffffffffffffff1673ffffffffffffffffffffffffffffffffffffffff1673ffffffffffffffffffffffffffffffffffffffff168152602001600360009054906101000a900473ffffffffffffffffffffffffffffffffffffffff1673ffffffffffffffffffffffffffffffffffffffff1673ffffffffffffffffffffffffffffffffffffffff168152506012906003620004cc92919062000862565b506040518060400160405280600260009054906101000a900473ffffffffffffffffffffffffffffffffffffffff1673ffffffffffffffffffffffffffffffffffffffff1673ffffffffffffffffffffffffffffffffffffffff168152602001600760009054906101000a900473ffffffffffffffffffffffffffffffffffffffff1673ffffffffffffffffffffffffffffffffffffffff1673ffffffffffffffffffffffffffffffffffffffff16815250601190600262000590929190620008f1565b50600260009054906101000a900473ffffffffffffffffffffffffffffffffffffffff1673ffffffffffffffffffffffffffffffffffffffff1663095ea7b3600460009054906101000a900473ffffffffffffffffffffffffffffffffffffffff167fffffffffffffffffffffffffffffffffffffffffffffffffffffffffffffffff6040518363ffffffff1660e01b8152600401808373ffffffffffffffffffffffffffffffffffffffff16815260200182815260200192505050602060405180830381600087803b1580156200066757600080fd5b505af11580156200067c573d6000803e3d6000fd5b505050506040513d60208110156200069357600080fd5b810190808051906020019092919050505050600360009054906101000a900473ffffffffffffffffffffffffffffffffffffffff1673ffffffffffffffffffffffffffffffffffffffff1663095ea7b3600560009054906101000a900473ffffffffffffffffffffffffffffffffffffffff167fffffffffffffffffffffffffffffffffffffffffffffffffffffffffffffffff6040518363ffffffff1660e01b8152600401808373ffffffffffffffffffffffffffffffffffffffff16815260200182815260200192505050602060405180830381600087803b1580156200077b57600080fd5b505af115801562000790573d6000803e3d6000fd5b505050506040513d6020811015620007a757600080fd5b8101908080519060200190929190505050505050505050505050505050506200099f565b828054600181600116156101000203166002900490600052602060002090601f0160209004810192826200080357600085556200084f565b82601f106200081e57805160ff19168380011785556200084f565b828001600101855582156200084f579182015b828111156200084e57825182559160200191906001019062000831565b5b5090506200085e919062000980565b5090565b828054828255906000526020600020908101928215620008de579160200282015b82811115620008dd5782518260006101000a81548173ffffffffffffffffffffffffffffffffffffffff021916908373ffffffffffffffffffffffffffffffffffffffff1602179055509160200191906001019062000883565b5b509050620008ed919062000980565b5090565b8280548282559060005260206000209081019282156200096d579160200282015b828111156200096c5782518260006101000a81548173ffffffffffffffffffffffffffffffffffffffff021916908373ffffffffffffffffffffffffffffffffffffffff1602179055509160200191906001019062000912565b5b5090506200097c919062000980565b5090565b5b808211156200099b57600081600090555060010162000981565b5090565b60805160601c60a05160601c612a97620009e26000398061135452806125b9525080610ec25280611a7e5280611f02528061210e528061257d5250612a976000f3fe60806040526004361061014f5760003560e01c806389a2cdcb116100b6578063dc0ed8541161006f578063dc0ed85414610664578063e138cd3a146106a5578063e1489191146106d0578063f009451e146106fb578063fbbfa5741461073c578063fdb0a43e1461076757610156565b806389a2cdcb1461050a5780638dd950021461055b57806394985ddd1461059c57806395a0b7c3146105e1578063d809d24814610622578063d8d40cee1461063957610156565b8063538d002811610108578063538d002814610312578063572b6c051461035357806367dd74ca146103ba578063720927dc146103f5578063758fbbee1461045a5780637da0a877146104c957610156565b80630cba0be01461015b578063117a5b90146101865780631209b1f6146101eb57806328475518146102165780633fadcc6614610257578063486ff0cd1461028257610156565b3661015657005b600080fd5b34801561016757600080fd5b50610170610792565b6040518082815260200191505060405180910390f35b34801561019257600080fd5b506101bf600480360360208110156101a957600080fd5b8101908080359060200190929190505050610798565b604051808273ffffffffffffffffffffffffffffffffffffffff16815260200191505060405180910390f35b3480156101f757600080fd5b506102006107d6565b6040518082815260200191505060405180910390f35b34801561022257600080fd5b5061022b6107dc565b604051808273ffffffffffffffffffffffffffffffffffffffff16815260200191505060405180910390f35b34801561026357600080fd5b5061026c610802565b6040518082815260200191505060405180910390f35b34801561028e57600080fd5b50610297610808565b6040518080602001828103825283818151815260200191508051906020019080838360005b838110156102d75780820151818401526020810190506102bc565b50505050905090810190601f1680156103045780820380516001836020036101000a031916815260200191505b509250505060405180910390f35b34801561031e57600080fd5b506103276108a6565b604051808273ffffffffffffffffffffffffffffffffffffffff16815260200191505060405180910390f35b34801561035f57600080fd5b506103a26004803603602081101561037657600080fd5b81019080803573ffffffffffffffffffffffffffffffffffffffff1690602001909291905050506108cc565b60405180821515815260200191505060405180910390f35b3480156103c657600080fd5b506103f3600480360360208110156103dd57600080fd5b8101908080359060200190929190505050610925565b005b34801561040157600080fd5b506104446004803603602081101561041857600080fd5b81019080803573ffffffffffffffffffffffffffffffffffffffff1690602001909291905050506112ab565b6040518082815260200191505060405180910390f35b34801561046657600080fd5b506104b36004803603604081101561047d57600080fd5b8101908080359060200190929190803573ffffffffffffffffffffffffffffffffffffffff1690602001909291905050506112c3565b6040518082815260200191505060405180910390f35b3480156104d557600080fd5b506104de6112e8565b604051808273ffffffffffffffffffffffffffffffffffffffff16815260200191505060405180910390f35b34801561051657600080fd5b506105436004803603602081101561052d57600080fd5b810190808035906020019092919050505061130c565b60405180821515815260200191505060405180910390f35b34801561056757600080fd5b5061057061132c565b604051808273ffffffffffffffffffffffffffffffffffffffff16815260200191505060405180910390f35b3480156105a857600080fd5b506105df600480360360408110156105bf57600080fd5b810190808035906020019092919080359060200190929190505050611352565b005b3480156105ed57600080fd5b506105f6611421565b604051808273ffffffffffffffffffffffffffffffffffffffff16815260200191505060405180910390f35b34801561062e57600080fd5b50610637611447565b005b34801561064557600080fd5b5061064e611451565b6040518082815260200191505060405180910390f35b34801561067057600080fd5b50610679611457565b604051808273ffffffffffffffffffffffffffffffffffffffff16815260200191505060405180910390f35b3480156106b157600080fd5b506106ba611481565b6040518082815260200191505060405180910390f35b3480156106dc57600080fd5b506106e56114c3565b6040518082815260200191505060405180910390f35b34801561070757600080fd5b506107106114c9565b604051808273ffffffffffffffffffffffffffffffffffffffff16815260200191505060405180910390f35b34801561074857600080fd5b506107516114ef565b6040518082815260200191505060405180910390f35b34801561077357600080fd5b5061077c6114f5565b6040518082815260200191505060405180910390f35b600d5481565b60156020528060005260406000206000915090508060010160009054906101000a900473ffffffffffffffffffffffffffffffffffffffff16905081565b600b5481565b600660009054906101000a900473ffffffffffffffffffffffffffffffffffffffff1681565b600c5481565b60138054600181600116156101000203166002900480601f01602080910402602001604051908101604052809291908181526020018280546001816001161561010002031660029004801561089e5780601f106108735761010080835404028352916020019161089e565b820191906000526020600020905b81548152906001019060200180831161088157829003601f168201915b505050505081565b600360009054906101000a900473ffffffffffffffffffffffffffffffffffffffff1681565b60008060009054906101000a900473ffffffffffffffffffffffffffffffffffffffff1673ffffffffffffffffffffffffffffffffffffffff168273ffffffffffffffffffffffffffffffffffffffff16149050919050565b806001811015610980576040517f08c379a00000000000000000000000000000000000000000000000000000000081526004018080602001828103825260278152602001806129d96027913960400191505060405180910390fd5b81600c548160156000600a548152602001908152602001600020600001805490500111156109f9576040517f08c379a000000000000000000000000000000000000000000000000000000000815260040180806020018281038252602c81526020018061298c602c913960400191505060405180910390fd5b610a01611523565b83600d548160176000600a54815260200190815260200160002060008573ffffffffffffffffffffffffffffffffffffffff1673ffffffffffffffffffffffffffffffffffffffff16815260200190815260200160002054011115610ab1576040517f08c379a0000000000000000000000000000000000000000000000000000000008152600401808060200182810382526031815260200180612a006031913960400191505060405180910390fd5b6000610ac886600b5461155f90919063ffffffff16565b9050600060166000610ad8611523565b73ffffffffffffffffffffffffffffffffffffffff1673ffffffffffffffffffffffffffffffffffffffff168152602001908152602001600020549050600060176000600a5481526020019081526020016000206000610b36611523565b73ffffffffffffffffffffffffffffffffffffffff1673ffffffffffffffffffffffffffffffffffffffff168152602001908152602001600020549050600260009054906101000a900473ffffffffffffffffffffffffffffffffffffffff1673ffffffffffffffffffffffffffffffffffffffff166323b872dd610bb9611523565b30866040518463ffffffff1660e01b8152600401808473ffffffffffffffffffffffffffffffffffffffff1681526020018373ffffffffffffffffffffffffffffffffffffffff1681526020018281526020019350505050602060405180830381600087803b158015610c2b57600080fd5b505af1158015610c3f573d6000803e3d6000fd5b505050506040513d6020811015610c5557600080fd5b8101908080519060200190929190505050506000610c7e89600f5461155f90919063ffffffff16565b9050610c9381856115e590919063ffffffff16565b9350610caa8160095461166890919063ffffffff16565b600981905550610cc584600e5461166890919063ffffffff16565b600e81905550610cde898461166890919063ffffffff16565b9250610cf3898361166890919063ffffffff16565b91508260166000610d02611523565b73ffffffffffffffffffffffffffffffffffffffff1673ffffffffffffffffffffffffffffffffffffffff168152602001908152602001600020819055508160176000600a5481526020019081526020016000206000610d60611523565b73ffffffffffffffffffffffffffffffffffffffff1673ffffffffffffffffffffffffffffffffffffffff16815260200190815260200160002081905550600060156000600a548152602001908152602001600020905060005b8a811015610e3b5781600001610dce611523565b9080600181540180825580915050600190039060005260206000200160009091909190916101000a81548173ffffffffffffffffffffffffffffffffffffffff021916908373ffffffffffffffffffffffffffffffffffffffff1602179055508080600101915050610dba565b50610e44611523565b73ffffffffffffffffffffffffffffffffffffffff167f360330060f3e852e9c9989e78f54b5dafc52d2c055662b302d3c7125f077c77a8b87604051808381526020018281526020019250505060405180910390a2600c5460156000600a54815260200190815260200160002060000180549050141561129f5760007f000000000000000000000000000000000000000000000000000000000000000073ffffffffffffffffffffffffffffffffffffffff166370a08231306040518263ffffffff1660e01b8152600401808273ffffffffffffffffffffffffffffffffffffffff16815260200191505060206040518083038186803b158015610f4757600080fd5b505afa158015610f5b573d6000803e3d6000fd5b505050506040513d6020811015610f7157600080fd5b81019080805190602001909291905050509050601054811015611295576000816010540390506000600460009054906101000a900473ffffffffffffffffffffffffffffffffffffffff1673ffffffffffffffffffffffffffffffffffffffff16631f00ca748360126040518363ffffffff1660e01b81526004018083815260200180602001828103825283818154815260200191508054801561106a57602002820191906000526020600020905b8160009054906101000a900473ffffffffffffffffffffffffffffffffffffffff1673ffffffffffffffffffffffffffffffffffffffff1681526020019060010190808311611020575b5050935050505060006040518083038186803b15801561108957600080fd5b505afa15801561109d573d6000803e3d6000fd5b505050506040513d6000823e3d601f19601f8201168201806040525060208110156110c757600080fd5b81019080805160405193929190846401000000008211156110e757600080fd5b838201915060208201858111156110fd57600080fd5b825186602082028301116401000000008211171561111a57600080fd5b8083526020830192505050908051906020019060200280838360005b83811015611151578082015181840152602081019050611136565b5050505090500160405250505090508060008151811061116d57fe5b6020026020010151600954106111a55761119b8160008151811061118d57fe5b6020026020010151836116f0565b6111a4826118fe565b5b60006111bd6005600a54611b2890919063ffffffff16565b1415611292576111cb611bb1565b600660009054906101000a900473ffffffffffffffffffffffffffffffffffffffff1673ffffffffffffffffffffffffffffffffffffffff1663aa67c91947600860009054906101000a900473ffffffffffffffffffffffffffffffffffffffff166040518363ffffffff1660e01b8152600401808273ffffffffffffffffffffffffffffffffffffffff1681526020019150506000604051808303818588803b15801561127857600080fd5b505af115801561128c573d6000803e3d6000fd5b50505050505b50505b61129d611ec4565b505b50505050505050505050565b60166020528060005260406000206000915090505481565b6017602052816000526040600020602052806000526040600020600091509150505481565b60008054906101000a900473ffffffffffffffffffffffffffffffffffffffff1681565b60186020528060005260406000206000915054906101000a900460ff1681565b600760009054906101000a900473ffffffffffffffffffffffffffffffffffffffff1681565b7f000000000000000000000000000000000000000000000000000000000000000073ffffffffffffffffffffffffffffffffffffffff163373ffffffffffffffffffffffffffffffffffffffff1614611413576040517f08c379a000000000000000000000000000000000000000000000000000000000815260040180806020018281038252601f8152602001807f4f6e6c7920565246436f6f7264696e61746f722063616e2066756c66696c6c0081525060200191505060405180910390fd5b61141d8282611fd2565b5050565b600260009054906101000a900473ffffffffffffffffffffffffffffffffffffffff1681565b61144f612109565b565b600a5481565b6000600260009054906101000a900473ffffffffffffffffffffffffffffffffffffffff16905090565b60008060156000600a54815260200190815260200160002090506000816000018054905090506114bc81600c546115e590919063ffffffff16565b9250505090565b60095481565b600560009054906101000a900473ffffffffffffffffffffffffffffffffffffffff1681565b600e5481565b60008060156000600a5481526020019081526020016000209050600081600001805490509050809250505090565b6000601460003690501015801561153f575061153e336108cc565b5b1561155357601436033560601c905061155b565b33905061155c565b5b90565b60008083141561157257600090506115df565b600082840290508284828161158357fe5b04146115da576040517f08c379a00000000000000000000000000000000000000000000000000000000081526004018080602001828103825260218152602001806129b86021913960400191505060405180910390fd5b809150505b92915050565b60008282111561165d576040517f08c379a000000000000000000000000000000000000000000000000000000000815260040180806020018281038252601e8152602001807f536166654d6174683a207375627472616374696f6e206f766572666c6f77000081525060200191505060405180910390fd5b818303905092915050565b6000808284019050838110156116e6576040517f08c379a000000000000000000000000000000000000000000000000000000000815260040180806020018281038252601b8152602001807f536166654d6174683a206164646974696f6e206f766572666c6f77000000000081525060200191505060405180910390fd5b8091505092915050565b600460009054906101000a900473ffffffffffffffffffffffffffffffffffffffff1673ffffffffffffffffffffffffffffffffffffffff16638803dbee82846012306117486104b04261166890919063ffffffff16565b6040518663ffffffff1660e01b815260040180868152602001858152602001806020018473ffffffffffffffffffffffffffffffffffffffff168152602001838152602001828103825285818154815260200191508054801561180057602002820191906000526020600020905b8160009054906101000a900473ffffffffffffffffffffffffffffffffffffffff1673ffffffffffffffffffffffffffffffffffffffff16815260200190600101908083116117b6575b50509650505050505050600060405180830381600087803b15801561182457600080fd5b505af1158015611838573d6000803e3d6000fd5b505050506040513d6000823e3d601f19601f82011682018060405250602081101561186257600080fd5b810190808051604051939291908464010000000082111561188257600080fd5b8382019150602082018581111561189857600080fd5b82518660208202830111640100000000821117156118b557600080fd5b8083526020830192505050908051906020019060200280838360005b838110156118ec5780820151818401526020810190506118d1565b50505050905001604052505050505050565b80600360009054906101000a900473ffffffffffffffffffffffffffffffffffffffff1673ffffffffffffffffffffffffffffffffffffffff166370a08231306040518263ffffffff1660e01b8152600401808273ffffffffffffffffffffffffffffffffffffffff16815260200191505060206040518083038186803b15801561198857600080fd5b505afa15801561199c573d6000803e3d6000fd5b505050506040513d60208110156119b257600080fd5b81019080805190602001909291905050501015611a1a576040517f08c379a000000000000000000000000000000000000000000000000000000000815260040180806020018281038252602f81526020018061293b602f913960400191505060405180910390fd5b600560009054906101000a900473ffffffffffffffffffffffffffffffffffffffff1673ffffffffffffffffffffffffffffffffffffffff16632b7f092382600360009054906101000a900473ffffffffffffffffffffffffffffffffffffffff167f00000000000000000000000000000000000000000000000000000000000000006040518463ffffffff1660e01b8152600401808481526020018373ffffffffffffffffffffffffffffffffffffffff1681526020018273ffffffffffffffffffffffffffffffffffffffff1681526020019350505050600060405180830381600087803b158015611b0d57600080fd5b505af1158015611b21573d6000803e3d6000fd5b5050505050565b6000808211611b9f576040517f08c379a00000000000000000000000000000000000000000000000000000000081526004018080602001828103825260188152602001807f536166654d6174683a206d6f64756c6f206279207a65726f000000000000000081525060200191505060405180910390fd5b818381611ba857fe5b06905092915050565b670de0b6b3a7640000600660009054906101000a900473ffffffffffffffffffffffffffffffffffffffff1673ffffffffffffffffffffffffffffffffffffffff166370a08231600860009054906101000a900473ffffffffffffffffffffffffffffffffffffffff166040518263ffffffff1660e01b8152600401808273ffffffffffffffffffffffffffffffffffffffff16815260200191505060206040518083038186803b158015611c6557600080fd5b505afa158015611c79573d6000803e3d6000fd5b505050506040513d6020811015611c8f57600080fd5b81019080805190602001909291905050501015611ec257600060095490506000600981905550600460009054906101000a900473ffffffffffffffffffffffffffffffffffffffff1673ffffffffffffffffffffffffffffffffffffffff166318cbafe5826001601130611d0e6104b04261166890919063ffffffff16565b6040518663ffffffff1660e01b815260040180868152602001858152602001806020018473ffffffffffffffffffffffffffffffffffffffff1681526020018381526020018281038252858181548152602001915080548015611dc657602002820191906000526020600020905b8160009054906101000a900473ffffffffffffffffffffffffffffffffffffffff1673ffffffffffffffffffffffffffffffffffffffff1681526020019060010190808311611d7c575b50509650505050505050600060405180830381600087803b158015611dea57600080fd5b505af1158015611dfe573d6000803e3d6000fd5b505050506040513d6000823e3d601f19601f820116820180604052506020811015611e2857600080fd5b8101908080516040519392919084640100000000821115611e4857600080fd5b83820191506020820185811115611e5e57600080fd5b8251866020820283011164010000000082111715611e7b57600080fd5b8083526020830192505050908051906020019060200280838360005b83811015611eb2578082015181840152602081019050611e97565b5050505090500160405250505050505b565b7fce24807f7e4b60b4e641462f13029fa5e5f79075bbc3f8e5cd43ecd19661d760600a546040518082815260200191505060405180910390a16010547f000000000000000000000000000000000000000000000000000000000000000073ffffffffffffffffffffffffffffffffffffffff166370a08231306040518263ffffffff1660e01b8152600401808273ffffffffffffffffffffffffffffffffffffffff16815260200191505060206040518083038186803b158015611f8757600080fd5b505afa158015611f9b573d6000803e3d6000fd5b505050506040513d6020811015611fb157600080fd5b810190808051906020019092919050505010611fd057611fcf612109565b5b565b81600115156018600083815260200190815260200160002060009054906101000a900460ff16151514612050576040517f08c379a000000000000000000000000000000000000000000000000000000000815260040180806020018281038252602281526020018061296a6022913960400191505060405180910390fd5b600c5460156000600a548152602001908152602001600020600001805490501461207957600080fd5b6018600084815260200190815260200160002060006101000a81549060ff0219169055600060016120b5600c5485611b2890919063ffffffff16565b019050600a547f144f14361fb5bcbf35b044a9528e54f65197cc24874f62c7bc8574ea0b0e612582604051808261ffff16815260200191505060405180910390a26121038161ffff166122a1565b50505050565b6010547f000000000000000000000000000000000000000000000000000000000000000073ffffffffffffffffffffffffffffffffffffffff166370a08231306040518263ffffffff1660e01b8152600401808273ffffffffffffffffffffffffffffffffffffffff16815260200191505060206040518083038186803b15801561219357600080fd5b505afa1580156121a7573d6000803e3d6000fd5b505050506040513d60208110156121bd57600080fd5b81019080805190602001909291905050501015612225576040517f08c379a0000000000000000000000000000000000000000000000000000000008152600401808060200182810382526031815260200180612a316031913960400191505060405180910390fd5b600061223660145460105442612579565b905060016018600083815260200190815260200160002060006101000a81548160ff021916908315150217905550600a547fb28c123b0720a067cc8c475aa3357f6fa1609d966314555a907a47b17c74278c826040518082815260200191505060405180910390a250565b600060156000600a548152602001908152602001600020905060008160000183815481106122cb57fe5b9060005260206000200160009054906101000a900473ffffffffffffffffffffffffffffffffffffffff169050808260010160006101000a81548173ffffffffffffffffffffffffffffffffffffffff021916908373ffffffffffffffffffffffffffffffffffffffff16021790555060006123666064612358605a600e5461155f90919063ffffffff16565b61277090919063ffffffff16565b905061243e81600260009054906101000a900473ffffffffffffffffffffffffffffffffffffffff1673ffffffffffffffffffffffffffffffffffffffff166370a08231306040518263ffffffff1660e01b8152600401808273ffffffffffffffffffffffffffffffffffffffff16815260200191505060206040518083038186803b1580156123f557600080fd5b505afa158015612409573d6000803e3d6000fd5b505050506040513d602081101561241f57600080fd5b81019080805190602001909291905050506115e590919063ffffffff16565b60098190555061244c6127f9565b600260009054906101000a900473ffffffffffffffffffffffffffffffffffffffff1673ffffffffffffffffffffffffffffffffffffffff1663a9059cbb83836040518363ffffffff1660e01b8152600401808373ffffffffffffffffffffffffffffffffffffffff16815260200182815260200192505050602060405180830381600087803b1580156124df57600080fd5b505af11580156124f3573d6000803e3d6000fd5b505050506040513d602081101561250957600080fd5b810190808051906020019092919050505050600a547f866efae43947560fe9d0de9013bc323d5718730d5c1543261b48a7bcb0717b938383604051808373ffffffffffffffffffffffffffffffffffffffff1681526020018281526020019250505060405180910390a250505050565b60007f000000000000000000000000000000000000000000000000000000000000000073ffffffffffffffffffffffffffffffffffffffff16634000aea07f000000000000000000000000000000000000000000000000000000000000000085878660405160200180838152602001828152602001925050506040516020818303038152906040526040518463ffffffff1660e01b8152600401808473ffffffffffffffffffffffffffffffffffffffff16815260200183815260200180602001828103825283818151815260200191508051906020019080838360005b83811015612672578082015181840152602081019050612657565b50505050905090810190601f16801561269f5780820380516001836020036101000a031916815260200191505b50945050505050602060405180830381600087803b1580156126c057600080fd5b505af11580156126d4573d6000803e3d6000fd5b505050506040513d60208110156126ea57600080fd5b810190808051906020019092919050505050600061271d858430600160008a815260200190815260200160002054612815565b905061274560018060008881526020019081526020016000205461287990919063ffffffff16565b60016000878152602001908152602001600020819055506127668582612901565b9150509392505050565b60008082116127e7576040517f08c379a000000000000000000000000000000000000000000000000000000000815260040180806020018281038252601a8152602001807f536166654d6174683a206469766973696f6e206279207a65726f00000000000081525060200191505060405180910390fd5b8183816127f057fe5b04905092915050565b600a600081548092919060010191905055506000600e81905550565b600084848484604051602001808581526020018481526020018373ffffffffffffffffffffffffffffffffffffffff1681526020018281526020019450505050506040516020818303038152906040528051906020012060001c9050949350505050565b6000808284019050838110156128f7576040517f08c379a000000000000000000000000000000000000000000000000000000000815260040180806020018281038252601b8152602001807f536166654d6174683a206164646974696f6e206f766572666c6f77000000000081525060200191505060405180910390fd5b8091505092915050565b6000828260405160200180838152602001828152602001925050506040516020818303038152906040528051906020012090509291505056fe57696e4e676e743a204552433230204c494e4b2062616c616e6365206e6f7420656e6f75676820666f72207377617057696e4e676e743a5175657279496420686173206265656e2070726f63657373656457696e4e676e743a546f74616c207469636b6574207065722067616d65206c696d6974206578636565646564536166654d6174683a206d756c7469706c69636174696f6e206f766572666c6f7757696e4e676e743a43616e6e6f7420627579206c657373207468616e206f6e65207469636b657457696e4e676e743a4d6178696d756d207469636b6574206c696d697420706572206164647265737320657863656564656457696e4e676e743a204c494e4b5f4552433637372062616c616e6365206e6f7420656e6f75676820666f72207175657279a26469706673582212201fd2fb98f34b9be5b72fbb2ea06c237a5f909dbb64437295eae87df9a35976fc64736f6c63430007060033322e322e302b6f70656e67736e2e77696e6e676e742e6972656c6179726563697069656e74",
  "immutableReferences": {
    "1968": [
      {
        "length": 32,
        "start": 3778
      },
      {
        "length": 32,
        "start": 6782
      },
      {
        "length": 32,
        "start": 7938
      },
      {
        "length": 32,
        "start": 8462
      },
      {
        "length": 32,
        "start": 9597
      }
    ],
    "1970": [
      {
        "length": 32,
        "start": 4948
      },
      {
        "length": 32,
        "start": 9657
      }
    ]
  },
  "source": "// SPDX-License-Identifier:MIT\npragma solidity 0.7.6;\n\nimport \"@openzeppelin/contracts/token/ERC20/IERC20.sol\";\nimport \"./interfaces/IPancakeRouter02.sol\";\nimport \"./interfaces/IPegswap.sol\";\nimport \"@openzeppelin/contracts/math/SafeMath.sol\";\nimport \"@opengsn/contracts/src/interfaces/IRelayHub.sol\";\nimport \"@opengsn/contracts/src/BaseRelayRecipient.sol\";\nimport \"@chainlink/contracts/src/v0.7/dev/VRFConsumerBase.sol\";\nimport \"./tokens/NGNT.sol\";\n\ncontract WinNgnt is BaseRelayRecipient, VRFConsumerBase {\n    using SafeMath for uint256;\n\n    NGNTContract public NGNT;\n    //ERC20 version of original ERC677 token\n    IERC20 public LINK_ERC20;\n    IPancakeRouter02 private pancakeswap;\n    IPegswap public pegswap;\n    IRelayHub public relayHub;\n\n    address public WBNB;\n    address private paymaster;\n\n    struct Game {\n        address[] tickets;\n        address gameWinner;\n    }\n\n    uint256 public commission;\n    uint256 public gameNumber = 1;\n    uint256 public ticketPrice = 50000;\n    uint256 public maximumPurchasableTickets = 250;\n    uint256 public maximumTicketsPerAddress = 250;\n    uint256 public TOTAL_NGNT;\n    uint256 gsnFee = 5000;\n    uint256 internal chainLinkFee;\n\n    address[] path_NGNTBNB;\n    address[] path_NGNTLINKERC20;\n\n    string public override versionRecipient =\n        \"2.2.0+opengsn.winngnt.irelayrecipient\";\n\n    bytes32 internal keyHash;\n\n    mapping(uint256 => Game) public games;\n    mapping(address => uint256) public addressTicketCount;\n    mapping(uint256 => mapping(address => uint256))\n        public addressTicketCountPerGame;\n    mapping(bytes32 => bool) public pendingQueries;\n\n    event GameEnded(uint256 gameNumber);\n    event BoughtTicket(\n        address indexed buyer,\n        uint256 numOfTickets,\n        uint256 totalTicketPrice\n    );\n    event RandomNumberQuerySent(bytes32 queryId, uint256 indexed gameNumber);\n    event RandomNumberGenerated(\n        uint16 randomNumber,\n        uint256 indexed gameNumber\n    );\n    event WinnerSelected(\n        address winner,\n        uint256 amount,\n        uint256 indexed gameNumber\n    );\n\n    modifier atLeastOneTicket(uint256 numberOfTickets) {\n        require(\n            numberOfTickets >= 1,\n            \"WinNgnt:Cannot buy less than one ticket\"\n        );\n        _;\n    }\n\n    modifier ticketLimitNotExceed(uint256 numberOfTickets) {\n        require(\n            (games[gameNumber].tickets.length + numberOfTickets) <=\n                maximumPurchasableTickets,\n            \"WinNgnt:Total ticket per game limit exceeded\"\n        );\n        _;\n    }\n\n    modifier maxTicketPerAddressLimitNotExceed(\n        address _address,\n        uint256 numberOfTickets\n    ) {\n        require(\n            (addressTicketCountPerGame[gameNumber][_address] +\n                numberOfTickets) <= maximumTicketsPerAddress,\n            \"WinNgnt:Maximum ticket limit per address exceeded\"\n        );\n        _;\n    }\n\n    modifier queryIdHasNotBeenProcessed(bytes32 queryId) {\n        require(\n            pendingQueries[queryId] == true,\n            \"WinNgnt:QueryId has been processed\"\n        );\n        _;\n    }\n\n    constructor(\n        NGNTContract _NGNT,\n        IPegswap _pegswap,\n        IERC20 _LINK_ERC20,\n        address _WBNB,\n        IPancakeRouter02 _pancakeswap,\n        IRelayHub _relayHub,\n        address _vrfCoordinator,\n        address _LINK_ERC677,\n        address _trustedForwarder,\n        address _paymaster,\n        uint256 _chainLinkFee,\n        uint256 _maximumPurchasableTickets\n    )\n        VRFConsumerBase(\n            _vrfCoordinator,\n            _LINK_ERC677\n        )\n    {\n        NGNT = _NGNT;\n        pegswap = _pegswap;\n        LINK_ERC20 = _LINK_ERC20;\n        WBNB = _WBNB;\n        pancakeswap = _pancakeswap;\n        maximumPurchasableTickets = _maximumPurchasableTickets;\n        keyHash = 0xcaf3c3727e033261d383b315559476f48034c13b18f8cafed4d871abe5049186;\n        chainLinkFee = _chainLinkFee;\n        trustedForwarder = _trustedForwarder;\n        relayHub = _relayHub;\n        paymaster = _paymaster;\n        path_NGNTLINKERC20 = [address(NGNT), WBNB, address(LINK_ERC20)];\n        path_NGNTBNB = [address(NGNT), WBNB];\n\n        NGNT.approve(address(pancakeswap), type(uint256).max);\n        LINK_ERC20.approve(address(pegswap), type(uint256).max);\n    }\n\n    function buyTicket(uint256 numberOfTickets)\n        external\n        atLeastOneTicket(numberOfTickets)\n        ticketLimitNotExceed(numberOfTickets)\n        maxTicketPerAddressLimitNotExceed(_msgSender(), numberOfTickets)\n    {\n        uint256 totalTicketPrice = ticketPrice.mul(numberOfTickets);\n        uint256 totalAddressTicketCount = addressTicketCount[_msgSender()];\n        uint256 totalAddressTicketCountPerGame =\n            addressTicketCountPerGame[gameNumber][_msgSender()];\n\n\n        NGNT.transferFrom(_msgSender(), address(this), totalTicketPrice);\n        uint addCommission = gsnFee.mul(numberOfTickets);\n        totalTicketPrice = totalTicketPrice.sub(addCommission);\n        commission = commission.add(addCommission);\n        \n\n        TOTAL_NGNT = TOTAL_NGNT.add(totalTicketPrice);\n\n        totalAddressTicketCount = totalAddressTicketCount.add(numberOfTickets);\n        totalAddressTicketCountPerGame = totalAddressTicketCountPerGame.add(numberOfTickets);\n\n        addressTicketCount[_msgSender()] = totalAddressTicketCount;\n        addressTicketCountPerGame[gameNumber][\n            _msgSender()\n        ] = totalAddressTicketCountPerGame;\n\n        Game storage game = games[gameNumber];\n        for (uint256 i = 0; i < numberOfTickets; i++) {\n            game.tickets.push(_msgSender());\n        }\n\n        emit BoughtTicket(_msgSender(), numberOfTickets, totalTicketPrice);\n\n        if (games[gameNumber].tickets.length == maximumPurchasableTickets) {\n\n            uint LINK_ERC677_Balance = LINK_ERC677.balanceOf(address(this));\n            if (LINK_ERC677_Balance < chainLinkFee) {\n                \n                uint amountOut = chainLinkFee - LINK_ERC677_Balance;\n                \n                uint[] memory amountsIn = pancakeswap.getAmountsIn(amountOut, path_NGNTLINKERC20);\n\n                if(commission >= amountsIn[0]){\n                    swapNGNTForLINK_ERC20(amountsIn[0], amountOut);\n                    swapLINK_ERC20ForLINK_ERC677(amountOut);\n                }\n\n                if(gameNumber.mod(5) == 0){\n                    swapNGNTForBNB();\n                    relayHub.depositFor{value: address(this).balance}(paymaster);\n                }\n            }\n            endGame();\n        }\n    }\n\n    function numberOfTicketsLeft() external view returns (uint256) {\n        Game storage game = games[gameNumber];\n        uint256 ticketsBought = game.tickets.length;\n        return maximumPurchasableTickets.sub(ticketsBought);\n    }\n\n    function numberOfTicketsPurchased() external view returns (uint256) {\n        Game storage game = games[gameNumber];\n        uint256 ticketsBought = game.tickets.length;\n        return ticketsBought;\n    }\n\n    function getNgntAddress() external view returns (address) {\n        return address(NGNT);\n    }\n\n    function fulfillRandomness(bytes32 queryId, uint256 randomness)\n        internal\n        override\n        queryIdHasNotBeenProcessed(queryId)\n    {\n        require(games[gameNumber].tickets.length == maximumPurchasableTickets);\n        delete pendingQueries[queryId];\n        uint16 randomIndex =\n            uint16(randomness.mod(maximumPurchasableTickets) + 1);\n\n        emit RandomNumberGenerated(randomIndex, gameNumber);\n        sendNgntToWinner(randomIndex);\n    }\n\n    function generateRandomNumber() private {\n        require(\n            LINK_ERC677.balanceOf(address(this)) >= chainLinkFee,\n            \"WinNgnt: LINK_ERC677 balance not enough for query\"\n        );\n        bytes32 queryId =\n            requestRandomness(keyHash, chainLinkFee, block.timestamp);\n        pendingQueries[queryId] = true;\n        emit RandomNumberQuerySent(queryId, gameNumber);\n    }\n\n    function startNextGame() public {\n        generateRandomNumber();\n    }\n\n    function sendNgntToWinner(uint256 randomIndex) private {\n        Game storage game = games[gameNumber];\n        address winner = game.tickets[randomIndex];\n        game.gameWinner = winner;\n\n        uint256 amountWon = TOTAL_NGNT.mul(90).div(100);\n        commission = NGNT.balanceOf(address(this)).sub(amountWon);\n        resetGame();\n        NGNT.transfer(winner, amountWon);\n\n        emit WinnerSelected(winner, amountWon, gameNumber);\n    }\n\n    function swapNGNTForLINK_ERC20(uint256 _amountIn, uint256 _amountOut) private {\n\n        pancakeswap.swapTokensForExactTokens(\n            _amountOut,\n            _amountIn,\n            path_NGNTLINKERC20,\n            address(this),\n            block.timestamp.add(20 minutes)\n        );\n    }\n\n    function swapLINK_ERC20ForLINK_ERC677(uint256 _amount) private {\n        require(\n            LINK_ERC20.balanceOf(address(this)) >= _amount,\n            \"WinNgnt: ERC20 LINK balance not enough for swap\"\n        );\n        pegswap.swap(_amount, address(LINK_ERC20), address(LINK_ERC677));\n    }\n\n\n    function swapNGNTForBNB() private {\n        if(relayHub.balanceOf(paymaster) <  1 ether){\n            uint tokenSold = commission;\n            commission = 0;\n            pancakeswap.swapExactTokensForETH(\n              tokenSold,\n              1 wei,\n              path_NGNTBNB,\n              address(this),\n              block.timestamp.add(20 minutes)\n            );\n        }\n    }\n\n    function resetGame() private {\n        gameNumber++;\n        TOTAL_NGNT = 0;\n    }\n\n    function endGame() private {\n        emit GameEnded(gameNumber);\n        if(LINK_ERC677.balanceOf(address(this)) >= chainLinkFee) generateRandomNumber();\n    }\n\n    receive() external payable {}\n}\n",
  "sourcePath": "/home/nonseodion/Desktop/win-ngnt/contracts/WinNgnt.sol",
  "compiler": {
    "name": "solc",
    "version": "0.7.6+commit.7338295f.Emscripten.clang"
  },
  "schemaVersion": "3.3.4",
  "updatedAt": "2021-07-06T07:15:59.171Z",
  "devdoc": {
    "kind": "dev",
    "methods": {},
    "version": 1
  },
  "userdoc": {
    "kind": "user",
    "methods": {
      "isTrustedForwarder(address)": {
        "notice": "return if the forwarder is trusted to forward relayed transactions to us. the forwarder is required to verify the sender's signature, and verify the call is not a replay."
      }
    },
    "version": 1
  }
}