{
  "contractName": "WinNgnt",
  "abi": [
    {
      "inputs": [
        {
          "internalType": "contract IERC20",
          "name": "ngnt",
          "type": "address"
        },
        {
          "internalType": "uint256",
          "name": "_maximumPurchasableTickets",
          "type": "uint256"
        }
      ],
      "stateMutability": "nonpayable",
      "type": "constructor"
    },
    {
      "anonymous": false,
      "inputs": [
        {
          "indexed": false,
          "internalType": "address",
          "name": "buyer",
          "type": "address"
        },
        {
          "indexed": false,
          "internalType": "uint256",
          "name": "numOfTickets",
          "type": "uint256"
        },
        {
          "indexed": false,
          "internalType": "uint256",
          "name": "totalTicketPrice",
          "type": "uint256"
        }
      ],
      "name": "BoughtTicket",
      "type": "event"
    },
    {
      "anonymous": false,
      "inputs": [
        {
          "indexed": false,
          "internalType": "uint256",
          "name": "gameNumber",
          "type": "uint256"
        }
      ],
      "name": "GameEnded",
      "type": "event"
    },
    {
      "anonymous": false,
      "inputs": [
        {
          "indexed": false,
          "internalType": "uint16",
          "name": "randomNumber",
          "type": "uint16"
        },
        {
          "indexed": false,
          "internalType": "uint256",
          "name": "gameNumber",
          "type": "uint256"
        }
      ],
      "name": "RandomNumberGenerated",
      "type": "event"
    },
    {
      "anonymous": false,
      "inputs": [
        {
          "indexed": false,
          "internalType": "address",
          "name": "winner",
          "type": "address"
        },
        {
          "indexed": false,
          "internalType": "uint256",
          "name": "amount",
          "type": "uint256"
        },
        {
          "indexed": false,
          "internalType": "uint256",
          "name": "gameNumber",
          "type": "uint256"
        }
      ],
      "name": "WinnerSelected",
      "type": "event"
    },
    {
      "inputs": [],
      "name": "TOTAL_NGNT",
      "outputs": [
        {
          "internalType": "uint256",
          "name": "",
          "type": "uint256"
        }
      ],
      "stateMutability": "view",
      "type": "function",
      "constant": true
    },
    {
      "inputs": [
        {
          "internalType": "address",
          "name": "",
          "type": "address"
        }
      ],
      "name": "addressHasPaidGsnFee",
      "outputs": [
        {
          "internalType": "bool",
          "name": "",
          "type": "bool"
        }
      ],
      "stateMutability": "view",
      "type": "function",
      "constant": true
    },
    {
      "inputs": [
        {
          "internalType": "address",
          "name": "",
          "type": "address"
        }
      ],
      "name": "addressTicketCount",
      "outputs": [
        {
          "internalType": "uint256",
          "name": "",
          "type": "uint256"
        }
      ],
      "stateMutability": "view",
      "type": "function",
      "constant": true
    },
    {
      "inputs": [
        {
          "internalType": "uint256",
          "name": "",
          "type": "uint256"
        },
        {
          "internalType": "address",
          "name": "",
          "type": "address"
        }
      ],
      "name": "addressTicketCountPerGame",
      "outputs": [
        {
          "internalType": "uint256",
          "name": "",
          "type": "uint256"
        }
      ],
      "stateMutability": "view",
      "type": "function",
      "constant": true
    },
    {
      "inputs": [],
      "name": "commission",
      "outputs": [
        {
          "internalType": "uint256",
          "name": "",
          "type": "uint256"
        }
      ],
      "stateMutability": "view",
      "type": "function",
      "constant": true
    },
    {
      "inputs": [],
      "name": "deadline",
      "outputs": [
        {
          "internalType": "uint256",
          "name": "",
          "type": "uint256"
        }
      ],
      "stateMutability": "view",
      "type": "function",
      "constant": true
    },
    {
      "inputs": [],
      "name": "exchangeContractApproval",
      "outputs": [
        {
          "internalType": "bool",
          "name": "",
          "type": "bool"
        }
      ],
      "stateMutability": "view",
      "type": "function",
      "constant": true
    },
    {
      "inputs": [],
      "name": "gameNumber",
      "outputs": [
        {
          "internalType": "uint256",
          "name": "",
          "type": "uint256"
        }
      ],
      "stateMutability": "view",
      "type": "function",
      "constant": true
    },
    {
      "inputs": [
        {
          "internalType": "uint256",
          "name": "",
          "type": "uint256"
        }
      ],
      "name": "games",
      "outputs": [
        {
          "internalType": "uint256",
          "name": "gameNumber",
          "type": "uint256"
        },
        {
          "internalType": "address",
          "name": "gameWinner",
          "type": "address"
        }
      ],
      "stateMutability": "view",
      "type": "function",
      "constant": true
    },
    {
      "inputs": [
        {
          "internalType": "address",
          "name": "forwarder",
          "type": "address"
        }
      ],
      "name": "isTrustedForwarder",
      "outputs": [
        {
          "internalType": "bool",
          "name": "",
          "type": "bool"
        }
      ],
      "stateMutability": "view",
      "type": "function",
      "constant": true
    },
    {
      "inputs": [],
      "name": "maximumPurchasableTickets",
      "outputs": [
        {
          "internalType": "uint256",
          "name": "",
          "type": "uint256"
        }
      ],
      "stateMutability": "view",
      "type": "function",
      "constant": true
    },
    {
      "inputs": [],
      "name": "maximumTicketsPerAddress",
      "outputs": [
        {
          "internalType": "uint256",
          "name": "",
          "type": "uint256"
        }
      ],
      "stateMutability": "view",
      "type": "function",
      "constant": true
    },
    {
      "inputs": [],
      "name": "minimumEther",
      "outputs": [
        {
          "internalType": "uint256",
          "name": "",
          "type": "uint256"
        }
      ],
      "stateMutability": "view",
      "type": "function",
      "constant": true
    },
    {
      "inputs": [],
      "name": "oneEther",
      "outputs": [
        {
          "internalType": "uint256",
          "name": "",
          "type": "uint256"
        }
      ],
      "stateMutability": "view",
      "type": "function",
      "constant": true
    },
    {
      "inputs": [
        {
          "internalType": "bytes32",
          "name": "",
          "type": "bytes32"
        }
      ],
      "name": "pendingQueries",
      "outputs": [
        {
          "internalType": "bool",
          "name": "",
          "type": "bool"
        }
      ],
      "stateMutability": "view",
      "type": "function",
      "constant": true
    },
    {
      "inputs": [
        {
          "internalType": "bytes32",
          "name": "requestId",
          "type": "bytes32"
        },
        {
          "internalType": "uint256",
          "name": "randomness",
          "type": "uint256"
        }
      ],
      "name": "rawFulfillRandomness",
      "outputs": [],
      "stateMutability": "nonpayable",
      "type": "function"
    },
    {
      "inputs": [],
      "name": "targetAmount",
      "outputs": [
        {
          "internalType": "uint256",
          "name": "",
          "type": "uint256"
        }
      ],
      "stateMutability": "view",
      "type": "function",
      "constant": true
    },
    {
      "inputs": [],
      "name": "ticketPrice",
      "outputs": [
        {
          "internalType": "uint256",
          "name": "",
          "type": "uint256"
        }
      ],
      "stateMutability": "view",
      "type": "function",
      "constant": true
    },
    {
      "inputs": [],
      "name": "trustedForwarder",
      "outputs": [
        {
          "internalType": "address",
          "name": "",
          "type": "address"
        }
      ],
      "stateMutability": "view",
      "type": "function",
      "constant": true
    },
    {
      "inputs": [],
      "name": "versionRecipient",
      "outputs": [
        {
          "internalType": "string",
          "name": "",
          "type": "string"
        }
      ],
      "stateMutability": "view",
      "type": "function",
      "constant": true
    },
    {
      "stateMutability": "payable",
      "type": "receive",
      "payable": true
    },
    {
      "inputs": [
        {
          "internalType": "uint256",
          "name": "numberOfTickets",
          "type": "uint256"
        }
      ],
      "name": "buyTicket",
      "outputs": [],
      "stateMutability": "nonpayable",
      "type": "function"
    },
    {
      "inputs": [],
      "name": "numberOfTicketsLeft",
      "outputs": [
        {
          "internalType": "uint256",
          "name": "",
          "type": "uint256"
        }
      ],
      "stateMutability": "view",
      "type": "function",
      "constant": true
    },
    {
      "inputs": [],
      "name": "numberOfTicketsPurchased",
      "outputs": [
        {
          "internalType": "uint256",
          "name": "",
          "type": "uint256"
        }
      ],
      "stateMutability": "view",
      "type": "function",
      "constant": true
    },
    {
      "inputs": [],
      "name": "getNgntAddress",
      "outputs": [
        {
          "internalType": "address",
          "name": "",
          "type": "address"
        }
      ],
      "stateMutability": "view",
      "type": "function",
      "constant": true
    },
    {
      "inputs": [],
      "name": "startNextGame",
      "outputs": [],
      "stateMutability": "nonpayable",
      "type": "function"
    },
    {
      "inputs": [
        {
          "internalType": "address",
          "name": "_forwarder",
          "type": "address"
        }
      ],
      "name": "setForwarder",
      "outputs": [],
      "stateMutability": "nonpayable",
      "type": "function"
    }
  ],
  "bytecode": "0x610100604052600060045560016006556367df315060075561c350600855600160095560fa600a55600a600b55670de0b6b3a7640000600c55670de0b6b3a7640000600d55604051806060016040528060248152602001620020a960249139600f908051906020019062000075929190620001e9565b503480156200008357600080fd5b50604051620020cd380380620020cd83398181016040526040811015620000a957600080fd5b81019080805190602001909291908051906020019092919050505073a555fc018435bef5a13c6c6870a9d4c11dec329c7384b9b910527ad5c03a9ca831909e21e236ea7b068173ffffffffffffffffffffffffffffffffffffffff1660a08173ffffffffffffffffffffffffffffffffffffffff1660601b815250508073ffffffffffffffffffffffffffffffffffffffff1660808173ffffffffffffffffffffffffffffffffffffffff1660601b81525050505081600260006101000a81548173ffffffffffffffffffffffffffffffffffffffff021916908373ffffffffffffffffffffffffffffffffffffffff16021790555080600a819055507fcaf3c3727e033261d383b315559476f48034c13b18f8cafed4d871abe504918660001b60e0818152505067016345785d8a000060c0818152505050506200028f565b828054600181600116156101000203166002900490600052602060002090601f016020900481019282601f106200022c57805160ff19168380011785556200025d565b828001600101855582156200025d579182015b828111156200025c5782518255916020019190600101906200023f565b5b5090506200026c919062000270565b5090565b5b808211156200028b57600081600090555060010162000271565b5090565b60805160601c60a05160601c60c05160e051611dcf620002da600039806115eb52508061148f528061160c52508061100a52806119675250806114b0528061192b5250611dcf6000f3fe6080604052600436106101855760003560e01c806389a2cdcb116100d1578063d809d2481161008a578063e138cd3a11610064578063e138cd3a1461076f578063e14891911461079a578063fbbfa574146107c5578063fdb0a43e146107f05761018c565b8063d809d248146106ec578063d8d40cee14610703578063dc0ed8541461072e5761018c565b806389a2cdcb1461054857806394985ddd14610599578063953b8fb8146105de578063b9998a2414610609578063ce4aa49d1461065a578063d297a89f146106c15761018c565b8063486ff0cd1161013e57806367dd74ca1161011857806367dd74ca146103f8578063720927dc14610433578063758fbbee146104985780637da0a877146105075761018c565b8063486ff0cd146102d6578063572b6c051461036657806365e23ce3146103cd5761018c565b80630cba0be014610191578063117a5b90146101bc5780631209b1f61461022857806329dcb0cf146102535780633b6e345b1461027e5780633fadcc66146102ab5761018c565b3661018c57005b600080fd5b34801561019d57600080fd5b506101a661081b565b6040518082815260200191505060405180910390f35b3480156101c857600080fd5b506101f5600480360360208110156101df57600080fd5b8101908080359060200190929190505050610821565b604051808381526020018273ffffffffffffffffffffffffffffffffffffffff1681526020019250505060405180910390f35b34801561023457600080fd5b5061023d610865565b6040518082815260200191505060405180910390f35b34801561025f57600080fd5b5061026861086b565b6040518082815260200191505060405180910390f35b34801561028a57600080fd5b50610293610871565b60405180821515815260200191505060405180910390f35b3480156102b757600080fd5b506102c0610884565b6040518082815260200191505060405180910390f35b3480156102e257600080fd5b506102eb61088a565b6040518080602001828103825283818151815260200191508051906020019080838360005b8381101561032b578082015181840152602081019050610310565b50505050905090810190601f1680156103585780820380516001836020036101000a031916815260200191505b509250505060405180910390f35b34801561037257600080fd5b506103b56004803603602081101561038957600080fd5b81019080803573ffffffffffffffffffffffffffffffffffffffff169060200190929190505050610928565b60405180821515815260200191505060405180910390f35b3480156103d957600080fd5b506103e2610981565b6040518082815260200191505060405180910390f35b34801561040457600080fd5b506104316004803603602081101561041b57600080fd5b8101908080359060200190929190505050610987565b005b34801561043f57600080fd5b506104826004803603602081101561045657600080fd5b81019080803573ffffffffffffffffffffffffffffffffffffffff169060200190929190505050610f87565b6040518082815260200191505060405180910390f35b3480156104a457600080fd5b506104f1600480360360408110156104bb57600080fd5b8101908080359060200190929190803573ffffffffffffffffffffffffffffffffffffffff169060200190929190505050610f9f565b6040518082815260200191505060405180910390f35b34801561051357600080fd5b5061051c610fc4565b604051808273ffffffffffffffffffffffffffffffffffffffff16815260200191505060405180910390f35b34801561055457600080fd5b506105816004803603602081101561056b57600080fd5b8101908080359060200190929190505050610fe8565b60405180821515815260200191505060405180910390f35b3480156105a557600080fd5b506105dc600480360360408110156105bc57600080fd5b810190808035906020019092919080359060200190929190505050611008565b005b3480156105ea57600080fd5b506105f36110d7565b6040518082815260200191505060405180910390f35b34801561061557600080fd5b506106586004803603602081101561062c57600080fd5b81019080803573ffffffffffffffffffffffffffffffffffffffff1690602001909291905050506110dd565b005b34801561066657600080fd5b506106a96004803603602081101561067d57600080fd5b81019080803573ffffffffffffffffffffffffffffffffffffffff169060200190929190505050611120565b60405180821515815260200191505060405180910390f35b3480156106cd57600080fd5b506106d6611140565b6040518082815260200191505060405180910390f35b3480156106f857600080fd5b50610701611146565b005b34801561070f57600080fd5b50610718611150565b6040518082815260200191505060405180910390f35b34801561073a57600080fd5b50610743611156565b604051808273ffffffffffffffffffffffffffffffffffffffff16815260200191505060405180910390f35b34801561077b57600080fd5b50610784611180565b6040518082815260200191505060405180910390f35b3480156107a657600080fd5b506107af6111c2565b6040518082815260200191505060405180910390f35b3480156107d157600080fd5b506107da6111c8565b6040518082815260200191505060405180910390f35b3480156107fc57600080fd5b506108056111ce565b6040518082815260200191505060405180910390f35b600b5481565b60106020528060005260406000206000915090508060000154908060020160009054906101000a900473ffffffffffffffffffffffffffffffffffffffff16905082565b60085481565b60075481565b600e60009054906101000a900460ff1681565b600a5481565b600f8054600181600116156101000203166002900480601f0160208091040260200160405190810160405280929190818152602001828054600181600116156101000203166002900480156109205780601f106108f557610100808354040283529160200191610920565b820191906000526020600020905b81548152906001019060200180831161090357829003601f168201915b505050505081565b60008060009054906101000a900473ffffffffffffffffffffffffffffffffffffffff1673ffffffffffffffffffffffffffffffffffffffff168273ffffffffffffffffffffffffffffffffffffffff16149050919050565b60095481565b8060018110156109e2576040517f08c379a0000000000000000000000000000000000000000000000000000000008152600401808060200182810382526027815260200180611d426027913960400191505060405180910390fd5b81600a548160106000600654815260200190815260200160002060010180549050011115610a5b576040517f08c379a000000000000000000000000000000000000000000000000000000000815260040180806020018281038252602c815260200180611cf5602c913960400191505060405180910390fd5b610a636111fc565b83600b548160126000600654815260200190815260200160002060008573ffffffffffffffffffffffffffffffffffffffff1673ffffffffffffffffffffffffffffffffffffffff16815260200190815260200160002054011115610b13576040517f08c379a0000000000000000000000000000000000000000000000000000000008152600401808060200182810382526031815260200180611d696031913960400191505060405180910390fd5b6000610b2a8660085461123890919063ffffffff16565b9050600060116000610b3a6111fc565b73ffffffffffffffffffffffffffffffffffffffff1673ffffffffffffffffffffffffffffffffffffffff16815260200190815260200160002054905060006012600060065481526020019081526020016000206000610b986111fc565b73ffffffffffffffffffffffffffffffffffffffff1673ffffffffffffffffffffffffffffffffffffffff16815260200190815260200160002054905060136000610be16111fc565b73ffffffffffffffffffffffffffffffffffffffff1673ffffffffffffffffffffffffffffffffffffffff16815260200190815260200160002060009054906101000a900460ff16610cb8576000611388905060008111610c425761138890505b610c5581856112be90919063ffffffff16565b9350600160136000610c656111fc565b73ffffffffffffffffffffffffffffffffffffffff1673ffffffffffffffffffffffffffffffffffffffff16815260200190815260200160002060006101000a81548160ff021916908315150217905550505b82600460008282540192505081905550600260009054906101000a900473ffffffffffffffffffffffffffffffffffffffff1673ffffffffffffffffffffffffffffffffffffffff166323b872dd610d0e6111fc565b30866040518463ffffffff1660e01b8152600401808473ffffffffffffffffffffffffffffffffffffffff1681526020018373ffffffffffffffffffffffffffffffffffffffff1681526020018281526020019350505050602060405180830381600087803b158015610d8057600080fd5b505af1158015610d94573d6000803e3d6000fd5b505050506040513d6020811015610daa57600080fd5b810190808051906020019092919050505050878201915087810190508160116000610dd36111fc565b73ffffffffffffffffffffffffffffffffffffffff1673ffffffffffffffffffffffffffffffffffffffff16815260200190815260200160002081905550806012600060065481526020019081526020016000206000610e316111fc565b73ffffffffffffffffffffffffffffffffffffffff1673ffffffffffffffffffffffffffffffffffffffff1681526020019081526020016000208190555060006010600060065481526020019081526020016000209050600654816000018190555060005b89811015610f175781600101610eaa6111fc565b9080600181540180825580915050600190039060005260206000200160009091909190916101000a81548173ffffffffffffffffffffffffffffffffffffffff021916908373ffffffffffffffffffffffffffffffffffffffff1602179055508080600101915050610e96565b507f360330060f3e852e9c9989e78f54b5dafc52d2c055662b302d3c7125f077c77a610f416111fc565b8a86604051808473ffffffffffffffffffffffffffffffffffffffff168152602001838152602001828152602001935050505060405180910390a1505050505050505050565b60116020528060005260406000206000915090505481565b6012602052816000526040600020602052806000526040600020600091509150505481565b60008054906101000a900473ffffffffffffffffffffffffffffffffffffffff1681565b60146020528060005260406000206000915054906101000a900460ff1681565b7f000000000000000000000000000000000000000000000000000000000000000073ffffffffffffffffffffffffffffffffffffffff163373ffffffffffffffffffffffffffffffffffffffff16146110c9576040517f08c379a000000000000000000000000000000000000000000000000000000000815260040180806020018281038252601f8152602001807f4f6e6c7920565246436f6f7264696e61746f722063616e2066756c66696c6c0081525060200191505060405180910390fd5b6110d38282611347565b5050565b600d5481565b806000806101000a81548173ffffffffffffffffffffffffffffffffffffffff021916908373ffffffffffffffffffffffffffffffffffffffff16021790555050565b60136020528060005260406000206000915054906101000a900460ff1681565b600c5481565b61114e61148d565b565b60065481565b6000600260009054906101000a900473ffffffffffffffffffffffffffffffffffffffff16905090565b60008060106000600654815260200190815260200160002090506000816001018054905090506111bb81600a546112be90919063ffffffff16565b9250505090565b60055481565b60045481565b6000806010600060065481526020019081526020016000209050600081600101805490509050809250505090565b60006018600036905010158015611218575061121733610928565b5b1561122c57601436033560601c9050611234565b339050611235565b5b90565b60008083141561124b57600090506112b8565b600082840290508284828161125c57fe5b04146112b3576040517f08c379a0000000000000000000000000000000000000000000000000000000008152600401808060200182810382526021815260200180611d216021913960400191505060405180910390fd5b809150505b92915050565b600082821115611336576040517f08c379a000000000000000000000000000000000000000000000000000000000815260040180806020018281038252601e8152602001807f536166654d6174683a207375627472616374696f6e206f766572666c6f77000081525060200191505060405180910390fd5b600082840390508091505092915050565b81600115156014600083815260200190815260200160002060009054906101000a900460ff161515146113c5576040517f08c379a0000000000000000000000000000000000000000000000000000000008152600401808060200182810382526022815260200180611cd36022913960400191505060405180910390fd5b600a5460106000600654815260200190815260200160002060010180549050146113ee57600080fd5b6014600084815260200190815260200160002060006101000a81549060ff0219169055611419611662565b60006001611432600a548561167e90919063ffffffff16565b0190507f144f14361fb5bcbf35b044a9528e54f65197cc24874f62c7bc8574ea0b0e612581600654604051808361ffff1681526020018281526020019250505060405180910390a16114878161ffff16611708565b50505050565b7f00000000000000000000000000000000000000000000000000000000000000007f000000000000000000000000000000000000000000000000000000000000000073ffffffffffffffffffffffffffffffffffffffff166370a08231306040518263ffffffff1660e01b8152600401808273ffffffffffffffffffffffffffffffffffffffff16815260200191505060206040518083038186803b15801561153557600080fd5b505afa158015611549573d6000803e3d6000fd5b505050506040513d602081101561155f57600080fd5b810190808051906020019092919050505010156115e4576040517f08c379a00000000000000000000000000000000000000000000000000000000081526004018080602001828103825260038152602001807f57696e000000000000000000000000000000000000000000000000000000000081525060200191505060405180910390fd5b60006116317f00000000000000000000000000000000000000000000000000000000000000007f000000000000000000000000000000000000000000000000000000000000000042611927565b905060016014600083815260200190815260200160002060006101000a81548160ff02191690831515021790555050565b6006600081548092919060010191905055506000600481905550565b6000808214156116f6576040517f08c379a00000000000000000000000000000000000000000000000000000000081526004018080602001828103825260188152602001807f536166654d6174683a206d6f64756c6f206279207a65726f000000000000000081525060200191505060405180910390fd5b8183816116ff57fe5b06905092915050565b60006010600060065481526020019081526020016000209050600081600101838154811061173257fe5b9060005260206000200160009054906101000a900473ffffffffffffffffffffffffffffffffffffffff169050808260020160006101000a81548173ffffffffffffffffffffffffffffffffffffffff021916908373ffffffffffffffffffffffffffffffffffffffff16021790555060006117cd60646117bf605a60045461123890919063ffffffff16565b611b1e90919063ffffffff16565b90506117e4816004546112be90919063ffffffff16565b600560008282540192505081905550600260009054906101000a900473ffffffffffffffffffffffffffffffffffffffff1673ffffffffffffffffffffffffffffffffffffffff1663a9059cbb83836040518363ffffffff1660e01b8152600401808373ffffffffffffffffffffffffffffffffffffffff16815260200182815260200192505050602060405180830381600087803b15801561188657600080fd5b505af115801561189a573d6000803e3d6000fd5b505050506040513d60208110156118b057600080fd5b8101908080519060200190929190505050507f866efae43947560fe9d0de9013bc323d5718730d5c1543261b48a7bcb0717b938282600654604051808473ffffffffffffffffffffffffffffffffffffffff168152602001838152602001828152602001935050505060405180910390a150505050565b60007f000000000000000000000000000000000000000000000000000000000000000073ffffffffffffffffffffffffffffffffffffffff16634000aea07f000000000000000000000000000000000000000000000000000000000000000085878660405160200180838152602001828152602001925050506040516020818303038152906040526040518463ffffffff1660e01b8152600401808473ffffffffffffffffffffffffffffffffffffffff16815260200183815260200180602001828103825283818151815260200191508051906020019080838360005b83811015611a20578082015181840152602081019050611a05565b50505050905090810190601f168015611a4d5780820380516001836020036101000a031916815260200191505b50945050505050602060405180830381600087803b158015611a6e57600080fd5b505af1158015611a82573d6000803e3d6000fd5b505050506040513d6020811015611a9857600080fd5b8101908080519060200190929190505050506000611acb858430600160008a815260200190815260200160002054611bad565b9050611af3600180600088815260200190815260200160002054611c1190919063ffffffff16565b6001600087815260200190815260200160002081905550611b148582611c99565b9150509392505050565b6000808211611b95576040517f08c379a000000000000000000000000000000000000000000000000000000000815260040180806020018281038252601a8152602001807f536166654d6174683a206469766973696f6e206279207a65726f00000000000081525060200191505060405180910390fd5b6000828481611ba057fe5b0490508091505092915050565b600084848484604051602001808581526020018481526020018373ffffffffffffffffffffffffffffffffffffffff1681526020018281526020019450505050506040516020818303038152906040528051906020012060001c9050949350505050565b600080828401905083811015611c8f576040517f08c379a000000000000000000000000000000000000000000000000000000000815260040180806020018281038252601b8152602001807f536166654d6174683a206164646974696f6e206f766572666c6f77000000000081525060200191505060405180910390fd5b8091505092915050565b6000828260405160200180838152602001828152602001925050506040516020818303038152906040528051906020012090509291505056fe57696e4e676e743a5175657279496420686173206265656e2070726f63657373656457696e4e676e743a546f74616c207469636b6574207065722067616d65206c696d6974206578636565646564536166654d6174683a206d756c7469706c69636174696f6e206f766572666c6f7757696e4e676e743a43616e6e6f7420627579206c657373207468616e206f6e65207469636b657457696e4e676e743a4d6178696d756d207469636b6574206c696d6974207065722061646472657373206578636565646564a2646970667358221220afb06cf285f557d3cddaa25442d8e0e292c96023878e60c23a49f7cf40d36d6e64736f6c634300060c0033322e322e302b6f70656e67736e2e73616d706c652e6972656c6179726563697069656e74",
  "immutableReferences": {
    "214": [
      {
        "length": 32,
        "start": 5263
      },
      {
        "length": 32,
        "start": 5644
      }
    ],
    "222": [
      {
        "length": 32,
        "start": 5611
      }
    ],
    "1178": [
      {
        "length": 32,
        "start": 5296
      },
      {
        "length": 32,
        "start": 6443
      }
    ],
    "1180": [
      {
        "length": 32,
        "start": 4106
      },
      {
        "length": 32,
        "start": 6503
      }
    ]
  },
  "source": "// SPDX-License-Identifier:MIT\npragma solidity ^0.6.0;\n\nimport \"./SafeStringCast.sol\";\nimport '@openzeppelin/contracts/token/ERC20/IERC20.sol';\nimport \"./interfaces/IUniswapExchange.sol\";\nimport { SafeIntCast } from \"./SafeIntCast.sol\";\n//import \"@0x/contracts-utils/contracts/src/LibBytes.sol\";\nimport '@openzeppelin/contracts/math/SafeMath.sol';\nimport \"@opengsn/gsn/contracts/BaseRelayRecipient.sol\";\nimport \"@chainlink/contracts/src/v0.6/VRFConsumerBase.sol\";\n\ncontract WinNgnt is BaseRelayRecipient, VRFConsumerBase{\n    using SafeStringCast for string;\n\n    IERC20 private _ngnt;\n    IUniswapExchange private _uniswap;\n    uint public TOTAL_NGNT = 0;\n\n    struct Game {\n        uint gameNumber;\n        address[] tickets;\n        address gameWinner;\n    }\n\n    uint public commission;\n    uint public gameNumber = 1;\n    uint public deadline = 1742680400;\n    uint public ticketPrice = 50000;\n    uint public minimumEther = 1 wei;\n    uint public maximumPurchasableTickets = 250;\n    uint public maximumTicketsPerAddress = 10;\n    uint public oneEther = 1000000000000000000;\n    uint public targetAmount = 1000000000000000000;\n    uint immutable internal chainLinkFee;\n\n    bool public exchangeContractApproval;\n\n    string public override versionRecipient = \"2.2.0+opengsn.sample.irelayrecipient\";\n\n    bytes32 immutable internal keyHash;\n\n    mapping(uint => Game) public games;\n    mapping(address => uint) public addressTicketCount;\n    mapping(uint => mapping(address => uint)) public addressTicketCountPerGame;\n    mapping(address => bool) public addressHasPaidGsnFee;\n    mapping(bytes32 => bool) public pendingQueries;\n\n    event GameEnded(uint gameNumber);\n    event BoughtTicket(address buyer, uint numOfTickets, uint totalTicketPrice);\n    event RandomNumberGenerated(uint16 randomNumber, uint gameNumber);\n    event WinnerSelected(address winner, uint amount, uint gameNumber);\n\n\n\n    modifier atLeastOneTicket(uint numberOfTickets){\n        require(numberOfTickets >= 1, \"WinNgnt:Cannot buy less than one ticket\");\n        _;\n    }\n\n    modifier ticketLimitNotExceed(uint numberOfTickets){\n        require((games[gameNumber].tickets.length + numberOfTickets) <= maximumPurchasableTickets, \"WinNgnt:Total ticket per game limit exceeded\");\n        _;\n    }\n\n    modifier maxTicketPerAddressLimitNotExceed(address _address, uint numberOfTickets){\n        require((addressTicketCountPerGame[gameNumber][_address] + numberOfTickets) <= maximumTicketsPerAddress, \"WinNgnt:Maximum ticket limit per address exceeded\");\n        _;\n    }\n\n    modifier queryIdHasNotBeenProcessed(bytes32 queryId){\n        require (pendingQueries[queryId] == true, \"WinNgnt:QueryId has been processed\");\n        _;\n    }\n\n    constructor(IERC20 ngnt, uint _maximumPurchasableTickets) \n        VRFConsumerBase(\n            0xa555fC018435bef5A13C6c6870a9d4C11DEC329C, \n            0x84b9B910527Ad5C03A9Ca831909E21e236EA7b06\n            ) \n        public {\n        _ngnt = ngnt;\n        //_uniswap = uniswap;\n        maximumPurchasableTickets = _maximumPurchasableTickets;\n        keyHash = 0xcaf3c3727e033261d383b315559476f48034c13b18f8cafed4d871abe5049186;\n        chainLinkFee = 0.1 * 1e18; \n    }\n\n    function buyTicket(uint numberOfTickets) atLeastOneTicket(numberOfTickets) ticketLimitNotExceed(numberOfTickets)\n    maxTicketPerAddressLimitNotExceed(_msgSender(), numberOfTickets)\n    external\n    {\n        uint totalTicketPrice = ticketPrice.mul(numberOfTickets);\n        uint totalAddressTicketCount = addressTicketCount[_msgSender()];\n        uint totalAddressTicketCountPerGame = addressTicketCountPerGame[gameNumber][_msgSender()];\n\n        if (!addressHasPaidGsnFee[_msgSender()]) {\n            //uint gsnFee = _ngnt.gsnFee();\n            uint gsnFee = 5000;\n            if (gsnFee <= 0) {\n                gsnFee = 5000;\n            }\n\n            totalTicketPrice = totalTicketPrice.sub(gsnFee);\n            addressHasPaidGsnFee[_msgSender()] = true;\n        }\n\n        TOTAL_NGNT += totalTicketPrice;\n        _ngnt.transferFrom(_msgSender(), address(this), totalTicketPrice);\n\n        totalAddressTicketCount += numberOfTickets;\n        totalAddressTicketCountPerGame += numberOfTickets;\n        \n        addressTicketCount[_msgSender()] = totalAddressTicketCount;\n        addressTicketCountPerGame[gameNumber][_msgSender()] = totalAddressTicketCountPerGame;\n\n        Game storage game = games[gameNumber];\n        game.gameNumber = gameNumber;\n        for(uint i = 0; i < numberOfTickets; i++){\n            game.tickets.push(_msgSender());\n        }\n\n        emit BoughtTicket(_msgSender(), numberOfTickets, totalTicketPrice);\n\n        // if(games[gameNumber].tickets.length == maximumPurchasableTickets){\n        //     if(gameNumber.mod(5) == 0){\n        //         swapNgntForEth();\n        //         fundRecipient();\n        //     }\n        //     endGame();\n        // }\n    }\n\n    function numberOfTicketsLeft() external view returns (uint){\n        Game storage game = games[gameNumber];\n        uint ticketsBought = game.tickets.length;\n        return maximumPurchasableTickets.sub(ticketsBought);\n    }\n\n    function numberOfTicketsPurchased() external view returns(uint){\n        Game storage game = games[gameNumber];\n        uint ticketsBought = game.tickets.length;\n        return ticketsBought;\n    }\n\n    function getNgntAddress() external view returns(address){\n        return address(_ngnt);\n    }\n\n    // function __callback(bytes32 queryId, string memory _result) isCalledByAProvableCallbackAddress(_msgSender())\n    // queryIdHasNotBeenProcessed(queryId) public\n    // {\n    //     if(games[gameNumber].tickets.length == maximumPurchasableTickets){\n    //         uint16 randomIndex = _result.toUint();\n    //         emit RandomNumberGenerated(randomIndex);\n    //         delete pendingQueries[queryId];\n\n    //         sendNgntToWinner(randomIndex);\n    //         resetGame();\n    //     }\n    // }\n    function fulfillRandomness(bytes32 queryId, uint256 randomness)\n        internal override \n        queryIdHasNotBeenProcessed(queryId){\n        require(games[gameNumber].tickets.length == maximumPurchasableTickets);\n        delete pendingQueries[queryId];\n        resetGame();\n        uint16 randomIndex = uint16(randomness.mod(maximumPurchasableTickets) + 1);\n\n        emit RandomNumberGenerated(randomIndex, gameNumber);\n        sendNgntToWinner(randomIndex);\n    }\n\n    // function generateRandomNumber() private {\n    //     if (provable_getPrice(\"WolframAlpha\") > address(this).balance) {\n    //         emit LogNewProvableQuery(\"Provable query was NOT sent, please add some ETH to cover for the query fee\");\n    //     }\n    //     else {\n    //         uint lastIndex = 0;\n    //         Game storage game = games[gameNumber];\n    //         lastIndex = game.tickets.length - 1;\n\n    //         bytes memory query;\n    //         query = abi.encodePacked(SafeIntCast.toString(lastIndex));\n    //         query = abi.encodePacked(\"random number between 0 and \", query);\n    //         string memory provableQuery = string(query);\n\n    //         emit LogNewProvableQuery(\"Provable query was sent, standing by for the answer...\");\n    //         bytes32 queryId = provable_query(\"WolframAlpha\", provableQuery);\n    //         pendingQueries[queryId] = true;\n    //     }\n    // }\n\n    function generateRandomNumber() private {\n        require(LINK.balanceOf(address(this)) >= chainLinkFee, \"Win\");\n        bytes32 queryId = requestRandomness(keyHash, chainLinkFee, block.timestamp);\n        pendingQueries[queryId] = true;\n    }\n\n    function startNextGame() public {\n        generateRandomNumber();\n    }\n\n    function sendNgntToWinner(uint randomIndex) private {\n        Game storage game = games[gameNumber];\n        address winner = game.tickets[randomIndex];\n        game.gameWinner = winner;\n\n        uint amountWon = TOTAL_NGNT.mul(90).div(100);\n        commission += TOTAL_NGNT.sub(amountWon);\n        _ngnt.transfer(winner, amountWon);\n\n        emit WinnerSelected(winner, amountWon, gameNumber);\n    }\n\n    // function swapNgntForEth() private {\n    //     if(address(this).balance < oneEther){\n    //         if(!exchangeContractApproval){\n    //             _ngnt.approve(address(_uniswap), 100000000000);\n    //             exchangeContractApproval = true;\n    //         }\n\n    //         uint tokenSold = commission;\n    //         _uniswap.tokenToEthSwapInput(tokenSold, minimumEther, deadline);\n    //         commission = 0;\n    //     }\n    // }\n\n    function fundRecipient() private {\n        //uint relayBalance = _relayHub.balanceOf(address(this));\n        // if(relayBalance < targetAmount){\n        //     uint amountDifference = targetAmount.sub(relayBalance);\n        //     if(address(this).balance > amountDifference){\n        //         _relayHub.depositFor.value(amountDifference)(address(this));\n        //     }else{\n        //         _relayHub.depositFor.value(address(this).balance)(address(this));\n        //     }\n        // }\n    }\n\n    function resetGame() private {\n        gameNumber++;\n        TOTAL_NGNT = 0;\n    }\n\n    function endGame() private {\n        emit GameEnded(gameNumber);\n        generateRandomNumber();\n    }\n\n    function setForwarder(address _forwarder) public{\n        trustedForwarder = _forwarder;\n    }\n\n    receive () external payable {\n    }\n}\n",
  "sourcePath": "/home/nonseodion/Desktop/win-ngnt/contracts/WinNgnt.sol",
  "compiler": {
    "name": "solc",
    "version": "0.6.12+commit.27d51765.Emscripten.clang"
  },
  "schemaVersion": "3.3.4",
  "updatedAt": "2021-05-25T04:19:26.883Z",
  "networkType": "ethereum",
  "devdoc": {
    "kind": "dev",
    "methods": {},
    "version": 1
  },
  "userdoc": {
    "kind": "user",
    "methods": {
      "isTrustedForwarder(address)": {
        "notice": "return if the forwarder is trusted to forward relayed transactions to us. the forwarder is required to verify the sender's signature, and verify the call is not a replay."
      }
    },
    "version": 1
  }
}