{
  "contractName": "WinNgnt",
  "abi": [
    {
      "inputs": [
        {
          "internalType": "contract IERC20",
          "name": "ngnt",
          "type": "address"
        },
        {
          "internalType": "contract IUniswapExchange",
          "name": "uniswap",
          "type": "address"
        },
        {
          "internalType": "uint256",
          "name": "_maximumPurchasableTickets",
          "type": "uint256"
        }
      ],
      "stateMutability": "nonpayable",
      "type": "constructor"
    },
    {
      "anonymous": false,
      "inputs": [
        {
          "indexed": false,
          "internalType": "address",
          "name": "buyer",
          "type": "address"
        },
        {
          "indexed": false,
          "internalType": "uint256",
          "name": "numOfTickets",
          "type": "uint256"
        },
        {
          "indexed": false,
          "internalType": "uint256",
          "name": "totalTicketPrice",
          "type": "uint256"
        }
      ],
      "name": "BoughtTicket",
      "type": "event"
    },
    {
      "anonymous": false,
      "inputs": [
        {
          "indexed": false,
          "internalType": "uint256",
          "name": "gameNumber",
          "type": "uint256"
        }
      ],
      "name": "GameEnded",
      "type": "event"
    },
    {
      "anonymous": false,
      "inputs": [
        {
          "indexed": false,
          "internalType": "string",
          "name": "description",
          "type": "string"
        }
      ],
      "name": "LogNewProvableQuery",
      "type": "event"
    },
    {
      "anonymous": false,
      "inputs": [
        {
          "indexed": false,
          "internalType": "uint16",
          "name": "randomNumber",
          "type": "uint16"
        }
      ],
      "name": "RandomNumberGenerated",
      "type": "event"
    },
    {
      "anonymous": false,
      "inputs": [
        {
          "indexed": false,
          "internalType": "address[]",
          "name": "tickets",
          "type": "address[]"
        }
      ],
      "name": "Tickets",
      "type": "event"
    },
    {
      "anonymous": false,
      "inputs": [
        {
          "indexed": false,
          "internalType": "address",
          "name": "winner",
          "type": "address"
        },
        {
          "indexed": false,
          "internalType": "uint256",
          "name": "amount",
          "type": "uint256"
        },
        {
          "indexed": false,
          "internalType": "uint256",
          "name": "gameNumber",
          "type": "uint256"
        }
      ],
      "name": "WinnerSelected",
      "type": "event"
    },
    {
      "inputs": [],
      "name": "TOTAL_NGNT",
      "outputs": [
        {
          "internalType": "uint256",
          "name": "",
          "type": "uint256"
        }
      ],
      "stateMutability": "view",
      "type": "function"
    },
    {
      "inputs": [
        {
          "internalType": "address",
          "name": "",
          "type": "address"
        }
      ],
      "name": "addressHasPaidGsnFee",
      "outputs": [
        {
          "internalType": "bool",
          "name": "",
          "type": "bool"
        }
      ],
      "stateMutability": "view",
      "type": "function"
    },
    {
      "inputs": [
        {
          "internalType": "address",
          "name": "",
          "type": "address"
        }
      ],
      "name": "addressTicketCount",
      "outputs": [
        {
          "internalType": "uint256",
          "name": "",
          "type": "uint256"
        }
      ],
      "stateMutability": "view",
      "type": "function"
    },
    {
      "inputs": [
        {
          "internalType": "uint256",
          "name": "",
          "type": "uint256"
        },
        {
          "internalType": "address",
          "name": "",
          "type": "address"
        }
      ],
      "name": "addressTicketCountPerGame",
      "outputs": [
        {
          "internalType": "uint256",
          "name": "",
          "type": "uint256"
        }
      ],
      "stateMutability": "view",
      "type": "function"
    },
    {
      "inputs": [],
      "name": "commission",
      "outputs": [
        {
          "internalType": "uint256",
          "name": "",
          "type": "uint256"
        }
      ],
      "stateMutability": "view",
      "type": "function"
    },
    {
      "inputs": [],
      "name": "deadline",
      "outputs": [
        {
          "internalType": "uint256",
          "name": "",
          "type": "uint256"
        }
      ],
      "stateMutability": "view",
      "type": "function"
    },
    {
      "inputs": [],
      "name": "exchangeContractApproval",
      "outputs": [
        {
          "internalType": "bool",
          "name": "",
          "type": "bool"
        }
      ],
      "stateMutability": "view",
      "type": "function"
    },
    {
      "inputs": [],
      "name": "gameNumber",
      "outputs": [
        {
          "internalType": "uint256",
          "name": "",
          "type": "uint256"
        }
      ],
      "stateMutability": "view",
      "type": "function"
    },
    {
      "inputs": [
        {
          "internalType": "uint256",
          "name": "",
          "type": "uint256"
        }
      ],
      "name": "games",
      "outputs": [
        {
          "internalType": "uint256",
          "name": "gameNumber",
          "type": "uint256"
        },
        {
          "internalType": "address",
          "name": "gameWinner",
          "type": "address"
        }
      ],
      "stateMutability": "view",
      "type": "function"
    },
    {
      "inputs": [],
      "name": "maximumPurchasableTickets",
      "outputs": [
        {
          "internalType": "uint256",
          "name": "",
          "type": "uint256"
        }
      ],
      "stateMutability": "view",
      "type": "function"
    },
    {
      "inputs": [],
      "name": "maximumTicketsPerAddress",
      "outputs": [
        {
          "internalType": "uint256",
          "name": "",
          "type": "uint256"
        }
      ],
      "stateMutability": "view",
      "type": "function"
    },
    {
      "inputs": [],
      "name": "minimumEther",
      "outputs": [
        {
          "internalType": "uint256",
          "name": "",
          "type": "uint256"
        }
      ],
      "stateMutability": "view",
      "type": "function"
    },
    {
      "inputs": [],
      "name": "oneEther",
      "outputs": [
        {
          "internalType": "uint256",
          "name": "",
          "type": "uint256"
        }
      ],
      "stateMutability": "view",
      "type": "function"
    },
    {
      "inputs": [
        {
          "internalType": "bytes32",
          "name": "",
          "type": "bytes32"
        }
      ],
      "name": "pendingQueries",
      "outputs": [
        {
          "internalType": "bool",
          "name": "",
          "type": "bool"
        }
      ],
      "stateMutability": "view",
      "type": "function"
    },
    {
      "inputs": [],
      "name": "targetAmount",
      "outputs": [
        {
          "internalType": "uint256",
          "name": "",
          "type": "uint256"
        }
      ],
      "stateMutability": "view",
      "type": "function"
    },
    {
      "inputs": [],
      "name": "ticketPrice",
      "outputs": [
        {
          "internalType": "uint256",
          "name": "",
          "type": "uint256"
        }
      ],
      "stateMutability": "view",
      "type": "function"
    },
    {
      "stateMutability": "payable",
      "type": "receive"
    },
    {
      "inputs": [
        {
          "internalType": "uint256",
          "name": "numberOfTickets",
          "type": "uint256"
        }
      ],
      "name": "buyTicket",
      "outputs": [],
      "stateMutability": "nonpayable",
      "type": "function"
    },
    {
      "inputs": [],
      "name": "numberOfTicketsLeft",
      "outputs": [
        {
          "internalType": "uint256",
          "name": "",
          "type": "uint256"
        }
      ],
      "stateMutability": "view",
      "type": "function"
    },
    {
      "inputs": [],
      "name": "numberOfTicketsPurchased",
      "outputs": [
        {
          "internalType": "uint256",
          "name": "",
          "type": "uint256"
        }
      ],
      "stateMutability": "view",
      "type": "function"
    },
    {
      "inputs": [],
      "name": "getNgntAddress",
      "outputs": [
        {
          "internalType": "address",
          "name": "",
          "type": "address"
        }
      ],
      "stateMutability": "view",
      "type": "function"
    },
    {
      "inputs": [],
      "name": "startNextGame",
      "outputs": [],
      "stateMutability": "nonpayable",
      "type": "function"
    }
  ],
  "bytecode": "0x6080604052600060025560016004556367df315060055561c350600655600160075560fa600855600a600955670de0b6b3a7640000600a55670de0b6b3a7640000600b5534801561004f57600080fd5b5060405161159e38038061159e8339818101604052606081101561007257600080fd5b81019080805190602001909291908051906020019092919080519060200190929190505050826000806101000a81548173ffffffffffffffffffffffffffffffffffffffff021916908373ffffffffffffffffffffffffffffffffffffffff16021790555081600160006101000a81548173ffffffffffffffffffffffffffffffffffffffff021916908373ffffffffffffffffffffffffffffffffffffffff1602179055508060088190555050505061146d806101316000396000f3fe60806040526004361061012e5760003560e01c806389a2cdcb116100ab578063d8d40cee1161006f578063d8d40cee146104de578063dc0ed85414610509578063e138cd3a1461054a578063e148919114610575578063fbbfa574146105a0578063fdb0a43e146105cb57610135565b806389a2cdcb146103b9578063953b8fb81461040a578063ce4aa49d14610435578063d297a89f1461049c578063d809d248146104c757610135565b80633fadcc66116100f25780633fadcc661461025457806365e23ce31461027f57806367dd74ca146102aa578063720927dc146102e5578063758fbbee1461034a57610135565b80630cba0be01461013a578063117a5b90146101655780631209b1f6146101d157806329dcb0cf146101fc5780633b6e345b1461022757610135565b3661013557005b600080fd5b34801561014657600080fd5b5061014f6105f6565b6040518082815260200191505060405180910390f35b34801561017157600080fd5b5061019e6004803603602081101561018857600080fd5b81019080803590602001909291905050506105fc565b604051808381526020018273ffffffffffffffffffffffffffffffffffffffff1681526020019250505060405180910390f35b3480156101dd57600080fd5b506101e6610640565b6040518082815260200191505060405180910390f35b34801561020857600080fd5b50610211610646565b6040518082815260200191505060405180910390f35b34801561023357600080fd5b5061023c61064c565b60405180821515815260200191505060405180910390f35b34801561026057600080fd5b5061026961065f565b6040518082815260200191505060405180910390f35b34801561028b57600080fd5b50610294610665565b6040518082815260200191505060405180910390f35b3480156102b657600080fd5b506102e3600480360360208110156102cd57600080fd5b810190808035906020019092919050505061066b565b005b3480156102f157600080fd5b506103346004803603602081101561030857600080fd5b81019080803573ffffffffffffffffffffffffffffffffffffffff169060200190929190505050610da3565b6040518082815260200191505060405180910390f35b34801561035657600080fd5b506103a36004803603604081101561036d57600080fd5b8101908080359060200190929190803573ffffffffffffffffffffffffffffffffffffffff169060200190929190505050610dbb565b6040518082815260200191505060405180910390f35b3480156103c557600080fd5b506103f2600480360360208110156103dc57600080fd5b8101908080359060200190929190505050610de0565b60405180821515815260200191505060405180910390f35b34801561041657600080fd5b5061041f610e00565b6040518082815260200191505060405180910390f35b34801561044157600080fd5b506104846004803603602081101561045857600080fd5b81019080803573ffffffffffffffffffffffffffffffffffffffff169060200190929190505050610e06565b60405180821515815260200191505060405180910390f35b3480156104a857600080fd5b506104b1610e26565b6040518082815260200191505060405180910390f35b3480156104d357600080fd5b506104dc610e2c565b005b3480156104ea57600080fd5b506104f3610e36565b6040518082815260200191505060405180910390f35b34801561051557600080fd5b5061051e610e3c565b604051808273ffffffffffffffffffffffffffffffffffffffff16815260200191505060405180910390f35b34801561055657600080fd5b5061055f610e65565b6040518082815260200191505060405180910390f35b34801561058157600080fd5b5061058a610ea7565b6040518082815260200191505060405180910390f35b3480156105ac57600080fd5b506105b5610ead565b6040518082815260200191505060405180910390f35b3480156105d757600080fd5b506105e0610eb3565b6040518082815260200191505060405180910390f35b60095481565b600d6020528060005260406000206000915090508060000154908060020160009054906101000a900473ffffffffffffffffffffffffffffffffffffffff16905082565b60065481565b60055481565b600c60009054906101000a900460ff1681565b60085481565b60075481565b8060018110156106e3576040517f08c379a000000000000000000000000000000000000000000000000000000000815260040180806020018281038252601f8152602001807f43616e6e6f7420627579206c657373207468616e206f6e65207469636b65740081525060200191505060405180910390fd5b8160085481600d600060045481526020019081526020016000206001018054905001111561075c576040517f08c379a00000000000000000000000000000000000000000000000000000000081526004018080602001828103825260248152602001806113f36024913960400191505060405180910390fd5b338360095481600f6000600454815260200190815260200160002060008573ffffffffffffffffffffffffffffffffffffffff1673ffffffffffffffffffffffffffffffffffffffff1681526020019081526020016000205401111561080d576040517f08c379a00000000000000000000000000000000000000000000000000000000081526004018080602001828103825260298152602001806113ca6029913960400191505060405180910390fd5b600061082486600654610ee190919063ffffffff16565b90506000600e60003373ffffffffffffffffffffffffffffffffffffffff1673ffffffffffffffffffffffffffffffffffffffff1681526020019081526020016000205490506000600f6000600454815260200190815260200160002060003373ffffffffffffffffffffffffffffffffffffffff1673ffffffffffffffffffffffffffffffffffffffff168152602001908152602001600020549050601060003373ffffffffffffffffffffffffffffffffffffffff1673ffffffffffffffffffffffffffffffffffffffff16815260200190815260200160002060009054906101000a900460ff166109965760006113889050600081116109275761138890505b61093a8185610f6790919063ffffffff16565b93506001601060003373ffffffffffffffffffffffffffffffffffffffff1673ffffffffffffffffffffffffffffffffffffffff16815260200190815260200160002060006101000a81548160ff021916908315150217905550505b8260026000828254019250508190555060008054906101000a900473ffffffffffffffffffffffffffffffffffffffff1673ffffffffffffffffffffffffffffffffffffffff166323b872dd3330866040518463ffffffff1660e01b8152600401808473ffffffffffffffffffffffffffffffffffffffff1681526020018373ffffffffffffffffffffffffffffffffffffffff1681526020018281526020019350505050602060405180830381600087803b158015610a5557600080fd5b505af1158015610a69573d6000803e3d6000fd5b505050506040513d6020811015610a7f57600080fd5b8101908080519060200190929190505050508782019150878101905081600e60003373ffffffffffffffffffffffffffffffffffffffff1673ffffffffffffffffffffffffffffffffffffffff1681526020019081526020016000208190555080600f6000600454815260200190815260200160002060003373ffffffffffffffffffffffffffffffffffffffff1673ffffffffffffffffffffffffffffffffffffffff168152602001908152602001600020819055506000600d600060045481526020019081526020016000209050600454816000018190555060005b89811015610bd75781600101339080600181540180825580915050600190039060005260206000200160009091909190916101000a81548173ffffffffffffffffffffffffffffffffffffffff021916908373ffffffffffffffffffffffffffffffffffffffff1602179055508080600101915050610b5d565b50606081600101805480602002602001604051908101604052809291908181526020018280548015610c5e57602002820191906000526020600020905b8160009054906101000a900473ffffffffffffffffffffffffffffffffffffffff1673ffffffffffffffffffffffffffffffffffffffff1681526020019060010190808311610c14575b505050505090507f360330060f3e852e9c9989e78f54b5dafc52d2c055662b302d3c7125f077c77a338b87604051808473ffffffffffffffffffffffffffffffffffffffff168152602001838152602001828152602001935050505060405180910390a17fc5cb959c08e91c5b7df8f1338508ff2c1b9175f8feea32ba533bc6f1d7b38292816040518080602001828103825283818151815260200191508051906020019060200280838360005b83811015610d27578082015181840152602081019050610d0c565b505050509050019250505060405180910390a1600854600d60006004548152602001908152602001600020600101805490501415610d97576000610d776005600454610fb190919063ffffffff16565b1415610d8e57610d85610ffb565b610d8d611201565b5b610d96611203565b5b50505050505050505050565b600e6020528060005260406000206000915090505481565b600f602052816000526040600020602052806000526040600020600091509150505481565b60116020528060005260406000206000915054906101000a900460ff1681565b600b5481565b60106020528060005260406000206000915054906101000a900460ff1681565b600a5481565b610e34611246565b565b60045481565b60008060009054906101000a900473ffffffffffffffffffffffffffffffffffffffff16905090565b600080600d600060045481526020019081526020016000209050600081600101805490509050610ea081600854610f6790919063ffffffff16565b9250505090565b60035481565b60025481565b600080600d600060045481526020019081526020016000209050600081600101805490509050809250505090565b600080831415610ef45760009050610f61565b6000828402905082848281610f0557fe5b0414610f5c576040517f08c379a00000000000000000000000000000000000000000000000000000000081526004018080602001828103825260218152602001806114176021913960400191505060405180910390fd5b809150505b92915050565b6000610fa983836040518060400160405280601e81526020017f536166654d6174683a207375627472616374696f6e206f766572666c6f770000815250611248565b905092915050565b6000610ff383836040518060400160405280601881526020017f536166654d6174683a206d6f64756c6f206279207a65726f0000000000000000815250611308565b905092915050565b600a544710156111ff57600c60009054906101000a900460ff166111295760008054906101000a900473ffffffffffffffffffffffffffffffffffffffff1673ffffffffffffffffffffffffffffffffffffffff1663095ea7b3600160009054906101000a900473ffffffffffffffffffffffffffffffffffffffff1664174876e8006040518363ffffffff1660e01b8152600401808373ffffffffffffffffffffffffffffffffffffffff16815260200182815260200192505050602060405180830381600087803b1580156110d157600080fd5b505af11580156110e5573d6000803e3d6000fd5b505050506040513d60208110156110fb57600080fd5b8101908080519060200190929190505050506001600c60006101000a81548160ff0219169083151502179055505b60006003549050600160009054906101000a900473ffffffffffffffffffffffffffffffffffffffff1673ffffffffffffffffffffffffffffffffffffffff166395e3c50b826007546005546040518463ffffffff1660e01b8152600401808481526020018381526020018281526020019350505050602060405180830381600087803b1580156111b957600080fd5b505af11580156111cd573d6000803e3d6000fd5b505050506040513d60208110156111e357600080fd5b8101908080519060200190929190505050506000600381905550505b565b565b7fce24807f7e4b60b4e641462f13029fa5e5f79075bbc3f8e5cd43ecd19661d7606004546040518082815260200191505060405180910390a1611244611246565b565b565b60008383111582906112f5576040517f08c379a00000000000000000000000000000000000000000000000000000000081526004018080602001828103825283818151815260200191508051906020019080838360005b838110156112ba57808201518184015260208101905061129f565b50505050905090810190601f1680156112e75780820380516001836020036101000a031916815260200191505b509250505060405180910390fd5b5060008385039050809150509392505050565b60008083141582906113b5576040517f08c379a00000000000000000000000000000000000000000000000000000000081526004018080602001828103825283818151815260200191508051906020019080838360005b8381101561137a57808201518184015260208101905061135f565b50505050905090810190601f1680156113a75780820380516001836020036101000a031916815260200191505b509250505060405180910390fd5b508284816113bf57fe5b069050939250505056fe4d6178696d756d207469636b6574206c696d6974207065722061646472657373206578636565646564546f74616c207469636b6574207065722067616d65206c696d6974206578636565646564536166654d6174683a206d756c7469706c69636174696f6e206f766572666c6f77a264697066735822122012800277c9dcb8827fbea59d85f4213d7ee520aaa354d69682e587f3e359eaf164736f6c634300060c0033",
  "immutableReferences": {},
  "source": "pragma solidity ^0.6.0;\r\n\r\nimport \"./SafeStringCast.sol\";\r\nimport \"./interfaces/IERC20.sol\";\r\nimport \"./interfaces/IUniswapExchange.sol\";\r\nimport { SafeIntCast } from \"./SafeIntCast.sol\";\r\n//import \"@0x/contracts-utils/contracts/src/LibBytes.sol\";\r\nimport '@openzeppelin/contracts-ethereum-package/contracts/math/SafeMath.sol';\r\n\r\n\r\ncontract WinNgnt {\r\n    using SafeMath for uint256;\r\n    using SafeStringCast for string;\r\n\r\n    IERC20 private _ngnt;\r\n    IUniswapExchange private _uniswap;\r\n    //IRelayHub private _relayHub;\r\n    uint public TOTAL_NGNT = 0;\r\n\r\n    struct Game {\r\n        uint gameNumber;\r\n        address[] tickets;\r\n        address gameWinner;\r\n    }\r\n\r\n    enum GSNErrorCodes {\r\n        INSUFFICIENT_BALANCE, NOT_ALLOWED\r\n    }\r\n\r\n    uint public commission;\r\n    uint public gameNumber = 1;\r\n    uint public deadline = 1742680400;\r\n    uint public ticketPrice = 50000;\r\n    uint public minimumEther = 1 wei;\r\n    uint public maximumPurchasableTickets = 250;\r\n    uint public maximumTicketsPerAddress = 10;\r\n    uint public oneEther = 1000000000000000000;\r\n    uint public targetAmount = 1000000000000000000;\r\n\r\n    bool public exchangeContractApproval;\r\n\r\n    mapping(uint => Game) public games;\r\n    mapping(address => uint) public addressTicketCount;\r\n    mapping(uint => mapping(address => uint)) public addressTicketCountPerGame;\r\n    mapping(address => bool) public addressHasPaidGsnFee;\r\n    mapping(bytes32 => bool) public pendingQueries;\r\n\r\n    //TODO: Remove event after thorough testing\r\n    event Tickets(address[] tickets);\r\n\r\n    event GameEnded(uint gameNumber);\r\n    event BoughtTicket(address buyer, uint numOfTickets, uint totalTicketPrice);\r\n    event LogNewProvableQuery(string description);\r\n    event RandomNumberGenerated(uint16 randomNumber);\r\n    event WinnerSelected(address winner, uint amount, uint gameNumber);\r\n\r\n\r\n\r\n    modifier atLeastOneTicket(uint numberOfTickets){\r\n        require(numberOfTickets >= 1, \"Cannot buy less than one ticket\");\r\n        _;\r\n    }\r\n\r\n    modifier ticketLimitNotExceed(uint numberOfTickets){\r\n        require((games[gameNumber].tickets.length + numberOfTickets) <= maximumPurchasableTickets, \"Total ticket per game limit exceeded\");\r\n        _;\r\n    }\r\n\r\n    modifier maxTicketPerAddressLimitNotExceed(address _address, uint numberOfTickets){\r\n        require((addressTicketCountPerGame[gameNumber][_address] + numberOfTickets) <= maximumTicketsPerAddress, \"Maximum ticket limit per address exceeded\");\r\n        _;\r\n    }\r\n\r\n    modifier queryIdHasNotBeenProcessed(bytes32 queryId){\r\n        require (pendingQueries[queryId] == true);\r\n        _;\r\n    }\r\n\r\n    constructor(IERC20 ngnt, IUniswapExchange uniswap, uint _maximumPurchasableTickets) public {\r\n        \r\n        _ngnt = ngnt;\r\n        _uniswap = uniswap;\r\n        //_relayHub = relayHub;\r\n        maximumPurchasableTickets = _maximumPurchasableTickets;\r\n    }\r\n\r\n    function buyTicket(uint numberOfTickets) atLeastOneTicket(numberOfTickets) ticketLimitNotExceed(numberOfTickets)\r\n    maxTicketPerAddressLimitNotExceed(msg.sender, numberOfTickets)\r\n    external\r\n    {\r\n        uint totalTicketPrice = ticketPrice.mul(numberOfTickets);\r\n        uint totalAddressTicketCount = addressTicketCount[msg.sender];\r\n        uint totalAddressTicketCountPerGame = addressTicketCountPerGame[gameNumber][msg.sender];\r\n\r\n        if (!addressHasPaidGsnFee[msg.sender]) {\r\n            //uint gsnFee = _ngnt.gsnFee();\r\n            uint gsnFee = 5000;\r\n            if (gsnFee <= 0) {\r\n                gsnFee = 5000;\r\n            }\r\n\r\n            totalTicketPrice = totalTicketPrice.sub(gsnFee);\r\n            addressHasPaidGsnFee[msg.sender] = true;\r\n        }\r\n\r\n        TOTAL_NGNT += totalTicketPrice;\r\n        _ngnt.transferFrom(msg.sender, address(this), totalTicketPrice);\r\n\r\n        totalAddressTicketCount += numberOfTickets;\r\n        totalAddressTicketCountPerGame += numberOfTickets;\r\n        \r\n        addressTicketCount[msg.sender] = totalAddressTicketCount;\r\n        addressTicketCountPerGame[gameNumber][msg.sender] = totalAddressTicketCountPerGame;\r\n\r\n        Game storage game = games[gameNumber];\r\n        game.gameNumber = gameNumber;\r\n        for(uint i = 0; i < numberOfTickets; i++){\r\n            game.tickets.push(msg.sender);\r\n        }\r\n\r\n        address[] memory tickets = game.tickets;\r\n        emit BoughtTicket(msg.sender, numberOfTickets, totalTicketPrice);\r\n        emit Tickets(tickets);\r\n\r\n        if(games[gameNumber].tickets.length == maximumPurchasableTickets){\r\n            if(gameNumber.mod(5) == 0){\r\n                swapNgntForEth();\r\n                fundRecipient();\r\n            }\r\n            endGame();\r\n        }\r\n    }\r\n\r\n    function numberOfTicketsLeft() external view returns (uint){\r\n        Game storage game = games[gameNumber];\r\n        uint ticketsBought = game.tickets.length;\r\n        return maximumPurchasableTickets.sub(ticketsBought);\r\n    }\r\n\r\n    function numberOfTicketsPurchased() external view returns(uint){\r\n        Game storage game = games[gameNumber];\r\n        uint ticketsBought = game.tickets.length;\r\n        return ticketsBought;\r\n    }\r\n\r\n    function getNgntAddress() external view returns(address){\r\n        return address(_ngnt);\r\n    }\r\n\r\n    // function __callback(bytes32 queryId, string memory _result) isCalledByAProvableCallbackAddress(msg.sender)\r\n    // queryIdHasNotBeenProcessed(queryId) public\r\n    // {\r\n    //     if(games[gameNumber].tickets.length == maximumPurchasableTickets){\r\n    //         uint16 randomIndex = _result.toUint();\r\n    //         emit RandomNumberGenerated(randomIndex);\r\n    //         delete pendingQueries[queryId];\r\n\r\n    //         sendNgntToWinner(randomIndex);\r\n    //         resetGame();\r\n    //     }\r\n    // }\r\n\r\n    // function generateRandomNumber() private {\r\n    //     if (provable_getPrice(\"WolframAlpha\") > address(this).balance) {\r\n    //         emit LogNewProvableQuery(\"Provable query was NOT sent, please add some ETH to cover for the query fee\");\r\n    //     }\r\n    //     else {\r\n    //         uint lastIndex = 0;\r\n    //         Game storage game = games[gameNumber];\r\n    //         lastIndex = game.tickets.length - 1;\r\n\r\n    //         bytes memory query;\r\n    //         query = abi.encodePacked(SafeIntCast.toString(lastIndex));\r\n    //         query = abi.encodePacked(\"random number between 0 and \", query);\r\n    //         string memory provableQuery = string(query);\r\n\r\n    //         emit LogNewProvableQuery(\"Provable query was sent, standing by for the answer...\");\r\n    //         bytes32 queryId = provable_query(\"WolframAlpha\", provableQuery);\r\n    //         pendingQueries[queryId] = true;\r\n    //     }\r\n    // }\r\n\r\n    function generateRandomNumber() private {\r\n        \r\n    }\r\n\r\n    function startNextGame() public {\r\n        generateRandomNumber();\r\n    }\r\n\r\n    function sendNgntToWinner(uint randomIndex) private {\r\n        Game storage game = games[gameNumber];\r\n        address winner = game.tickets[randomIndex];\r\n        game.gameWinner = winner;\r\n\r\n        uint amountWon = TOTAL_NGNT.mul(90).div(100);\r\n        commission += TOTAL_NGNT.sub(amountWon);\r\n        _ngnt.transfer(winner, amountWon);\r\n\r\n        emit WinnerSelected(winner, amountWon, gameNumber);\r\n    }\r\n\r\n    function swapNgntForEth() private {\r\n        if(address(this).balance < oneEther){\r\n            if(!exchangeContractApproval){\r\n                _ngnt.approve(address(_uniswap), 100000000000);\r\n                exchangeContractApproval = true;\r\n            }\r\n\r\n            uint tokenSold = commission;\r\n            _uniswap.tokenToEthSwapInput(tokenSold, minimumEther, deadline);\r\n            commission = 0;\r\n        }\r\n    }\r\n\r\n    function fundRecipient() private {\r\n        //uint relayBalance = _relayHub.balanceOf(address(this));\r\n        // if(relayBalance < targetAmount){\r\n        //     uint amountDifference = targetAmount.sub(relayBalance);\r\n        //     if(address(this).balance > amountDifference){\r\n        //         _relayHub.depositFor.value(amountDifference)(address(this));\r\n        //     }else{\r\n        //         _relayHub.depositFor.value(address(this).balance)(address(this));\r\n        //     }\r\n        // }\r\n    }\r\n\r\n    function resetGame() private {\r\n        gameNumber++;\r\n        TOTAL_NGNT = 0;\r\n    }\r\n\r\n    function endGame() private {\r\n        emit GameEnded(gameNumber);\r\n        generateRandomNumber();\r\n    }\r\n\r\n    receive () external payable {\r\n    }\r\n}\r\n",
  "sourcePath": "C:/Users/user/Desktop/Work/win-ngnt/contracts/WinNgnt.sol",
  "compiler": {
    "name": "solc",
    "version": "0.6.12+commit.27d51765.Emscripten.clang"
  },
  "schemaVersion": "3.3.4",
  "updatedAt": "2021-05-19T14:41:28.953Z",
  "devdoc": {
    "kind": "dev",
    "methods": {},
    "version": 1
  },
  "userdoc": {
    "kind": "user",
    "methods": {},
    "version": 1
  }
}