{
  "contractName": "WinNgnt",
  "abi": [
    {
      "inputs": [
        {
          "internalType": "contract IERC20",
          "name": "_NGNT",
          "type": "address"
        },
        {
          "internalType": "uint256",
          "name": "_maximumPurchasableTickets",
          "type": "uint256"
        },
        {
          "internalType": "contract IPegswap",
          "name": "_pegswap",
          "type": "address"
        },
        {
          "internalType": "contract IERC20",
          "name": "_LINK_ERC20",
          "type": "address"
        },
        {
          "internalType": "address",
          "name": "_WBNB",
          "type": "address"
        },
        {
          "internalType": "contract IPancakeRouter02",
          "name": "_pancakeswap",
          "type": "address"
        }
      ],
      "stateMutability": "nonpayable",
      "type": "constructor"
    },
    {
      "anonymous": false,
      "inputs": [
        {
          "indexed": true,
          "internalType": "address",
          "name": "buyer",
          "type": "address"
        },
        {
          "indexed": false,
          "internalType": "uint256",
          "name": "numOfTickets",
          "type": "uint256"
        },
        {
          "indexed": false,
          "internalType": "uint256",
          "name": "totalTicketPrice",
          "type": "uint256"
        }
      ],
      "name": "BoughtTicket",
      "type": "event"
    },
    {
      "anonymous": false,
      "inputs": [
        {
          "indexed": false,
          "internalType": "uint256",
          "name": "gameNumber",
          "type": "uint256"
        }
      ],
      "name": "GameEnded",
      "type": "event"
    },
    {
      "anonymous": false,
      "inputs": [
        {
          "indexed": false,
          "internalType": "uint16",
          "name": "randomNumber",
          "type": "uint16"
        },
        {
          "indexed": true,
          "internalType": "uint256",
          "name": "gameNumber",
          "type": "uint256"
        }
      ],
      "name": "RandomNumberGenerated",
      "type": "event"
    },
    {
      "anonymous": false,
      "inputs": [
        {
          "indexed": false,
          "internalType": "bytes32",
          "name": "queryId",
          "type": "bytes32"
        },
        {
          "indexed": true,
          "internalType": "uint256",
          "name": "gameNumber",
          "type": "uint256"
        }
      ],
      "name": "RandomNumberQuerySent",
      "type": "event"
    },
    {
      "anonymous": false,
      "inputs": [
        {
          "indexed": false,
          "internalType": "address",
          "name": "winner",
          "type": "address"
        },
        {
          "indexed": false,
          "internalType": "uint256",
          "name": "amount",
          "type": "uint256"
        },
        {
          "indexed": true,
          "internalType": "uint256",
          "name": "gameNumber",
          "type": "uint256"
        }
      ],
      "name": "WinnerSelected",
      "type": "event"
    },
    {
      "inputs": [],
      "name": "LINK_ERC20",
      "outputs": [
        {
          "internalType": "contract IERC20",
          "name": "",
          "type": "address"
        }
      ],
      "stateMutability": "view",
      "type": "function"
    },
    {
      "inputs": [],
      "name": "NGNT",
      "outputs": [
        {
          "internalType": "contract IERC20",
          "name": "",
          "type": "address"
        }
      ],
      "stateMutability": "view",
      "type": "function"
    },
    {
      "inputs": [],
      "name": "TOTAL_NGNT",
      "outputs": [
        {
          "internalType": "uint256",
          "name": "",
          "type": "uint256"
        }
      ],
      "stateMutability": "view",
      "type": "function"
    },
    {
      "inputs": [],
      "name": "WBNB",
      "outputs": [
        {
          "internalType": "address",
          "name": "",
          "type": "address"
        }
      ],
      "stateMutability": "view",
      "type": "function"
    },
    {
      "inputs": [
        {
          "internalType": "address",
          "name": "",
          "type": "address"
        }
      ],
      "name": "addressHasPaidGsnFee",
      "outputs": [
        {
          "internalType": "bool",
          "name": "",
          "type": "bool"
        }
      ],
      "stateMutability": "view",
      "type": "function"
    },
    {
      "inputs": [
        {
          "internalType": "address",
          "name": "",
          "type": "address"
        }
      ],
      "name": "addressTicketCount",
      "outputs": [
        {
          "internalType": "uint256",
          "name": "",
          "type": "uint256"
        }
      ],
      "stateMutability": "view",
      "type": "function"
    },
    {
      "inputs": [
        {
          "internalType": "uint256",
          "name": "",
          "type": "uint256"
        },
        {
          "internalType": "address",
          "name": "",
          "type": "address"
        }
      ],
      "name": "addressTicketCountPerGame",
      "outputs": [
        {
          "internalType": "uint256",
          "name": "",
          "type": "uint256"
        }
      ],
      "stateMutability": "view",
      "type": "function"
    },
    {
      "inputs": [],
      "name": "commission",
      "outputs": [
        {
          "internalType": "uint256",
          "name": "",
          "type": "uint256"
        }
      ],
      "stateMutability": "view",
      "type": "function"
    },
    {
      "inputs": [],
      "name": "deadline",
      "outputs": [
        {
          "internalType": "uint256",
          "name": "",
          "type": "uint256"
        }
      ],
      "stateMutability": "view",
      "type": "function"
    },
    {
      "inputs": [],
      "name": "exchangeContractApproval",
      "outputs": [
        {
          "internalType": "bool",
          "name": "",
          "type": "bool"
        }
      ],
      "stateMutability": "view",
      "type": "function"
    },
    {
      "inputs": [],
      "name": "gameNumber",
      "outputs": [
        {
          "internalType": "uint256",
          "name": "",
          "type": "uint256"
        }
      ],
      "stateMutability": "view",
      "type": "function"
    },
    {
      "inputs": [
        {
          "internalType": "uint256",
          "name": "",
          "type": "uint256"
        }
      ],
      "name": "games",
      "outputs": [
        {
          "internalType": "address",
          "name": "gameWinner",
          "type": "address"
        }
      ],
      "stateMutability": "view",
      "type": "function"
    },
    {
      "inputs": [
        {
          "internalType": "address",
          "name": "forwarder",
          "type": "address"
        }
      ],
      "name": "isTrustedForwarder",
      "outputs": [
        {
          "internalType": "bool",
          "name": "",
          "type": "bool"
        }
      ],
      "stateMutability": "view",
      "type": "function"
    },
    {
      "inputs": [],
      "name": "maximumPurchasableTickets",
      "outputs": [
        {
          "internalType": "uint256",
          "name": "",
          "type": "uint256"
        }
      ],
      "stateMutability": "view",
      "type": "function"
    },
    {
      "inputs": [],
      "name": "maximumTicketsPerAddress",
      "outputs": [
        {
          "internalType": "uint256",
          "name": "",
          "type": "uint256"
        }
      ],
      "stateMutability": "view",
      "type": "function"
    },
    {
      "inputs": [],
      "name": "minimumEther",
      "outputs": [
        {
          "internalType": "uint256",
          "name": "",
          "type": "uint256"
        }
      ],
      "stateMutability": "view",
      "type": "function"
    },
    {
      "inputs": [],
      "name": "pegswap",
      "outputs": [
        {
          "internalType": "contract IPegswap",
          "name": "",
          "type": "address"
        }
      ],
      "stateMutability": "view",
      "type": "function"
    },
    {
      "inputs": [
        {
          "internalType": "bytes32",
          "name": "",
          "type": "bytes32"
        }
      ],
      "name": "pendingQueries",
      "outputs": [
        {
          "internalType": "bool",
          "name": "",
          "type": "bool"
        }
      ],
      "stateMutability": "view",
      "type": "function"
    },
    {
      "inputs": [
        {
          "internalType": "bytes32",
          "name": "requestId",
          "type": "bytes32"
        },
        {
          "internalType": "uint256",
          "name": "randomness",
          "type": "uint256"
        }
      ],
      "name": "rawFulfillRandomness",
      "outputs": [],
      "stateMutability": "nonpayable",
      "type": "function"
    },
    {
      "inputs": [],
      "name": "targetAmount",
      "outputs": [
        {
          "internalType": "uint256",
          "name": "",
          "type": "uint256"
        }
      ],
      "stateMutability": "view",
      "type": "function"
    },
    {
      "inputs": [],
      "name": "ticketPrice",
      "outputs": [
        {
          "internalType": "uint256",
          "name": "",
          "type": "uint256"
        }
      ],
      "stateMutability": "view",
      "type": "function"
    },
    {
      "inputs": [],
      "name": "trustedForwarder",
      "outputs": [
        {
          "internalType": "address",
          "name": "",
          "type": "address"
        }
      ],
      "stateMutability": "view",
      "type": "function"
    },
    {
      "inputs": [],
      "name": "versionRecipient",
      "outputs": [
        {
          "internalType": "string",
          "name": "",
          "type": "string"
        }
      ],
      "stateMutability": "view",
      "type": "function"
    },
    {
      "stateMutability": "payable",
      "type": "receive"
    },
    {
      "inputs": [
        {
          "internalType": "uint256",
          "name": "numberOfTickets",
          "type": "uint256"
        }
      ],
      "name": "buyTicket",
      "outputs": [],
      "stateMutability": "nonpayable",
      "type": "function"
    },
    {
      "inputs": [],
      "name": "numberOfTicketsLeft",
      "outputs": [
        {
          "internalType": "uint256",
          "name": "",
          "type": "uint256"
        }
      ],
      "stateMutability": "view",
      "type": "function"
    },
    {
      "inputs": [],
      "name": "numberOfTicketsPurchased",
      "outputs": [
        {
          "internalType": "uint256",
          "name": "",
          "type": "uint256"
        }
      ],
      "stateMutability": "view",
      "type": "function"
    },
    {
      "inputs": [],
      "name": "getNgntAddress",
      "outputs": [
        {
          "internalType": "address",
          "name": "",
          "type": "address"
        }
      ],
      "stateMutability": "view",
      "type": "function"
    },
    {
      "inputs": [],
      "name": "startNextGame",
      "outputs": [],
      "stateMutability": "nonpayable",
      "type": "function"
    },
    {
      "inputs": [
        {
          "internalType": "address",
          "name": "_forwarder",
          "type": "address"
        }
      ],
      "name": "setForwarder",
      "outputs": [],
      "stateMutability": "nonpayable",
      "type": "function"
    }
  ],
  "bytecode": "0x60c0604052600060075560016009556367df3150600a5561c350600b556001600c5560fa600d55600a600e55670de0b6b3a7640000600f55604051806060016040528060248152602001620030b36024913960129080519060200190620000689291906200030a565b503480156200007657600080fd5b50604051620030d7380380620030d7833981810160405260c08110156200009c57600080fd5b8101908080519060200190929190805190602001909291908051906020019092919080519060200190929190805190602001909291908051906020019092919050505073a555fc018435bef5a13c6c6870a9d4c11dec329c7384b9b910527ad5c03a9ca831909e21e236ea7b068173ffffffffffffffffffffffffffffffffffffffff1660a08173ffffffffffffffffffffffffffffffffffffffff1660601b815250508073ffffffffffffffffffffffffffffffffffffffff1660808173ffffffffffffffffffffffffffffffffffffffff1660601b81525050505085600260006101000a81548173ffffffffffffffffffffffffffffffffffffffff021916908373ffffffffffffffffffffffffffffffffffffffff16021790555083600560006101000a81548173ffffffffffffffffffffffffffffffffffffffff021916908373ffffffffffffffffffffffffffffffffffffffff16021790555082600360006101000a81548173ffffffffffffffffffffffffffffffffffffffff021916908373ffffffffffffffffffffffffffffffffffffffff16021790555081600660006101000a81548173ffffffffffffffffffffffffffffffffffffffff021916908373ffffffffffffffffffffffffffffffffffffffff16021790555080600460006101000a81548173ffffffffffffffffffffffffffffffffffffffff021916908373ffffffffffffffffffffffffffffffffffffffff16021790555084600d819055507fcaf3c3727e033261d383b315559476f48034c13b18f8cafed4d871abe504918660001b60138190555067016345785d8a0000601081905550505050505050620003c0565b828054600181600116156101000203166002900490600052602060002090601f0160209004810192826200034257600085556200038e565b82601f106200035d57805160ff19168380011785556200038e565b828001600101855582156200038e579182015b828111156200038d57825182559160200191906001019062000370565b5b5090506200039d9190620003a1565b5090565b5b80821115620003bc576000816000905550600101620003a2565b5090565b60805160601c60a05160601c612cb5620003fe6000398061136952806127ae5250806111c35280612109528061233252806127725250612cb56000f3fe6080604052600436106101c65760003560e01c806389a2cdcb116100f7578063d809d24811610095578063e148919111610064578063e14891911461086c578063f009451e14610897578063fbbfa574146108d8578063fdb0a43e14610903576101cd565b8063d809d248146107be578063d8d40cee146107d5578063dc0ed85414610800578063e138cd3a14610841576101cd565b8063953b8fb8116100d1578063953b8fb81461069a57806395a0b7c3146106c5578063b9998a2414610706578063ce4aa49d14610757576101cd565b806389a2cdcb146105c35780638dd950021461061457806394985ddd14610655576101cd565b8063538d00281161016457806367dd74ca1161013e57806367dd74ca14610473578063720927dc146104ae578063758fbbee146105135780637da0a87714610582576101cd565b8063538d0028146103a0578063572b6c05146103e157806365e23ce314610448576101cd565b806329dcb0cf116101a057806329dcb0cf1461028d5780633b6e345b146102b85780633fadcc66146102e5578063486ff0cd14610310576101cd565b80630cba0be0146101d2578063117a5b90146101fd5780631209b1f614610262576101cd565b366101cd57005b600080fd5b3480156101de57600080fd5b506101e761092e565b6040518082815260200191505060405180910390f35b34801561020957600080fd5b506102366004803603602081101561022057600080fd5b8101908080359060200190929190505050610934565b604051808273ffffffffffffffffffffffffffffffffffffffff16815260200191505060405180910390f35b34801561026e57600080fd5b50610277610972565b6040518082815260200191505060405180910390f35b34801561029957600080fd5b506102a2610978565b6040518082815260200191505060405180910390f35b3480156102c457600080fd5b506102cd61097e565b60405180821515815260200191505060405180910390f35b3480156102f157600080fd5b506102fa610991565b6040518082815260200191505060405180910390f35b34801561031c57600080fd5b50610325610997565b6040518080602001828103825283818151815260200191508051906020019080838360005b8381101561036557808201518184015260208101905061034a565b50505050905090810190601f1680156103925780820380516001836020036101000a031916815260200191505b509250505060405180910390f35b3480156103ac57600080fd5b506103b5610a35565b604051808273ffffffffffffffffffffffffffffffffffffffff16815260200191505060405180910390f35b3480156103ed57600080fd5b506104306004803603602081101561040457600080fd5b81019080803573ffffffffffffffffffffffffffffffffffffffff169060200190929190505050610a5b565b60405180821515815260200191505060405180910390f35b34801561045457600080fd5b5061045d610ab4565b6040518082815260200191505060405180910390f35b34801561047f57600080fd5b506104ac6004803603602081101561049657600080fd5b8101908080359060200190929190505050610aba565b005b3480156104ba57600080fd5b506104fd600480360360208110156104d157600080fd5b81019080803573ffffffffffffffffffffffffffffffffffffffff1690602001909291905050506112c0565b6040518082815260200191505060405180910390f35b34801561051f57600080fd5b5061056c6004803603604081101561053657600080fd5b8101908080359060200190929190803573ffffffffffffffffffffffffffffffffffffffff1690602001909291905050506112d8565b6040518082815260200191505060405180910390f35b34801561058e57600080fd5b506105976112fd565b604051808273ffffffffffffffffffffffffffffffffffffffff16815260200191505060405180910390f35b3480156105cf57600080fd5b506105fc600480360360208110156105e657600080fd5b8101908080359060200190929190505050611321565b60405180821515815260200191505060405180910390f35b34801561062057600080fd5b50610629611341565b604051808273ffffffffffffffffffffffffffffffffffffffff16815260200191505060405180910390f35b34801561066157600080fd5b506106986004803603604081101561067857600080fd5b810190808035906020019092919080359060200190929190505050611367565b005b3480156106a657600080fd5b506106af611436565b6040518082815260200191505060405180910390f35b3480156106d157600080fd5b506106da61143c565b604051808273ffffffffffffffffffffffffffffffffffffffff16815260200191505060405180910390f35b34801561071257600080fd5b506107556004803603602081101561072957600080fd5b81019080803573ffffffffffffffffffffffffffffffffffffffff169060200190929190505050611462565b005b34801561076357600080fd5b506107a66004803603602081101561077a57600080fd5b81019080803573ffffffffffffffffffffffffffffffffffffffff1690602001909291905050506114a5565b60405180821515815260200191505060405180910390f35b3480156107ca57600080fd5b506107d36114c5565b005b3480156107e157600080fd5b506107ea6114cf565b6040518082815260200191505060405180910390f35b34801561080c57600080fd5b506108156114d5565b604051808273ffffffffffffffffffffffffffffffffffffffff16815260200191505060405180910390f35b34801561084d57600080fd5b506108566114ff565b6040518082815260200191505060405180910390f35b34801561087857600080fd5b50610881611541565b6040518082815260200191505060405180910390f35b3480156108a357600080fd5b506108ac611547565b604051808273ffffffffffffffffffffffffffffffffffffffff16815260200191505060405180910390f35b3480156108e457600080fd5b506108ed61156d565b6040518082815260200191505060405180910390f35b34801561090f57600080fd5b50610918611573565b6040518082815260200191505060405180910390f35b600e5481565b60146020528060005260406000206000915090508060010160009054906101000a900473ffffffffffffffffffffffffffffffffffffffff16905081565b600b5481565b600a5481565b601160009054906101000a900460ff1681565b600d5481565b60128054600181600116156101000203166002900480601f016020809104026020016040519081016040528092919081815260200182805460018160011615610100020316600290048015610a2d5780601f10610a0257610100808354040283529160200191610a2d565b820191906000526020600020905b815481529060010190602001808311610a1057829003601f168201915b505050505081565b600360009054906101000a900473ffffffffffffffffffffffffffffffffffffffff1681565b60008060009054906101000a900473ffffffffffffffffffffffffffffffffffffffff1673ffffffffffffffffffffffffffffffffffffffff168273ffffffffffffffffffffffffffffffffffffffff16149050919050565b600c5481565b806001811015610b15576040517f08c379a0000000000000000000000000000000000000000000000000000000008152600401808060200182810382526027815260200180612c286027913960400191505060405180910390fd5b81600d548160146000600954815260200190815260200160002060000180549050011115610b8e576040517f08c379a000000000000000000000000000000000000000000000000000000000815260040180806020018281038252602c815260200180612bdb602c913960400191505060405180910390fd5b610b966115a1565b83600e548160166000600954815260200190815260200160002060008573ffffffffffffffffffffffffffffffffffffffff1673ffffffffffffffffffffffffffffffffffffffff16815260200190815260200160002054011115610c46576040517f08c379a0000000000000000000000000000000000000000000000000000000008152600401808060200182810382526031815260200180612c4f6031913960400191505060405180910390fd5b610c4e6115a1565b73ffffffffffffffffffffffffffffffffffffffff163373ffffffffffffffffffffffffffffffffffffffff1614610d425760008054906101000a900473ffffffffffffffffffffffffffffffffffffffff1673ffffffffffffffffffffffffffffffffffffffff163373ffffffffffffffffffffffffffffffffffffffff1614610d41576040517f08c379a000000000000000000000000000000000000000000000000000000000815260040180806020018281038252601f8152602001807f57696e4e676e743a4e6f742061207472757374656420666f727761726465720081525060200191505060405180910390fd5b5b6000610d5986600b546115dd90919063ffffffff16565b9050600060156000610d696115a1565b73ffffffffffffffffffffffffffffffffffffffff1673ffffffffffffffffffffffffffffffffffffffff16815260200190815260200160002054905060006016600060095481526020019081526020016000206000610dc76115a1565b73ffffffffffffffffffffffffffffffffffffffff1673ffffffffffffffffffffffffffffffffffffffff16815260200190815260200160002054905060176000610e106115a1565b73ffffffffffffffffffffffffffffffffffffffff1673ffffffffffffffffffffffffffffffffffffffff16815260200190815260200160002060009054906101000a900460ff16610ee7576000611388905060008111610e715761138890505b610e84818561166390919063ffffffff16565b9350600160176000610e946115a1565b73ffffffffffffffffffffffffffffffffffffffff1673ffffffffffffffffffffffffffffffffffffffff16815260200190815260200160002060006101000a81548160ff021916908315150217905550505b82600760008282540192505081905550600260009054906101000a900473ffffffffffffffffffffffffffffffffffffffff1673ffffffffffffffffffffffffffffffffffffffff166323b872dd610f3d6115a1565b30866040518463ffffffff1660e01b8152600401808473ffffffffffffffffffffffffffffffffffffffff1681526020018373ffffffffffffffffffffffffffffffffffffffff1681526020018281526020019350505050602060405180830381600087803b158015610faf57600080fd5b505af1158015610fc3573d6000803e3d6000fd5b505050506040513d6020811015610fd957600080fd5b8101908080519060200190929190505050508782019150878101905081601560006110026115a1565b73ffffffffffffffffffffffffffffffffffffffff1673ffffffffffffffffffffffffffffffffffffffff168152602001908152602001600020819055508060166000600954815260200190815260200160002060006110606115a1565b73ffffffffffffffffffffffffffffffffffffffff1673ffffffffffffffffffffffffffffffffffffffff168152602001908152602001600020819055506000601460006009548152602001908152602001600020905060005b8981101561113b57816000016110ce6115a1565b9080600181540180825580915050600190039060005260206000200160009091909190916101000a81548173ffffffffffffffffffffffffffffffffffffffff021916908373ffffffffffffffffffffffffffffffffffffffff16021790555080806001019150506110ba565b506111446115a1565b73ffffffffffffffffffffffffffffffffffffffff167f360330060f3e852e9c9989e78f54b5dafc52d2c055662b302d3c7125f077c77a8a86604051808381526020018281526020019250505060405180910390a2600d546014600060095481526020019081526020016000206000018054905014156112b5576010547f000000000000000000000000000000000000000000000000000000000000000073ffffffffffffffffffffffffffffffffffffffff166370a08231306040518263ffffffff1660e01b8152600401808273ffffffffffffffffffffffffffffffffffffffff16815260200191505060206040518083038186803b15801561124857600080fd5b505afa15801561125c573d6000803e3d6000fd5b505050506040513d602081101561127257600080fd5b810190808051906020019092919050505010156112ac5761129a670de0b6b3a76400006116e6565b6112ab67016345785d8a0000611d6c565b5b6112b46121b3565b5b505050505050505050565b60156020528060005260406000206000915090505481565b6016602052816000526040600020602052806000526040600020600091509150505481565b60008054906101000a900473ffffffffffffffffffffffffffffffffffffffff1681565b60186020528060005260406000206000915054906101000a900460ff1681565b600660009054906101000a900473ffffffffffffffffffffffffffffffffffffffff1681565b7f000000000000000000000000000000000000000000000000000000000000000073ffffffffffffffffffffffffffffffffffffffff163373ffffffffffffffffffffffffffffffffffffffff1614611428576040517f08c379a000000000000000000000000000000000000000000000000000000000815260040180806020018281038252601f8152602001807f4f6e6c7920565246436f6f7264696e61746f722063616e2066756c66696c6c0081525060200191505060405180910390fd5b61143282826121f6565b5050565b600f5481565b600260009054906101000a900473ffffffffffffffffffffffffffffffffffffffff1681565b806000806101000a81548173ffffffffffffffffffffffffffffffffffffffff021916908373ffffffffffffffffffffffffffffffffffffffff16021790555050565b60176020528060005260406000206000915054906101000a900460ff1681565b6114cd61232d565b565b60095481565b6000600260009054906101000a900473ffffffffffffffffffffffffffffffffffffffff16905090565b600080601460006009548152602001908152602001600020905060008160000180549050905061153a81600d5461166390919063ffffffff16565b9250505090565b60085481565b600560009054906101000a900473ffffffffffffffffffffffffffffffffffffffff1681565b60075481565b6000806014600060095481526020019081526020016000209050600081600001805490509050809250505090565b600060146000369050101580156115bd57506115bc33610a5b565b5b156115d157601436033560601c90506115d9565b3390506115da565b5b90565b6000808314156115f0576000905061165d565b600082840290508284828161160157fe5b0414611658576040517f08c379a0000000000000000000000000000000000000000000000000000000008152600401808060200182810382526021815260200180612c076021913960400191505060405180910390fd5b809150505b92915050565b6000828211156116db576040517f08c379a000000000000000000000000000000000000000000000000000000000815260040180806020018281038252601e8152602001807f536166654d6174683a207375627472616374696f6e206f766572666c6f77000081525060200191505060405180910390fd5b818303905092915050565b80600260009054906101000a900473ffffffffffffffffffffffffffffffffffffffff1673ffffffffffffffffffffffffffffffffffffffff1663dd62ed3e30600460009054906101000a900473ffffffffffffffffffffffffffffffffffffffff166040518363ffffffff1660e01b8152600401808373ffffffffffffffffffffffffffffffffffffffff1681526020018273ffffffffffffffffffffffffffffffffffffffff1681526020019250505060206040518083038186803b1580156117b057600080fd5b505afa1580156117c4573d6000803e3d6000fd5b505050506040513d60208110156117da57600080fd5b8101908080519060200190929190505050101561190357600260009054906101000a900473ffffffffffffffffffffffffffffffffffffffff1673ffffffffffffffffffffffffffffffffffffffff1663095ea7b3600460009054906101000a900473ffffffffffffffffffffffffffffffffffffffff167fffffffffffffffffffffffffffffffffffffffffffffffffffffffffffffffff6040518363ffffffff1660e01b8152600401808373ffffffffffffffffffffffffffffffffffffffff16815260200182815260200192505050602060405180830381600087803b1580156118c657600080fd5b505af11580156118da573d6000803e3d6000fd5b505050506040513d60208110156118f057600080fd5b8101908080519060200190929190505050505b80600260009054906101000a900473ffffffffffffffffffffffffffffffffffffffff1673ffffffffffffffffffffffffffffffffffffffff166370a08231306040518263ffffffff1660e01b8152600401808273ffffffffffffffffffffffffffffffffffffffff16815260200191505060206040518083038186803b15801561198d57600080fd5b505afa1580156119a1573d6000803e3d6000fd5b505050506040513d60208110156119b757600080fd5b81019080805190602001909291905050501015611a1f576040517f08c379a0000000000000000000000000000000000000000000000000000000008152600401808060200182810382526029815260200180612b306029913960400191505060405180910390fd5b6000600367ffffffffffffffff81118015611a3957600080fd5b50604051908082528060200260200182016040528015611a685781602001602082028036833780820191505090505b509050600260009054906101000a900473ffffffffffffffffffffffffffffffffffffffff16600660009054906101000a900473ffffffffffffffffffffffffffffffffffffffff16600360009054906101000a900473ffffffffffffffffffffffffffffffffffffffff1683600081518110611ae157fe5b6020026020010184600181518110611af557fe5b6020026020010185600281518110611b0957fe5b602002602001018373ffffffffffffffffffffffffffffffffffffffff1673ffffffffffffffffffffffffffffffffffffffff168152508373ffffffffffffffffffffffffffffffffffffffff1673ffffffffffffffffffffffffffffffffffffffff168152508373ffffffffffffffffffffffffffffffffffffffff1673ffffffffffffffffffffffffffffffffffffffff16815250505050600460009054906101000a900473ffffffffffffffffffffffffffffffffffffffff1673ffffffffffffffffffffffffffffffffffffffff166338ed17398360018430600a546040518663ffffffff1660e01b815260040180868152602001858152602001806020018473ffffffffffffffffffffffffffffffffffffffff168152602001838152602001828103825285818151815260200191508051906020019060200280838360005b83811015611c69578082015181840152602081019050611c4e565b505050509050019650505050505050600060405180830381600087803b158015611c9257600080fd5b505af1158015611ca6573d6000803e3d6000fd5b505050506040513d6000823e3d601f19601f820116820180604052506020811015611cd057600080fd5b8101908080516040519392919084640100000000821115611cf057600080fd5b83820191506020820185811115611d0657600080fd5b8251866020820283011164010000000082111715611d2357600080fd5b8083526020830192505050908051906020019060200280838360005b83811015611d5a578082015181840152602081019050611d3f565b50505050905001604052505050505050565b80600360009054906101000a900473ffffffffffffffffffffffffffffffffffffffff1673ffffffffffffffffffffffffffffffffffffffff1663dd62ed3e30600560009054906101000a900473ffffffffffffffffffffffffffffffffffffffff166040518363ffffffff1660e01b8152600401808373ffffffffffffffffffffffffffffffffffffffff1681526020018273ffffffffffffffffffffffffffffffffffffffff1681526020019250505060206040518083038186803b158015611e3657600080fd5b505afa158015611e4a573d6000803e3d6000fd5b505050506040513d6020811015611e6057600080fd5b81019080805190602001909291905050501015611f8957600360009054906101000a900473ffffffffffffffffffffffffffffffffffffffff1673ffffffffffffffffffffffffffffffffffffffff1663095ea7b3600560009054906101000a900473ffffffffffffffffffffffffffffffffffffffff167fffffffffffffffffffffffffffffffffffffffffffffffffffffffffffffffff6040518363ffffffff1660e01b8152600401808373ffffffffffffffffffffffffffffffffffffffff16815260200182815260200192505050602060405180830381600087803b158015611f4c57600080fd5b505af1158015611f60573d6000803e3d6000fd5b505050506040513d6020811015611f7657600080fd5b8101908080519060200190929190505050505b80600360009054906101000a900473ffffffffffffffffffffffffffffffffffffffff1673ffffffffffffffffffffffffffffffffffffffff166370a08231306040518263ffffffff1660e01b8152600401808273ffffffffffffffffffffffffffffffffffffffff16815260200191505060206040518083038186803b15801561201357600080fd5b505afa158015612027573d6000803e3d6000fd5b505050506040513d602081101561203d57600080fd5b810190808051906020019092919050505010156120a5576040517f08c379a000000000000000000000000000000000000000000000000000000000815260040180806020018281038252602f815260200180612b59602f913960400191505060405180910390fd5b600560009054906101000a900473ffffffffffffffffffffffffffffffffffffffff1673ffffffffffffffffffffffffffffffffffffffff16632b7f092382600360009054906101000a900473ffffffffffffffffffffffffffffffffffffffff167f00000000000000000000000000000000000000000000000000000000000000006040518463ffffffff1660e01b8152600401808481526020018373ffffffffffffffffffffffffffffffffffffffff1681526020018273ffffffffffffffffffffffffffffffffffffffff1681526020019350505050600060405180830381600087803b15801561219857600080fd5b505af11580156121ac573d6000803e3d6000fd5b5050505050565b7fce24807f7e4b60b4e641462f13029fa5e5f79075bbc3f8e5cd43ecd19661d7606009546040518082815260200191505060405180910390a16121f461232d565b565b81600115156018600083815260200190815260200160002060009054906101000a900460ff16151514612274576040517f08c379a0000000000000000000000000000000000000000000000000000000008152600401808060200182810382526022815260200180612b886022913960400191505060405180910390fd5b600d54601460006009548152602001908152602001600020600001805490501461229d57600080fd5b6018600084815260200190815260200160002060006101000a81549060ff0219169055600060016122d9600d54856124c590919063ffffffff16565b0190506009547f144f14361fb5bcbf35b044a9528e54f65197cc24874f62c7bc8574ea0b0e612582604051808261ffff16815260200191505060405180910390a26123278161ffff1661254e565b50505050565b6010547f000000000000000000000000000000000000000000000000000000000000000073ffffffffffffffffffffffffffffffffffffffff166370a08231306040518263ffffffff1660e01b8152600401808273ffffffffffffffffffffffffffffffffffffffff16815260200191505060206040518083038186803b1580156123b757600080fd5b505afa1580156123cb573d6000803e3d6000fd5b505050506040513d60208110156123e157600080fd5b81019080805190602001909291905050501015612449576040517f08c379a0000000000000000000000000000000000000000000000000000000008152600401808060200182810382526031815260200180612baa6031913960400191505060405180910390fd5b600061245a6013546010544261276e565b905060016018600083815260200190815260200160002060006101000a81548160ff0219169083151502179055506009547fb28c123b0720a067cc8c475aa3357f6fa1609d966314555a907a47b17c74278c826040518082815260200191505060405180910390a250565b600080821161253c576040517f08c379a00000000000000000000000000000000000000000000000000000000081526004018080602001828103825260188152602001807f536166654d6174683a206d6f64756c6f206279207a65726f000000000000000081525060200191505060405180910390fd5b81838161254557fe5b06905092915050565b60006014600060095481526020019081526020016000209050600081600001838154811061257857fe5b9060005260206000200160009054906101000a900473ffffffffffffffffffffffffffffffffffffffff169050808260010160006101000a81548173ffffffffffffffffffffffffffffffffffffffff021916908373ffffffffffffffffffffffffffffffffffffffff16021790555060006126136064612605605a6007546115dd90919063ffffffff16565b61296590919063ffffffff16565b905061262a8160075461166390919063ffffffff16565b6008600082825401925050819055506126416129ee565b600260009054906101000a900473ffffffffffffffffffffffffffffffffffffffff1673ffffffffffffffffffffffffffffffffffffffff1663a9059cbb83836040518363ffffffff1660e01b8152600401808373ffffffffffffffffffffffffffffffffffffffff16815260200182815260200192505050602060405180830381600087803b1580156126d457600080fd5b505af11580156126e8573d6000803e3d6000fd5b505050506040513d60208110156126fe57600080fd5b8101908080519060200190929190505050506009547f866efae43947560fe9d0de9013bc323d5718730d5c1543261b48a7bcb0717b938383604051808373ffffffffffffffffffffffffffffffffffffffff1681526020018281526020019250505060405180910390a250505050565b60007f000000000000000000000000000000000000000000000000000000000000000073ffffffffffffffffffffffffffffffffffffffff16634000aea07f000000000000000000000000000000000000000000000000000000000000000085878660405160200180838152602001828152602001925050506040516020818303038152906040526040518463ffffffff1660e01b8152600401808473ffffffffffffffffffffffffffffffffffffffff16815260200183815260200180602001828103825283818151815260200191508051906020019080838360005b8381101561286757808201518184015260208101905061284c565b50505050905090810190601f1680156128945780820380516001836020036101000a031916815260200191505b50945050505050602060405180830381600087803b1580156128b557600080fd5b505af11580156128c9573d6000803e3d6000fd5b505050506040513d60208110156128df57600080fd5b8101908080519060200190929190505050506000612912858430600160008a815260200190815260200160002054612a0a565b905061293a600180600088815260200190815260200160002054612a6e90919063ffffffff16565b600160008781526020019081526020016000208190555061295b8582612af6565b9150509392505050565b60008082116129dc576040517f08c379a000000000000000000000000000000000000000000000000000000000815260040180806020018281038252601a8152602001807f536166654d6174683a206469766973696f6e206279207a65726f00000000000081525060200191505060405180910390fd5b8183816129e557fe5b04905092915050565b6009600081548092919060010191905055506000600781905550565b600084848484604051602001808581526020018481526020018373ffffffffffffffffffffffffffffffffffffffff1681526020018281526020019450505050506040516020818303038152906040528051906020012060001c9050949350505050565b600080828401905083811015612aec576040517f08c379a000000000000000000000000000000000000000000000000000000000815260040180806020018281038252601b8152602001807f536166654d6174683a206164646974696f6e206f766572666c6f77000000000081525060200191505060405180910390fd5b8091505092915050565b6000828260405160200180838152602001828152602001925050506040516020818303038152906040528051906020012090509291505056fe57696e4e676e743a204e474e542062616c616e6365206e6f7420656e6f75676820666f72207377617057696e4e676e743a204552433230204c494e4b2062616c616e6365206e6f7420656e6f75676820666f72207377617057696e4e676e743a5175657279496420686173206265656e2070726f63657373656457696e4e676e743a20455243363737204c494e4b2062616c616e6365206e6f7420656e6f75676820666f7220717565727957696e4e676e743a546f74616c207469636b6574207065722067616d65206c696d6974206578636565646564536166654d6174683a206d756c7469706c69636174696f6e206f766572666c6f7757696e4e676e743a43616e6e6f7420627579206c657373207468616e206f6e65207469636b657457696e4e676e743a4d6178696d756d207469636b6574206c696d6974207065722061646472657373206578636565646564a26469706673582212203d85f4478296306ac601d4700a9b3ef898574633f2174f974409196767aee89c64736f6c63430007060033322e322e302b6f70656e67736e2e73616d706c652e6972656c6179726563697069656e74",
  "immutableReferences": {
    "1330": [
      {
        "length": 32,
        "start": 4547
      },
      {
        "length": 32,
        "start": 8457
      },
      {
        "length": 32,
        "start": 9010
      },
      {
        "length": 32,
        "start": 10098
      }
    ],
    "1332": [
      {
        "length": 32,
        "start": 4969
      },
      {
        "length": 32,
        "start": 10158
      }
    ]
  },
  "source": "// SPDX-License-Identifier:MIT\npragma solidity 0.7.6;\n\nimport \"@openzeppelin/contracts/token/ERC20/IERC20.sol\";\nimport \"./interfaces/IPancakeRouter02.sol\";\nimport \"./interfaces/IPegswap.sol\";\nimport \"@openzeppelin/contracts/math/SafeMath.sol\";\nimport \"@opengsn/contracts/src/BaseRelayRecipient.sol\";\nimport \"@chainlink/contracts/src/v0.7/dev/VRFConsumerBase.sol\";\n\ncontract WinNgnt is BaseRelayRecipient, VRFConsumerBase {\n    using SafeMath for uint256;\n\n    IERC20 public NGNT;\n    //ERC20 version of original ERC677 token\n    IERC20 public LINK_ERC20;\n    IPancakeRouter02 private pancakeswap;\n    IPegswap public pegswap;\n\n    address public WBNB;\n    uint256 public TOTAL_NGNT = 0;\n\n    struct Game {\n        address[] tickets;\n        address gameWinner;\n    }\n\n    uint256 public commission;\n    uint256 public gameNumber = 1;\n    uint256 public deadline = 1742680400;\n    uint256 public ticketPrice = 50000;\n    uint256 public minimumEther = 1 wei;\n    uint256 public maximumPurchasableTickets = 250;\n    uint256 public maximumTicketsPerAddress = 10;\n    uint256 public targetAmount = 1000000000000000000;\n    uint256 internal chainLinkFee;\n\n    bool public exchangeContractApproval;\n\n    string public override versionRecipient =\n        \"2.2.0+opengsn.sample.irelayrecipient\";\n\n    bytes32 internal keyHash;\n\n    mapping(uint256 => Game) public games;\n    mapping(address => uint256) public addressTicketCount;\n    mapping(uint256 => mapping(address => uint256))\n        public addressTicketCountPerGame;\n    mapping(address => bool) public addressHasPaidGsnFee;\n    mapping(bytes32 => bool) public pendingQueries;\n\n    event GameEnded(uint256 gameNumber);\n    event BoughtTicket(\n        address indexed buyer,\n        uint256 numOfTickets,\n        uint256 totalTicketPrice\n    );\n    event RandomNumberQuerySent(bytes32 queryId, uint256 indexed gameNumber);\n    event RandomNumberGenerated(\n        uint16 randomNumber,\n        uint256 indexed gameNumber\n    );\n    event WinnerSelected(\n        address winner,\n        uint256 amount,\n        uint256 indexed gameNumber\n    );\n\n    modifier atLeastOneTicket(uint256 numberOfTickets) {\n        require(\n            numberOfTickets >= 1,\n            \"WinNgnt:Cannot buy less than one ticket\"\n        );\n        _;\n    }\n\n    modifier ticketLimitNotExceed(uint256 numberOfTickets) {\n        require(\n            (games[gameNumber].tickets.length + numberOfTickets) <=\n                maximumPurchasableTickets,\n            \"WinNgnt:Total ticket per game limit exceeded\"\n        );\n        _;\n    }\n\n    modifier maxTicketPerAddressLimitNotExceed(\n        address _address,\n        uint256 numberOfTickets\n    ) {\n        require(\n            (addressTicketCountPerGame[gameNumber][_address] +\n                numberOfTickets) <= maximumTicketsPerAddress,\n            \"WinNgnt:Maximum ticket limit per address exceeded\"\n        );\n        _;\n    }\n\n    modifier queryIdHasNotBeenProcessed(bytes32 queryId) {\n        require(\n            pendingQueries[queryId] == true,\n            \"WinNgnt:QueryId has been processed\"\n        );\n        _;\n    }\n\n    modifier checkTrustedForwarder() {\n        if (msg.sender != _msgSender()) {\n            require(\n                msg.sender == trustedForwarder,\n                \"WinNgnt:Not a trusted forwarder\"\n            );\n        }\n        _;\n    }\n\n    constructor(\n        IERC20 _NGNT,\n        uint256 _maximumPurchasableTickets,\n        IPegswap _pegswap,\n        IERC20 _LINK_ERC20,\n        address _WBNB,\n        IPancakeRouter02 _pancakeswap\n    )\n        VRFConsumerBase(\n            0xa555fC018435bef5A13C6c6870a9d4C11DEC329C,\n            0x84b9B910527Ad5C03A9Ca831909E21e236EA7b06\n        )\n    {\n        NGNT = _NGNT;\n        pegswap = _pegswap;\n        LINK_ERC20 = _LINK_ERC20;\n        WBNB = _WBNB;\n        pancakeswap = _pancakeswap;\n        maximumPurchasableTickets = _maximumPurchasableTickets;\n        keyHash = 0xcaf3c3727e033261d383b315559476f48034c13b18f8cafed4d871abe5049186;\n        chainLinkFee = 0.1 * 1e18;\n    }\n\n    function buyTicket(uint256 numberOfTickets)\n        external\n        atLeastOneTicket(numberOfTickets)\n        ticketLimitNotExceed(numberOfTickets)\n        maxTicketPerAddressLimitNotExceed(_msgSender(), numberOfTickets)\n        checkTrustedForwarder\n    {\n        uint256 totalTicketPrice = ticketPrice.mul(numberOfTickets);\n        uint256 totalAddressTicketCount = addressTicketCount[_msgSender()];\n        uint256 totalAddressTicketCountPerGame =\n            addressTicketCountPerGame[gameNumber][_msgSender()];\n\n        if (!addressHasPaidGsnFee[_msgSender()]) {\n            //uint gsnFee = NGNT.gsnFee();\n            uint256 gsnFee = 5000;\n            if (gsnFee <= 0) {\n                gsnFee = 5000;\n            }\n\n            totalTicketPrice = totalTicketPrice.sub(gsnFee);\n            addressHasPaidGsnFee[_msgSender()] = true;\n        }\n\n        TOTAL_NGNT += totalTicketPrice;\n        NGNT.transferFrom(_msgSender(), address(this), totalTicketPrice);\n\n        totalAddressTicketCount += numberOfTickets;\n        totalAddressTicketCountPerGame += numberOfTickets;\n\n        addressTicketCount[_msgSender()] = totalAddressTicketCount;\n        addressTicketCountPerGame[gameNumber][\n            _msgSender()\n        ] = totalAddressTicketCountPerGame;\n\n        Game storage game = games[gameNumber];\n        for (uint256 i = 0; i < numberOfTickets; i++) {\n            game.tickets.push(_msgSender());\n        }\n\n        emit BoughtTicket(_msgSender(), numberOfTickets, totalTicketPrice);\n\n        if (games[gameNumber].tickets.length == maximumPurchasableTickets) {\n            // if(gameNumber.mod(5) == 0){\n            //     swapNgntForEth();\n            //     fundRecipient();\n            // }\n            if (LINK.balanceOf(address(this)) < chainLinkFee) {\n                swapNGNTForLINK_ERC20(1e18);\n                swapLINK_ERC20ForERC677(1e17);\n            }\n            endGame();\n        }\n    }\n\n    function numberOfTicketsLeft() external view returns (uint256) {\n        Game storage game = games[gameNumber];\n        uint256 ticketsBought = game.tickets.length;\n        return maximumPurchasableTickets.sub(ticketsBought);\n    }\n\n    function numberOfTicketsPurchased() external view returns (uint256) {\n        Game storage game = games[gameNumber];\n        uint256 ticketsBought = game.tickets.length;\n        return ticketsBought;\n    }\n\n    function getNgntAddress() external view returns (address) {\n        return address(NGNT);\n    }\n\n    function fulfillRandomness(bytes32 queryId, uint256 randomness)\n        internal\n        override\n        queryIdHasNotBeenProcessed(queryId)\n    {\n        require(games[gameNumber].tickets.length == maximumPurchasableTickets);\n        delete pendingQueries[queryId];\n        uint16 randomIndex =\n            uint16(randomness.mod(maximumPurchasableTickets) + 1);\n\n        emit RandomNumberGenerated(randomIndex, gameNumber);\n        sendNgntToWinner(randomIndex);\n    }\n\n    function generateRandomNumber() private {\n        require(\n            LINK.balanceOf(address(this)) >= chainLinkFee,\n            \"WinNgnt: ERC677 LINK balance not enough for query\"\n        );\n        bytes32 queryId =\n            requestRandomness(keyHash, chainLinkFee, block.timestamp);\n        pendingQueries[queryId] = true;\n        emit RandomNumberQuerySent(queryId, gameNumber);\n    }\n\n    function startNextGame() public {\n        generateRandomNumber();\n    }\n\n    function sendNgntToWinner(uint256 randomIndex) private {\n        Game storage game = games[gameNumber];\n        address winner = game.tickets[randomIndex];\n        game.gameWinner = winner;\n\n        uint256 amountWon = TOTAL_NGNT.mul(90).div(100);\n        commission += TOTAL_NGNT.sub(amountWon);\n        resetGame();\n        NGNT.transfer(winner, amountWon);\n\n        emit WinnerSelected(winner, amountWon, gameNumber);\n    }\n\n    function fundRecipient() private {\n        //uint relayBalance = _relayHub.balanceOf(address(this));\n        // if(relayBalance < targetAmount){\n        //     uint amountDifference = targetAmount.sub(relayBalance);\n        //     if(address(this).balance > amountDifference){\n        //         _relayHub.depositFor.value(amountDifference)(address(this));\n        //     }else{\n        //         _relayHub.depositFor.value(address(this).balance)(address(this));\n        //     }\n        // }\n    }\n\n    function swapNGNTForLINK_ERC20(uint256 _amount) private {\n        if (NGNT.allowance(address(this), address(pancakeswap)) < _amount) {\n            NGNT.approve(address(pancakeswap), type(uint256).max);\n        }\n\n        require(\n            NGNT.balanceOf(address(this)) >= _amount,\n            \"WinNgnt: NGNT balance not enough for swap\"\n        );\n        address[] memory path = new address[](3);\n        (path[0], path[1], path[2]) = (\n            address(NGNT),\n            WBNB,\n            address(LINK_ERC20)\n        );\n        pancakeswap.swapExactTokensForTokens(\n            _amount,\n            1,\n            path,\n            address(this),\n            deadline\n        );\n    }\n\n    function swapLINK_ERC20ForERC677(uint256 _amount) private {\n        if (LINK_ERC20.allowance(address(this), address(pegswap)) < _amount) {\n            LINK_ERC20.approve(address(pegswap), type(uint256).max);\n        }\n\n        require(\n            LINK_ERC20.balanceOf(address(this)) >= _amount,\n            \"WinNgnt: ERC20 LINK balance not enough for swap\"\n        );\n        pegswap.swap(_amount, address(LINK_ERC20), address(LINK));\n    }\n\n    function resetGame() private {\n        gameNumber++;\n        TOTAL_NGNT = 0;\n    }\n\n    function endGame() private {\n        emit GameEnded(gameNumber);\n        generateRandomNumber();\n    }\n\n    function setForwarder(address _forwarder) public {\n        trustedForwarder = _forwarder;\n    }\n\n    receive() external payable {}\n}\n",
  "sourcePath": "/home/nonseodion/Desktop/win-ngnt/contracts/WinNgnt.sol",
  "compiler": {
    "name": "solc",
    "version": "0.7.6+commit.7338295f.Emscripten.clang"
  },
  "schemaVersion": "3.3.4",
  "updatedAt": "2021-06-02T17:38:25.962Z",
  "devdoc": {
    "kind": "dev",
    "methods": {},
    "version": 1
  },
  "userdoc": {
    "kind": "user",
    "methods": {
      "isTrustedForwarder(address)": {
        "notice": "return if the forwarder is trusted to forward relayed transactions to us. the forwarder is required to verify the sender's signature, and verify the call is not a replay."
      }
    },
    "version": 1
  }
}