{
  "contractName": "WinNgnt",
  "abi": [
    {
      "inputs": [
        {
          "internalType": "contract NGNTContract",
          "name": "_NGNT",
          "type": "address"
        },
        {
          "internalType": "contract IPegswap",
          "name": "_pegswap",
          "type": "address"
        },
        {
          "internalType": "contract IERC20",
          "name": "_LINK_ERC20",
          "type": "address"
        },
        {
          "internalType": "address",
          "name": "_WBNB",
          "type": "address"
        },
        {
          "internalType": "contract IPancakeRouter02",
          "name": "_pancakeswap",
          "type": "address"
        },
        {
          "internalType": "address",
          "name": "_vrfCoordinator",
          "type": "address"
        },
        {
          "internalType": "address",
          "name": "_LINK_ERC677",
          "type": "address"
        },
        {
          "internalType": "address",
          "name": "_trustedForwarder",
          "type": "address"
        },
        {
          "internalType": "uint256",
          "name": "_maximumPurchasableTickets",
          "type": "uint256"
        }
      ],
      "stateMutability": "nonpayable",
      "type": "constructor"
    },
    {
      "anonymous": false,
      "inputs": [
        {
          "indexed": true,
          "internalType": "address",
          "name": "buyer",
          "type": "address"
        },
        {
          "indexed": false,
          "internalType": "uint256",
          "name": "numOfTickets",
          "type": "uint256"
        },
        {
          "indexed": false,
          "internalType": "uint256",
          "name": "totalTicketPrice",
          "type": "uint256"
        }
      ],
      "name": "BoughtTicket",
      "type": "event"
    },
    {
      "anonymous": false,
      "inputs": [
        {
          "indexed": false,
          "internalType": "uint256",
          "name": "gameNumber",
          "type": "uint256"
        }
      ],
      "name": "GameEnded",
      "type": "event"
    },
    {
      "anonymous": false,
      "inputs": [
        {
          "indexed": false,
          "internalType": "uint16",
          "name": "randomNumber",
          "type": "uint16"
        },
        {
          "indexed": true,
          "internalType": "uint256",
          "name": "gameNumber",
          "type": "uint256"
        }
      ],
      "name": "RandomNumberGenerated",
      "type": "event"
    },
    {
      "anonymous": false,
      "inputs": [
        {
          "indexed": false,
          "internalType": "bytes32",
          "name": "queryId",
          "type": "bytes32"
        },
        {
          "indexed": true,
          "internalType": "uint256",
          "name": "gameNumber",
          "type": "uint256"
        }
      ],
      "name": "RandomNumberQuerySent",
      "type": "event"
    },
    {
      "anonymous": false,
      "inputs": [
        {
          "indexed": false,
          "internalType": "address",
          "name": "winner",
          "type": "address"
        },
        {
          "indexed": false,
          "internalType": "uint256",
          "name": "amount",
          "type": "uint256"
        },
        {
          "indexed": true,
          "internalType": "uint256",
          "name": "gameNumber",
          "type": "uint256"
        }
      ],
      "name": "WinnerSelected",
      "type": "event"
    },
    {
      "inputs": [],
      "name": "LINK_ERC20",
      "outputs": [
        {
          "internalType": "contract IERC20",
          "name": "",
          "type": "address"
        }
      ],
      "stateMutability": "view",
      "type": "function"
    },
    {
      "inputs": [],
      "name": "NGNT",
      "outputs": [
        {
          "internalType": "contract NGNTContract",
          "name": "",
          "type": "address"
        }
      ],
      "stateMutability": "view",
      "type": "function"
    },
    {
      "inputs": [],
      "name": "TOTAL_NGNT",
      "outputs": [
        {
          "internalType": "uint256",
          "name": "",
          "type": "uint256"
        }
      ],
      "stateMutability": "view",
      "type": "function"
    },
    {
      "inputs": [],
      "name": "WBNB",
      "outputs": [
        {
          "internalType": "address",
          "name": "",
          "type": "address"
        }
      ],
      "stateMutability": "view",
      "type": "function"
    },
    {
      "inputs": [
        {
          "internalType": "address",
          "name": "",
          "type": "address"
        }
      ],
      "name": "addressTicketCount",
      "outputs": [
        {
          "internalType": "uint256",
          "name": "",
          "type": "uint256"
        }
      ],
      "stateMutability": "view",
      "type": "function"
    },
    {
      "inputs": [
        {
          "internalType": "uint256",
          "name": "",
          "type": "uint256"
        },
        {
          "internalType": "address",
          "name": "",
          "type": "address"
        }
      ],
      "name": "addressTicketCountPerGame",
      "outputs": [
        {
          "internalType": "uint256",
          "name": "",
          "type": "uint256"
        }
      ],
      "stateMutability": "view",
      "type": "function"
    },
    {
      "inputs": [],
      "name": "commission",
      "outputs": [
        {
          "internalType": "uint256",
          "name": "",
          "type": "uint256"
        }
      ],
      "stateMutability": "view",
      "type": "function"
    },
    {
      "inputs": [],
      "name": "gameNumber",
      "outputs": [
        {
          "internalType": "uint256",
          "name": "",
          "type": "uint256"
        }
      ],
      "stateMutability": "view",
      "type": "function"
    },
    {
      "inputs": [
        {
          "internalType": "uint256",
          "name": "",
          "type": "uint256"
        }
      ],
      "name": "games",
      "outputs": [
        {
          "internalType": "address",
          "name": "gameWinner",
          "type": "address"
        }
      ],
      "stateMutability": "view",
      "type": "function"
    },
    {
      "inputs": [
        {
          "internalType": "address",
          "name": "forwarder",
          "type": "address"
        }
      ],
      "name": "isTrustedForwarder",
      "outputs": [
        {
          "internalType": "bool",
          "name": "",
          "type": "bool"
        }
      ],
      "stateMutability": "view",
      "type": "function"
    },
    {
      "inputs": [],
      "name": "maximumPurchasableTickets",
      "outputs": [
        {
          "internalType": "uint256",
          "name": "",
          "type": "uint256"
        }
      ],
      "stateMutability": "view",
      "type": "function"
    },
    {
      "inputs": [],
      "name": "maximumTicketsPerAddress",
      "outputs": [
        {
          "internalType": "uint256",
          "name": "",
          "type": "uint256"
        }
      ],
      "stateMutability": "view",
      "type": "function"
    },
    {
      "inputs": [],
      "name": "pegswap",
      "outputs": [
        {
          "internalType": "contract IPegswap",
          "name": "",
          "type": "address"
        }
      ],
      "stateMutability": "view",
      "type": "function"
    },
    {
      "inputs": [
        {
          "internalType": "bytes32",
          "name": "",
          "type": "bytes32"
        }
      ],
      "name": "pendingQueries",
      "outputs": [
        {
          "internalType": "bool",
          "name": "",
          "type": "bool"
        }
      ],
      "stateMutability": "view",
      "type": "function"
    },
    {
      "inputs": [
        {
          "internalType": "bytes32",
          "name": "requestId",
          "type": "bytes32"
        },
        {
          "internalType": "uint256",
          "name": "randomness",
          "type": "uint256"
        }
      ],
      "name": "rawFulfillRandomness",
      "outputs": [],
      "stateMutability": "nonpayable",
      "type": "function"
    },
    {
      "inputs": [],
      "name": "ticketPrice",
      "outputs": [
        {
          "internalType": "uint256",
          "name": "",
          "type": "uint256"
        }
      ],
      "stateMutability": "view",
      "type": "function"
    },
    {
      "inputs": [],
      "name": "trustedForwarder",
      "outputs": [
        {
          "internalType": "address",
          "name": "",
          "type": "address"
        }
      ],
      "stateMutability": "view",
      "type": "function"
    },
    {
      "inputs": [],
      "name": "versionRecipient",
      "outputs": [
        {
          "internalType": "string",
          "name": "",
          "type": "string"
        }
      ],
      "stateMutability": "view",
      "type": "function"
    },
    {
      "stateMutability": "payable",
      "type": "receive"
    },
    {
      "inputs": [
        {
          "internalType": "uint256",
          "name": "numberOfTickets",
          "type": "uint256"
        }
      ],
      "name": "buyTicket",
      "outputs": [],
      "stateMutability": "nonpayable",
      "type": "function"
    },
    {
      "inputs": [],
      "name": "numberOfTicketsLeft",
      "outputs": [
        {
          "internalType": "uint256",
          "name": "",
          "type": "uint256"
        }
      ],
      "stateMutability": "view",
      "type": "function"
    },
    {
      "inputs": [],
      "name": "numberOfTicketsPurchased",
      "outputs": [
        {
          "internalType": "uint256",
          "name": "",
          "type": "uint256"
        }
      ],
      "stateMutability": "view",
      "type": "function"
    },
    {
      "inputs": [],
      "name": "getNgntAddress",
      "outputs": [
        {
          "internalType": "address",
          "name": "",
          "type": "address"
        }
      ],
      "stateMutability": "view",
      "type": "function"
    },
    {
      "inputs": [],
      "name": "startNextGame",
      "outputs": [],
      "stateMutability": "nonpayable",
      "type": "function"
    }
  ],
  "bytecode": "0x60c06040526000600755600160095561c350600a5560fa600b5560fa600c55611388600d5560405180606001604052806025815260200162002fa860259139600f90805190602001906200005592919062000331565b503480156200006357600080fd5b5060405162002fcd38038062002fcd83398181016040526101208110156200008a57600080fd5b8101908080519060200190929190805190602001909291908051906020019092919080519060200190929190805190602001909291908051906020019092919080519060200190929190805190602001909291908051906020019092919050505083838173ffffffffffffffffffffffffffffffffffffffff1660a08173ffffffffffffffffffffffffffffffffffffffff1660601b815250508073ffffffffffffffffffffffffffffffffffffffff1660808173ffffffffffffffffffffffffffffffffffffffff1660601b81525050505088600260006101000a81548173ffffffffffffffffffffffffffffffffffffffff021916908373ffffffffffffffffffffffffffffffffffffffff16021790555087600560006101000a81548173ffffffffffffffffffffffffffffffffffffffff021916908373ffffffffffffffffffffffffffffffffffffffff16021790555086600360006101000a81548173ffffffffffffffffffffffffffffffffffffffff021916908373ffffffffffffffffffffffffffffffffffffffff16021790555085600660006101000a81548173ffffffffffffffffffffffffffffffffffffffff021916908373ffffffffffffffffffffffffffffffffffffffff16021790555084600460006101000a81548173ffffffffffffffffffffffffffffffffffffffff021916908373ffffffffffffffffffffffffffffffffffffffff16021790555080600b819055507fcaf3c3727e033261d383b315559476f48034c13b18f8cafed4d871abe504918660001b6010819055506702c68af0bb140000600e81905550816000806101000a81548173ffffffffffffffffffffffffffffffffffffffff021916908373ffffffffffffffffffffffffffffffffffffffff160217905550505050505050505050620003e7565b828054600181600116156101000203166002900490600052602060002090601f016020900481019282620003695760008555620003b5565b82601f106200038457805160ff1916838001178555620003b5565b82800160010185558215620003b5579182015b82811115620003b457825182559160200191906001019062000397565b5b509050620003c49190620003c8565b5090565b5b80821115620003e3576000816000905550600101620003c9565b5090565b60805160601c60a05160601c612b7e6200042a6000398061134752806126a0525080610e505280611e785280611f60528061216c52806126645250612b7e6000f3fe6080604052600436106101445760003560e01c806389a2cdcb116100b6578063dc0ed8541161006f578063dc0ed85414610618578063e138cd3a14610659578063e148919114610684578063f009451e146106af578063fbbfa574146106f0578063fdb0a43e1461071b5761014b565b806389a2cdcb146104be5780638dd950021461050f57806394985ddd1461055057806395a0b7c314610595578063d809d248146105d6578063d8d40cee146105ed5761014b565b8063538d002811610108578063538d0028146102c6578063572b6c051461030757806367dd74ca1461036e578063720927dc146103a9578063758fbbee1461040e5780637da0a8771461047d5761014b565b80630cba0be014610150578063117a5b901461017b5780631209b1f6146101e05780633fadcc661461020b578063486ff0cd146102365761014b565b3661014b57005b600080fd5b34801561015c57600080fd5b50610165610746565b6040518082815260200191505060405180910390f35b34801561018757600080fd5b506101b46004803603602081101561019e57600080fd5b810190808035906020019092919050505061074c565b604051808273ffffffffffffffffffffffffffffffffffffffff16815260200191505060405180910390f35b3480156101ec57600080fd5b506101f561078a565b6040518082815260200191505060405180910390f35b34801561021757600080fd5b50610220610790565b6040518082815260200191505060405180910390f35b34801561024257600080fd5b5061024b610796565b6040518080602001828103825283818151815260200191508051906020019080838360005b8381101561028b578082015181840152602081019050610270565b50505050905090810190601f1680156102b85780820380516001836020036101000a031916815260200191505b509250505060405180910390f35b3480156102d257600080fd5b506102db610834565b604051808273ffffffffffffffffffffffffffffffffffffffff16815260200191505060405180910390f35b34801561031357600080fd5b506103566004803603602081101561032a57600080fd5b81019080803573ffffffffffffffffffffffffffffffffffffffff16906020019092919050505061085a565b60405180821515815260200191505060405180910390f35b34801561037a57600080fd5b506103a76004803603602081101561039157600080fd5b81019080803590602001909291905050506108b3565b005b3480156103b557600080fd5b506103f8600480360360208110156103cc57600080fd5b81019080803573ffffffffffffffffffffffffffffffffffffffff16906020019092919050505061129e565b6040518082815260200191505060405180910390f35b34801561041a57600080fd5b506104676004803603604081101561043157600080fd5b8101908080359060200190929190803573ffffffffffffffffffffffffffffffffffffffff1690602001909291905050506112b6565b6040518082815260200191505060405180910390f35b34801561048957600080fd5b506104926112db565b604051808273ffffffffffffffffffffffffffffffffffffffff16815260200191505060405180910390f35b3480156104ca57600080fd5b506104f7600480360360208110156104e157600080fd5b81019080803590602001909291905050506112ff565b60405180821515815260200191505060405180910390f35b34801561051b57600080fd5b5061052461131f565b604051808273ffffffffffffffffffffffffffffffffffffffff16815260200191505060405180910390f35b34801561055c57600080fd5b506105936004803603604081101561057357600080fd5b810190808035906020019092919080359060200190929190505050611345565b005b3480156105a157600080fd5b506105aa611414565b604051808273ffffffffffffffffffffffffffffffffffffffff16815260200191505060405180910390f35b3480156105e257600080fd5b506105eb61143a565b005b3480156105f957600080fd5b50610602611444565b6040518082815260200191505060405180910390f35b34801561062457600080fd5b5061062d61144a565b604051808273ffffffffffffffffffffffffffffffffffffffff16815260200191505060405180910390f35b34801561066557600080fd5b5061066e611474565b6040518082815260200191505060405180910390f35b34801561069057600080fd5b506106996114b6565b6040518082815260200191505060405180910390f35b3480156106bb57600080fd5b506106c46114bc565b604051808273ffffffffffffffffffffffffffffffffffffffff16815260200191505060405180910390f35b3480156106fc57600080fd5b506107056114e2565b6040518082815260200191505060405180910390f35b34801561072757600080fd5b506107306114e8565b6040518082815260200191505060405180910390f35b600c5481565b60116020528060005260406000206000915090508060010160009054906101000a900473ffffffffffffffffffffffffffffffffffffffff16905081565b600a5481565b600b5481565b600f8054600181600116156101000203166002900480601f01602080910402602001604051908101604052809291908181526020018280546001816001161561010002031660029004801561082c5780601f106108015761010080835404028352916020019161082c565b820191906000526020600020905b81548152906001019060200180831161080f57829003601f168201915b505050505081565b600360009054906101000a900473ffffffffffffffffffffffffffffffffffffffff1681565b60008060009054906101000a900473ffffffffffffffffffffffffffffffffffffffff1673ffffffffffffffffffffffffffffffffffffffff168273ffffffffffffffffffffffffffffffffffffffff16149050919050565b80600181101561090e576040517f08c379a0000000000000000000000000000000000000000000000000000000008152600401808060200182810382526027815260200180612ac06027913960400191505060405180910390fd5b81600b548160116000600954815260200190815260200160002060000180549050011115610987576040517f08c379a000000000000000000000000000000000000000000000000000000000815260040180806020018281038252602c815260200180612a73602c913960400191505060405180910390fd5b61098f611516565b83600c548160136000600954815260200190815260200160002060008573ffffffffffffffffffffffffffffffffffffffff1673ffffffffffffffffffffffffffffffffffffffff16815260200190815260200160002054011115610a3f576040517f08c379a0000000000000000000000000000000000000000000000000000000008152600401808060200182810382526031815260200180612ae76031913960400191505060405180910390fd5b6000610a5686600a5461155290919063ffffffff16565b9050600060126000610a66611516565b73ffffffffffffffffffffffffffffffffffffffff1673ffffffffffffffffffffffffffffffffffffffff16815260200190815260200160002054905060006013600060095481526020019081526020016000206000610ac4611516565b73ffffffffffffffffffffffffffffffffffffffff1673ffffffffffffffffffffffffffffffffffffffff168152602001908152602001600020549050600260009054906101000a900473ffffffffffffffffffffffffffffffffffffffff1673ffffffffffffffffffffffffffffffffffffffff166323b872dd610b47611516565b30866040518463ffffffff1660e01b8152600401808473ffffffffffffffffffffffffffffffffffffffff1681526020018373ffffffffffffffffffffffffffffffffffffffff1681526020018281526020019350505050602060405180830381600087803b158015610bb957600080fd5b505af1158015610bcd573d6000803e3d6000fd5b505050506040513d6020811015610be357600080fd5b8101908080519060200190929190505050506000610c0c89600d5461155290919063ffffffff16565b9050610c2181856115d890919063ffffffff16565b9350610c388160085461165b90919063ffffffff16565b600881905550610c538460075461165b90919063ffffffff16565b600781905550610c6c898461165b90919063ffffffff16565b9250610c81898361165b90919063ffffffff16565b91508260126000610c90611516565b73ffffffffffffffffffffffffffffffffffffffff1673ffffffffffffffffffffffffffffffffffffffff16815260200190815260200160002081905550816013600060095481526020019081526020016000206000610cee611516565b73ffffffffffffffffffffffffffffffffffffffff1673ffffffffffffffffffffffffffffffffffffffff168152602001908152602001600020819055506000601160006009548152602001908152602001600020905060005b8a811015610dc95781600001610d5c611516565b9080600181540180825580915050600190039060005260206000200160009091909190916101000a81548173ffffffffffffffffffffffffffffffffffffffff021916908373ffffffffffffffffffffffffffffffffffffffff1602179055508080600101915050610d48565b50610dd2611516565b73ffffffffffffffffffffffffffffffffffffffff167f360330060f3e852e9c9989e78f54b5dafc52d2c055662b302d3c7125f077c77a8b87604051808381526020018281526020019250505060405180910390a2600b546011600060095481526020019081526020016000206000018054905014156112925760007f000000000000000000000000000000000000000000000000000000000000000073ffffffffffffffffffffffffffffffffffffffff166370a08231306040518263ffffffff1660e01b8152600401808273ffffffffffffffffffffffffffffffffffffffff16815260200191505060206040518083038186803b158015610ed557600080fd5b505afa158015610ee9573d6000803e3d6000fd5b505050506040513d6020811015610eff57600080fd5b81019080805190602001909291905050509050600e5481101561128857600081600e540390506000600367ffffffffffffffff81118015610f3f57600080fd5b50604051908082528060200260200182016040528015610f6e5781602001602082028036833780820191505090505b509050600260009054906101000a900473ffffffffffffffffffffffffffffffffffffffff16600660009054906101000a900473ffffffffffffffffffffffffffffffffffffffff16600360009054906101000a900473ffffffffffffffffffffffffffffffffffffffff1683600081518110610fe757fe5b6020026020010184600181518110610ffb57fe5b602002602001018560028151811061100f57fe5b602002602001018373ffffffffffffffffffffffffffffffffffffffff1673ffffffffffffffffffffffffffffffffffffffff168152508373ffffffffffffffffffffffffffffffffffffffff1673ffffffffffffffffffffffffffffffffffffffff168152508373ffffffffffffffffffffffffffffffffffffffff1673ffffffffffffffffffffffffffffffffffffffff168152505050506000600460009054906101000a900473ffffffffffffffffffffffffffffffffffffffff1673ffffffffffffffffffffffffffffffffffffffff16631f00ca7484846040518363ffffffff1660e01b81526004018083815260200180602001828103825283818151815260200191508051906020019060200280838360005b83811015611143578082015181840152602081019050611128565b50505050905001935050505060006040518083038186803b15801561116757600080fd5b505afa15801561117b573d6000803e3d6000fd5b505050506040513d6000823e3d601f19601f8201168201806040525060208110156111a557600080fd5b81019080805160405193929190846401000000008211156111c557600080fd5b838201915060208201858111156111db57600080fd5b82518660208202830111640100000000821117156111f857600080fd5b8083526020830192505050908051906020019060200280838360005b8381101561122f578082015181840152602081019050611214565b5050505090500160405250505090508060008151811061124b57fe5b6020026020010151600854106112845761127a8160008151811061126b57fe5b602002602001015184846116e3565b61128383611adb565b5b5050505b611290611f22565b505b50505050505050505050565b60126020528060005260406000206000915090505481565b6013602052816000526040600020602052806000526040600020600091509150505481565b60008054906101000a900473ffffffffffffffffffffffffffffffffffffffff1681565b60146020528060005260406000206000915054906101000a900460ff1681565b600660009054906101000a900473ffffffffffffffffffffffffffffffffffffffff1681565b7f000000000000000000000000000000000000000000000000000000000000000073ffffffffffffffffffffffffffffffffffffffff163373ffffffffffffffffffffffffffffffffffffffff1614611406576040517f08c379a000000000000000000000000000000000000000000000000000000000815260040180806020018281038252601f8152602001807f4f6e6c7920565246436f6f7264696e61746f722063616e2066756c66696c6c0081525060200191505060405180910390fd5b6114108282612030565b5050565b600260009054906101000a900473ffffffffffffffffffffffffffffffffffffffff1681565b611442612167565b565b60095481565b6000600260009054906101000a900473ffffffffffffffffffffffffffffffffffffffff16905090565b60008060116000600954815260200190815260200160002090506000816000018054905090506114af81600b546115d890919063ffffffff16565b9250505090565b60085481565b600560009054906101000a900473ffffffffffffffffffffffffffffffffffffffff1681565b60075481565b6000806011600060095481526020019081526020016000209050600081600001805490509050809250505090565b6000601460003690501015801561153257506115313361085a565b5b1561154657601436033560601c905061154e565b33905061154f565b5b90565b60008083141561156557600090506115d2565b600082840290508284828161157657fe5b04146115cd576040517f08c379a0000000000000000000000000000000000000000000000000000000008152600401808060200182810382526021815260200180612a9f6021913960400191505060405180910390fd5b809150505b92915050565b600082821115611650576040517f08c379a000000000000000000000000000000000000000000000000000000000815260040180806020018281038252601e8152602001807f536166654d6174683a207375627472616374696f6e206f766572666c6f77000081525060200191505060405180910390fd5b818303905092915050565b6000808284019050838110156116d9576040517f08c379a000000000000000000000000000000000000000000000000000000000815260040180806020018281038252601b8152602001807f536166654d6174683a206164646974696f6e206f766572666c6f77000000000081525060200191505060405180910390fd5b8091505092915050565b82600260009054906101000a900473ffffffffffffffffffffffffffffffffffffffff1673ffffffffffffffffffffffffffffffffffffffff1663dd62ed3e30600460009054906101000a900473ffffffffffffffffffffffffffffffffffffffff166040518363ffffffff1660e01b8152600401808373ffffffffffffffffffffffffffffffffffffffff1681526020018273ffffffffffffffffffffffffffffffffffffffff1681526020019250505060206040518083038186803b1580156117ad57600080fd5b505afa1580156117c1573d6000803e3d6000fd5b505050506040513d60208110156117d757600080fd5b8101908080519060200190929190505050101561190057600260009054906101000a900473ffffffffffffffffffffffffffffffffffffffff1673ffffffffffffffffffffffffffffffffffffffff1663095ea7b3600460009054906101000a900473ffffffffffffffffffffffffffffffffffffffff167fffffffffffffffffffffffffffffffffffffffffffffffffffffffffffffffff6040518363ffffffff1660e01b8152600401808373ffffffffffffffffffffffffffffffffffffffff16815260200182815260200192505050602060405180830381600087803b1580156118c357600080fd5b505af11580156118d7573d6000803e3d6000fd5b505050506040513d60208110156118ed57600080fd5b8101908080519060200190929190505050505b600460009054906101000a900473ffffffffffffffffffffffffffffffffffffffff1673ffffffffffffffffffffffffffffffffffffffff16638803dbee838584306119576104b04261165b90919063ffffffff16565b6040518663ffffffff1660e01b815260040180868152602001858152602001806020018473ffffffffffffffffffffffffffffffffffffffff168152602001838152602001828103825285818151815260200191508051906020019060200280838360005b838110156119d75780820151818401526020810190506119bc565b505050509050019650505050505050600060405180830381600087803b158015611a0057600080fd5b505af1158015611a14573d6000803e3d6000fd5b505050506040513d6000823e3d601f19601f820116820180604052506020811015611a3e57600080fd5b8101908080516040519392919084640100000000821115611a5e57600080fd5b83820191506020820185811115611a7457600080fd5b8251866020820283011164010000000082111715611a9157600080fd5b8083526020830192505050908051906020019060200280838360005b83811015611ac8578082015181840152602081019050611aad565b5050505090500160405250505050505050565b80600360009054906101000a900473ffffffffffffffffffffffffffffffffffffffff1673ffffffffffffffffffffffffffffffffffffffff1663dd62ed3e30600560009054906101000a900473ffffffffffffffffffffffffffffffffffffffff166040518363ffffffff1660e01b8152600401808373ffffffffffffffffffffffffffffffffffffffff1681526020018273ffffffffffffffffffffffffffffffffffffffff1681526020019250505060206040518083038186803b158015611ba557600080fd5b505afa158015611bb9573d6000803e3d6000fd5b505050506040513d6020811015611bcf57600080fd5b81019080805190602001909291905050501015611cf857600360009054906101000a900473ffffffffffffffffffffffffffffffffffffffff1673ffffffffffffffffffffffffffffffffffffffff1663095ea7b3600560009054906101000a900473ffffffffffffffffffffffffffffffffffffffff167fffffffffffffffffffffffffffffffffffffffffffffffffffffffffffffffff6040518363ffffffff1660e01b8152600401808373ffffffffffffffffffffffffffffffffffffffff16815260200182815260200192505050602060405180830381600087803b158015611cbb57600080fd5b505af1158015611ccf573d6000803e3d6000fd5b505050506040513d6020811015611ce557600080fd5b8101908080519060200190929190505050505b80600360009054906101000a900473ffffffffffffffffffffffffffffffffffffffff1673ffffffffffffffffffffffffffffffffffffffff166370a08231306040518263ffffffff1660e01b8152600401808273ffffffffffffffffffffffffffffffffffffffff16815260200191505060206040518083038186803b158015611d8257600080fd5b505afa158015611d96573d6000803e3d6000fd5b505050506040513d6020811015611dac57600080fd5b81019080805190602001909291905050501015611e14576040517f08c379a000000000000000000000000000000000000000000000000000000000815260040180806020018281038252602f815260200180612a22602f913960400191505060405180910390fd5b600560009054906101000a900473ffffffffffffffffffffffffffffffffffffffff1673ffffffffffffffffffffffffffffffffffffffff16632b7f092382600360009054906101000a900473ffffffffffffffffffffffffffffffffffffffff167f00000000000000000000000000000000000000000000000000000000000000006040518463ffffffff1660e01b8152600401808481526020018373ffffffffffffffffffffffffffffffffffffffff1681526020018273ffffffffffffffffffffffffffffffffffffffff1681526020019350505050600060405180830381600087803b158015611f0757600080fd5b505af1158015611f1b573d6000803e3d6000fd5b5050505050565b7fce24807f7e4b60b4e641462f13029fa5e5f79075bbc3f8e5cd43ecd19661d7606009546040518082815260200191505060405180910390a1600e547f000000000000000000000000000000000000000000000000000000000000000073ffffffffffffffffffffffffffffffffffffffff166370a08231306040518263ffffffff1660e01b8152600401808273ffffffffffffffffffffffffffffffffffffffff16815260200191505060206040518083038186803b158015611fe557600080fd5b505afa158015611ff9573d6000803e3d6000fd5b505050506040513d602081101561200f57600080fd5b81019080805190602001909291905050501061202e5761202d612167565b5b565b81600115156014600083815260200190815260200160002060009054906101000a900460ff161515146120ae576040517f08c379a0000000000000000000000000000000000000000000000000000000008152600401808060200182810382526022815260200180612a516022913960400191505060405180910390fd5b600b5460116000600954815260200190815260200160002060000180549050146120d757600080fd5b6014600084815260200190815260200160002060006101000a81549060ff021916905560006001612113600b54856122ff90919063ffffffff16565b0190506009547f144f14361fb5bcbf35b044a9528e54f65197cc24874f62c7bc8574ea0b0e612582604051808261ffff16815260200191505060405180910390a26121618161ffff16612388565b50505050565b600e547f000000000000000000000000000000000000000000000000000000000000000073ffffffffffffffffffffffffffffffffffffffff166370a08231306040518263ffffffff1660e01b8152600401808273ffffffffffffffffffffffffffffffffffffffff16815260200191505060206040518083038186803b1580156121f157600080fd5b505afa158015612205573d6000803e3d6000fd5b505050506040513d602081101561221b57600080fd5b81019080805190602001909291905050501015612283576040517f08c379a0000000000000000000000000000000000000000000000000000000008152600401808060200182810382526031815260200180612b186031913960400191505060405180910390fd5b6000612294601054600e5442612660565b905060016014600083815260200190815260200160002060006101000a81548160ff0219169083151502179055506009547fb28c123b0720a067cc8c475aa3357f6fa1609d966314555a907a47b17c74278c826040518082815260200191505060405180910390a250565b6000808211612376576040517f08c379a00000000000000000000000000000000000000000000000000000000081526004018080602001828103825260188152602001807f536166654d6174683a206d6f64756c6f206279207a65726f000000000000000081525060200191505060405180910390fd5b81838161237f57fe5b06905092915050565b6000601160006009548152602001908152602001600020905060008160000183815481106123b257fe5b9060005260206000200160009054906101000a900473ffffffffffffffffffffffffffffffffffffffff169050808260010160006101000a81548173ffffffffffffffffffffffffffffffffffffffff021916908373ffffffffffffffffffffffffffffffffffffffff160217905550600061244d606461243f605a60075461155290919063ffffffff16565b61285790919063ffffffff16565b905061252581600260009054906101000a900473ffffffffffffffffffffffffffffffffffffffff1673ffffffffffffffffffffffffffffffffffffffff166370a08231306040518263ffffffff1660e01b8152600401808273ffffffffffffffffffffffffffffffffffffffff16815260200191505060206040518083038186803b1580156124dc57600080fd5b505afa1580156124f0573d6000803e3d6000fd5b505050506040513d602081101561250657600080fd5b81019080805190602001909291905050506115d890919063ffffffff16565b6008819055506125336128e0565b600260009054906101000a900473ffffffffffffffffffffffffffffffffffffffff1673ffffffffffffffffffffffffffffffffffffffff1663a9059cbb83836040518363ffffffff1660e01b8152600401808373ffffffffffffffffffffffffffffffffffffffff16815260200182815260200192505050602060405180830381600087803b1580156125c657600080fd5b505af11580156125da573d6000803e3d6000fd5b505050506040513d60208110156125f057600080fd5b8101908080519060200190929190505050506009547f866efae43947560fe9d0de9013bc323d5718730d5c1543261b48a7bcb0717b938383604051808373ffffffffffffffffffffffffffffffffffffffff1681526020018281526020019250505060405180910390a250505050565b60007f000000000000000000000000000000000000000000000000000000000000000073ffffffffffffffffffffffffffffffffffffffff16634000aea07f000000000000000000000000000000000000000000000000000000000000000085878660405160200180838152602001828152602001925050506040516020818303038152906040526040518463ffffffff1660e01b8152600401808473ffffffffffffffffffffffffffffffffffffffff16815260200183815260200180602001828103825283818151815260200191508051906020019080838360005b8381101561275957808201518184015260208101905061273e565b50505050905090810190601f1680156127865780820380516001836020036101000a031916815260200191505b50945050505050602060405180830381600087803b1580156127a757600080fd5b505af11580156127bb573d6000803e3d6000fd5b505050506040513d60208110156127d157600080fd5b8101908080519060200190929190505050506000612804858430600160008a8152602001908152602001600020546128fc565b905061282c60018060008881526020019081526020016000205461296090919063ffffffff16565b600160008781526020019081526020016000208190555061284d85826129e8565b9150509392505050565b60008082116128ce576040517f08c379a000000000000000000000000000000000000000000000000000000000815260040180806020018281038252601a8152602001807f536166654d6174683a206469766973696f6e206279207a65726f00000000000081525060200191505060405180910390fd5b8183816128d757fe5b04905092915050565b6009600081548092919060010191905055506000600781905550565b600084848484604051602001808581526020018481526020018373ffffffffffffffffffffffffffffffffffffffff1681526020018281526020019450505050506040516020818303038152906040528051906020012060001c9050949350505050565b6000808284019050838110156129de576040517f08c379a000000000000000000000000000000000000000000000000000000000815260040180806020018281038252601b8152602001807f536166654d6174683a206164646974696f6e206f766572666c6f77000000000081525060200191505060405180910390fd5b8091505092915050565b6000828260405160200180838152602001828152602001925050506040516020818303038152906040528051906020012090509291505056fe57696e4e676e743a204552433230204c494e4b2062616c616e6365206e6f7420656e6f75676820666f72207377617057696e4e676e743a5175657279496420686173206265656e2070726f63657373656457696e4e676e743a546f74616c207469636b6574207065722067616d65206c696d6974206578636565646564536166654d6174683a206d756c7469706c69636174696f6e206f766572666c6f7757696e4e676e743a43616e6e6f7420627579206c657373207468616e206f6e65207469636b657457696e4e676e743a4d6178696d756d207469636b6574206c696d697420706572206164647265737320657863656564656457696e4e676e743a204c494e4b5f4552433637372062616c616e6365206e6f7420656e6f75676820666f72207175657279a2646970667358221220e72df5d7d880643f55eb1705242954472a34059149bcb5e48db41e1e1d585cdc64736f6c63430007060033322e322e302b6f70656e67736e2e77696e6e676e742e6972656c6179726563697069656e74",
  "immutableReferences": {
    "1930": [
      {
        "length": 32,
        "start": 3664
      },
      {
        "length": 32,
        "start": 7800
      },
      {
        "length": 32,
        "start": 8032
      },
      {
        "length": 32,
        "start": 8556
      },
      {
        "length": 32,
        "start": 9828
      }
    ],
    "1932": [
      {
        "length": 32,
        "start": 4935
      },
      {
        "length": 32,
        "start": 9888
      }
    ]
  },
  "source": "// SPDX-License-Identifier:MIT\npragma solidity 0.7.6;\n\nimport \"@openzeppelin/contracts/token/ERC20/IERC20.sol\";\nimport \"./interfaces/IPancakeRouter02.sol\";\nimport \"./interfaces/IPegswap.sol\";\nimport \"@openzeppelin/contracts/math/SafeMath.sol\";\nimport \"@opengsn/contracts/src/BaseRelayRecipient.sol\";\nimport \"@chainlink/contracts/src/v0.7/dev/VRFConsumerBase.sol\";\nimport \"./tokens/NGNT.sol\";\n\ncontract WinNgnt is BaseRelayRecipient, VRFConsumerBase {\n    using SafeMath for uint256;\n\n    NGNTContract public NGNT;\n    //ERC20 version of original ERC677 token\n    IERC20 public LINK_ERC20;\n    IPancakeRouter02 private pancakeswap;\n    IPegswap public pegswap;\n\n    address public WBNB;\n    uint256 public TOTAL_NGNT = 0;\n\n    struct Game {\n        address[] tickets;\n        address gameWinner;\n    }\n\n    uint256 public commission;\n    uint256 public gameNumber = 1;\n    uint256 public ticketPrice = 50000;\n    uint256 public maximumPurchasableTickets = 250;\n    uint256 public maximumTicketsPerAddress = 250;\n    uint256 gsnFee = 5000;\n    uint256 internal chainLinkFee;\n\n\n    string public override versionRecipient =\n        \"2.2.0+opengsn.winngnt.irelayrecipient\";\n\n    bytes32 internal keyHash;\n\n    mapping(uint256 => Game) public games;\n    mapping(address => uint256) public addressTicketCount;\n    mapping(uint256 => mapping(address => uint256))\n        public addressTicketCountPerGame;\n    mapping(bytes32 => bool) public pendingQueries;\n\n    event GameEnded(uint256 gameNumber);\n    event BoughtTicket(\n        address indexed buyer,\n        uint256 numOfTickets,// SPDX-License-Identifier:MIT\n        uint256 totalTicketPrice\n    );\n    event RandomNumberQuerySent(bytes32 queryId, uint256 indexed gameNumber);\n    event RandomNumberGenerated(\n        uint16 randomNumber,\n        uint256 indexed gameNumber\n    );\n    event WinnerSelected(\n        address winner,\n        uint256 amount,\n        uint256 indexed gameNumber\n    );\n\n    modifier atLeastOneTicket(uint256 numberOfTickets) {\n        require(\n            numberOfTickets >= 1,\n            \"WinNgnt:Cannot buy less than one ticket\"\n        );\n        _;\n    }\n\n    modifier ticketLimitNotExceed(uint256 numberOfTickets) {\n        require(\n            (games[gameNumber].tickets.length + numberOfTickets) <=\n                maximumPurchasableTickets,\n            \"WinNgnt:Total ticket per game limit exceeded\"\n        );\n        _;\n    }\n\n    modifier maxTicketPerAddressLimitNotExceed(\n        address _address,\n        uint256 numberOfTickets\n    ) {\n        require(\n            (addressTicketCountPerGame[gameNumber][_address] +\n                numberOfTickets) <= maximumTicketsPerAddress,\n            \"WinNgnt:Maximum ticket limit per address exceeded\"\n        );\n        _;\n    }\n\n    modifier queryIdHasNotBeenProcessed(bytes32 queryId) {\n        require(\n            pendingQueries[queryId] == true,\n            \"WinNgnt:QueryId has been processed\"\n        );\n        _;\n    }\n\n    constructor(\n        NGNTContract _NGNT,\n        IPegswap _pegswap,\n        IERC20 _LINK_ERC20,\n        address _WBNB,\n        IPancakeRouter02 _pancakeswap,\n        address _vrfCoordinator,\n        address _LINK_ERC677,\n        address _trustedForwarder,\n        \n        uint256 _maximumPurchasableTickets\n    )\n        VRFConsumerBase(\n            _vrfCoordinator,\n            _LINK_ERC677\n        )\n    {\n        NGNT = _NGNT;\n        pegswap = _pegswap;\n        LINK_ERC20 = _LINK_ERC20;\n        WBNB = _WBNB;\n        pancakeswap = _pancakeswap;\n        maximumPurchasableTickets = _maximumPurchasableTickets;\n        keyHash = 0xcaf3c3727e033261d383b315559476f48034c13b18f8cafed4d871abe5049186;\n        chainLinkFee = 0.2 * 1e18;\n        trustedForwarder = _trustedForwarder;\n    }\n\n    function buyTicket(uint256 numberOfTickets)\n        external\n        atLeastOneTicket(numberOfTickets)\n        ticketLimitNotExceed(numberOfTickets)\n        maxTicketPerAddressLimitNotExceed(_msgSender(), numberOfTickets)\n    {\n        uint256 totalTicketPrice = ticketPrice.mul(numberOfTickets);\n        uint256 totalAddressTicketCount = addressTicketCount[_msgSender()];\n        uint256 totalAddressTicketCountPerGame =\n            addressTicketCountPerGame[gameNumber][_msgSender()];\n\n\n        NGNT.transferFrom(_msgSender(), address(this), totalTicketPrice);\n        uint addCommission = gsnFee.mul(numberOfTickets);\n        totalTicketPrice = totalTicketPrice.sub(addCommission);\n        commission = commission.add(addCommission);\n        \n\n        TOTAL_NGNT = TOTAL_NGNT.add(totalTicketPrice);\n\n        totalAddressTicketCount = totalAddressTicketCount.add(numberOfTickets);\n        totalAddressTicketCountPerGame = totalAddressTicketCountPerGame.add(numberOfTickets);\n\n        addressTicketCount[_msgSender()] = totalAddressTicketCount;\n        addressTicketCountPerGame[gameNumber][\n            _msgSender()\n        ] = totalAddressTicketCountPerGame;\n\n        Game storage game = games[gameNumber];\n        for (uint256 i = 0; i < numberOfTickets; i++) {\n            game.tickets.push(_msgSender());\n        }\n\n        emit BoughtTicket(_msgSender(), numberOfTickets, totalTicketPrice);\n\n        if (games[gameNumber].tickets.length == maximumPurchasableTickets) {\n            // if(gameNumber.mod(5) == 0){\n            //     swapNgntForEth();\n            //     fundRecipient();\n            // }\n\n            uint LINK_ERC677_Balance = LINK_ERC677.balanceOf(address(this));\n            if (LINK_ERC677_Balance < chainLinkFee) {\n                \n                uint amountOut = chainLinkFee - LINK_ERC677_Balance;\n\n                address[] memory path = new address[](3);\n                (path[0], path[1], path[2]) = (\n                    address(NGNT),\n                    WBNB,\n                    address(LINK_ERC20)\n                );\n                \n                uint[] memory amountsIn = pancakeswap.getAmountsIn(amountOut, path);\n\n                if(commission >= amountsIn[0]){\n                    swapNGNTForLINK_ERC20(amountsIn[0], amountOut, path);\n                    swapLINK_ERC20ForLINK_ERC677(amountOut);\n                }\n            }\n            endGame();\n        }\n    }\n\n    function numberOfTicketsLeft() external view returns (uint256) {\n        Game storage game = games[gameNumber];\n        uint256 ticketsBought = game.tickets.length;\n        return maximumPurchasableTickets.sub(ticketsBought);\n    }\n\n    function numberOfTicketsPurchased() external view returns (uint256) {\n        Game storage game = games[gameNumber];\n        uint256 ticketsBought = game.tickets.length;\n        return ticketsBought;\n    }\n\n    function getNgntAddress() external view returns (address) {\n        return address(NGNT);\n    }\n\n    function fulfillRandomness(bytes32 queryId, uint256 randomness)\n        internal\n        override\n        queryIdHasNotBeenProcessed(queryId)\n    {\n        require(games[gameNumber].tickets.length == maximumPurchasableTickets);\n        delete pendingQueries[queryId];\n        uint16 randomIndex =\n            uint16(randomness.mod(maximumPurchasableTickets) + 1);\n\n        emit RandomNumberGenerated(randomIndex, gameNumber);\n        sendNgntToWinner(randomIndex);\n    }\n\n    function generateRandomNumber() private {\n        require(\n            LINK_ERC677.balanceOf(address(this)) >= chainLinkFee,\n            \"WinNgnt: LINK_ERC677 balance not enough for query\"\n        );\n        bytes32 queryId =\n            requestRandomness(keyHash, chainLinkFee, block.timestamp);\n        pendingQueries[queryId] = true;\n        emit RandomNumberQuerySent(queryId, gameNumber);\n    }\n\n    function startNextGame() public {\n        generateRandomNumber();\n    }\n\n    function sendNgntToWinner(uint256 randomIndex) private {\n        Game storage game = games[gameNumber];\n        address winner = game.tickets[randomIndex];\n        game.gameWinner = winner;\n\n        uint256 amountWon = TOTAL_NGNT.mul(90).div(100);\n        commission = NGNT.balanceOf(address(this)).sub(amountWon);\n        resetGame();\n        NGNT.transfer(winner, amountWon);\n\n        emit WinnerSelected(winner, amountWon, gameNumber);\n    }\n\n    function fundRecipient() private {\n        //uint relayBalance = _relayHub.balanceOf(address(this));\n        // if(relayBalance < targetAmount){\n        //     uint amountDifference = targetAmount.sub(relayBalance);\n        //     if(address(this).balance > amountDifference){\n        //         _relayHub.depositFor.value(amountDifference)(address(this));\n        //     }else{\n        //         _relayHub.depositFor.value(address(this).balance)(address(this));\n        //     }\n        // }\n    }\n\n    function swapNGNTForLINK_ERC20(uint256 _amountIn, uint256 _amountOut, address[] memory path) private {\n        if (NGNT.allowance(address(this), address(pancakeswap)) < _amountIn) {\n            NGNT.approve(address(pancakeswap), type(uint256).max);\n        }\n\n        pancakeswap.swapTokensForExactTokens(\n            _amountOut,\n            _amountIn,\n            path,\n            address(this),\n            block.timestamp.add(20 minutes)\n        );\n    }\n\n    function swapLINK_ERC20ForLINK_ERC677(uint256 _amount) private {\n        if (LINK_ERC20.allowance(address(this), address(pegswap)) < _amount) {\n            LINK_ERC20.approve(address(pegswap), type(uint256).max);\n        }\n\n        require(\n            LINK_ERC20.balanceOf(address(this)) >= _amount,\n            \"WinNgnt: ERC20 LINK balance not enough for swap\"\n        );\n        pegswap.swap(_amount, address(LINK_ERC20), address(LINK_ERC677));\n    }\n\n    function resetGame() private {\n        gameNumber++;\n        TOTAL_NGNT = 0;\n    }\n\n    function endGame() private {\n        emit GameEnded(gameNumber);\n        if(LINK_ERC677.balanceOf(address(this)) >= chainLinkFee) generateRandomNumber();\n    }\n\n    receive() external payable {}\n}\n",
  "sourcePath": "/home/nonseodion/Desktop/win-ngnt/contracts/WinNgnt.sol",
  "compiler": {
    "name": "solc",
    "version": "0.7.6+commit.7338295f.Emscripten.clang"
  },
  "schemaVersion": "3.3.4",
  "updatedAt": "2021-07-02T13:30:00.049Z",
  "devdoc": {
    "kind": "dev",
    "methods": {},
    "version": 1
  },
  "userdoc": {
    "kind": "user",
    "methods": {
      "isTrustedForwarder(address)": {
        "notice": "return if the forwarder is trusted to forward relayed transactions to us. the forwarder is required to verify the sender's signature, and verify the call is not a replay."
      }
    },
    "version": 1
  }
}